{
  "_format": "hh-sol-artifact-1",
  "contractName": "Encode",
  "sourceName": "contracts/Encode.sol",
  "abi": [
    {
      "inputs": [],
      "stateMutability": "nonpayable",
      "type": "constructor"
    },
    {
      "anonymous": false,
      "inputs": [
        {
          "indexed": true,
          "internalType": "address",
          "name": "owner",
          "type": "address"
        },
        {
          "indexed": true,
          "internalType": "address",
          "name": "approved",
          "type": "address"
        },
        {
          "indexed": true,
          "internalType": "uint256",
          "name": "tokenId",
          "type": "uint256"
        }
      ],
      "name": "Approval",
      "type": "event"
    },
    {
      "anonymous": false,
      "inputs": [
        {
          "indexed": true,
          "internalType": "address",
          "name": "owner",
          "type": "address"
        },
        {
          "indexed": true,
          "internalType": "address",
          "name": "operator",
          "type": "address"
        },
        {
          "indexed": false,
          "internalType": "bool",
          "name": "approved",
          "type": "bool"
        }
      ],
      "name": "ApprovalForAll",
      "type": "event"
    },
    {
      "anonymous": false,
      "inputs": [
        {
          "indexed": true,
          "internalType": "address",
          "name": "from",
          "type": "address"
        },
        {
          "indexed": true,
          "internalType": "address",
          "name": "to",
          "type": "address"
        },
        {
          "indexed": true,
          "internalType": "uint256",
          "name": "tokenId",
          "type": "uint256"
        }
      ],
      "name": "Transfer",
      "type": "event"
    },
    {
      "inputs": [
        {
          "internalType": "address",
          "name": "to",
          "type": "address"
        },
        {
          "internalType": "uint256",
          "name": "tokenId",
          "type": "uint256"
        }
      ],
      "name": "approve",
      "outputs": [],
      "stateMutability": "nonpayable",
      "type": "function"
    },
    {
      "inputs": [
        {
          "internalType": "address",
          "name": "owner",
          "type": "address"
        }
      ],
      "name": "balanceOf",
      "outputs": [
        {
          "internalType": "uint256",
          "name": "",
          "type": "uint256"
        }
      ],
      "stateMutability": "view",
      "type": "function"
    },
    {
      "inputs": [
        {
          "internalType": "uint256",
          "name": "tokenId",
          "type": "uint256"
        }
      ],
      "name": "burn",
      "outputs": [],
      "stateMutability": "nonpayable",
      "type": "function"
    },
    {
      "inputs": [
        {
          "internalType": "uint256",
          "name": "",
          "type": "uint256"
        },
        {
          "internalType": "uint256",
          "name": "",
          "type": "uint256"
        }
      ],
      "name": "buyingRequests",
      "outputs": [
        {
          "internalType": "address",
          "name": "buyer",
          "type": "address"
        },
        {
          "internalType": "uint256",
          "name": "offer",
          "type": "uint256"
        },
        {
          "internalType": "uint256",
          "name": "timestamp",
          "type": "uint256"
        },
        {
          "internalType": "enum Encode.BuyingRequestStatus",
          "name": "status",
          "type": "uint8"
        }
      ],
      "stateMutability": "view",
      "type": "function"
    },
    {
      "inputs": [
        {
          "internalType": "uint256",
          "name": "tokenId",
          "type": "uint256"
        },
        {
          "internalType": "uint256",
          "name": "offer",
          "type": "uint256"
        }
      ],
      "name": "createBuyingRequest",
      "outputs": [],
      "stateMutability": "nonpayable",
      "type": "function"
    },
    {
      "inputs": [
        {
          "internalType": "uint256",
          "name": "tokenId",
          "type": "uint256"
        },
        {
          "internalType": "uint256",
          "name": "price",
          "type": "uint256"
        }
      ],
      "name": "createSellingListing",
      "outputs": [],
      "stateMutability": "nonpayable",
      "type": "function"
    },
    {
      "inputs": [
        {
          "internalType": "uint256",
          "name": "tokenId",
          "type": "uint256"
        }
      ],
      "name": "getApproved",
      "outputs": [
        {
          "internalType": "address",
          "name": "",
          "type": "address"
        }
      ],
      "stateMutability": "view",
      "type": "function"
    },
    {
      "inputs": [
        {
          "internalType": "uint256",
          "name": "tokenId",
          "type": "uint256"
        }
      ],
      "name": "getBuyingRequests",
      "outputs": [
        {
          "components": [
            {
              "internalType": "address",
              "name": "buyer",
              "type": "address"
            },
            {
              "internalType": "uint256",
              "name": "offer",
              "type": "uint256"
            },
            {
              "internalType": "uint256",
              "name": "timestamp",
              "type": "uint256"
            },
            {
              "internalType": "enum Encode.BuyingRequestStatus",
              "name": "status",
              "type": "uint8"
            }
          ],
          "internalType": "struct Encode.BuyingRequest[]",
          "name": "",
          "type": "tuple[]"
        }
      ],
      "stateMutability": "view",
      "type": "function"
    },
    {
      "inputs": [
        {
          "internalType": "uint256",
          "name": "tokenId",
          "type": "uint256"
        }
      ],
      "name": "getSellingListings",
      "outputs": [
        {
          "components": [
            {
              "internalType": "uint256",
              "name": "price",
              "type": "uint256"
            },
            {
              "internalType": "uint256",
              "name": "timestamp",
              "type": "uint256"
            }
          ],
          "internalType": "struct Encode.SellingListing",
          "name": "",
          "type": "tuple"
        }
      ],
      "stateMutability": "view",
      "type": "function"
    },
    {
      "inputs": [
        {
          "internalType": "uint256",
          "name": "tokenId",
          "type": "uint256"
        }
      ],
      "name": "getToken",
      "outputs": [
        {
          "components": [
            {
              "internalType": "uint256",
              "name": "id",
              "type": "uint256"
            },
            {
              "internalType": "string",
              "name": "uri",
              "type": "string"
            },
            {
              "internalType": "address",
              "name": "owner",
              "type": "address"
            },
            {
              "components": [
                {
                  "internalType": "uint256",
                  "name": "creationDate",
                  "type": "uint256"
                },
                {
                  "internalType": "string",
                  "name": "title",
                  "type": "string"
                },
                {
                  "internalType": "string",
                  "name": "description",
                  "type": "string"
                }
              ],
              "internalType": "struct Encode.TokenMetadata",
              "name": "metadata",
              "type": "tuple"
            }
          ],
          "internalType": "struct Encode.TokenInfo",
          "name": "",
          "type": "tuple"
        }
      ],
      "stateMutability": "view",
      "type": "function"
    },
    {
      "inputs": [
        {
          "internalType": "address",
          "name": "addr",
          "type": "address"
        }
      ],
      "name": "getTokensOfOwner",
      "outputs": [
        {
          "components": [
            {
              "internalType": "uint256",
              "name": "id",
              "type": "uint256"
            },
            {
              "internalType": "string",
              "name": "uri",
              "type": "string"
            },
            {
              "internalType": "address",
              "name": "owner",
              "type": "address"
            },
            {
              "components": [
                {
                  "internalType": "uint256",
                  "name": "creationDate",
                  "type": "uint256"
                },
                {
                  "internalType": "string",
                  "name": "title",
                  "type": "string"
                },
                {
                  "internalType": "string",
                  "name": "description",
                  "type": "string"
                }
              ],
              "internalType": "struct Encode.TokenMetadata",
              "name": "metadata",
              "type": "tuple"
            }
          ],
          "internalType": "struct Encode.TokenInfo[]",
          "name": "",
          "type": "tuple[]"
        }
      ],
      "stateMutability": "view",
      "type": "function"
    },
    {
      "inputs": [
        {
          "internalType": "address",
          "name": "owner",
          "type": "address"
        },
        {
          "internalType": "address",
          "name": "operator",
          "type": "address"
        }
      ],
      "name": "isApprovedForAll",
      "outputs": [
        {
          "internalType": "bool",
          "name": "",
          "type": "bool"
        }
      ],
      "stateMutability": "view",
      "type": "function"
    },
    {
      "inputs": [],
      "name": "listTokens",
      "outputs": [
        {
          "components": [
            {
              "internalType": "uint256",
              "name": "id",
              "type": "uint256"
            },
            {
              "internalType": "string",
              "name": "uri",
              "type": "string"
            },
            {
              "internalType": "address",
              "name": "owner",
              "type": "address"
            },
            {
              "components": [
                {
                  "internalType": "uint256",
                  "name": "creationDate",
                  "type": "uint256"
                },
                {
                  "internalType": "string",
                  "name": "title",
                  "type": "string"
                },
                {
                  "internalType": "string",
                  "name": "description",
                  "type": "string"
                }
              ],
              "internalType": "struct Encode.TokenMetadata",
              "name": "metadata",
              "type": "tuple"
            }
          ],
          "internalType": "struct Encode.TokenInfo[]",
          "name": "",
          "type": "tuple[]"
        }
      ],
      "stateMutability": "view",
      "type": "function"
    },
    {
      "inputs": [],
      "name": "name",
      "outputs": [
        {
          "internalType": "string",
          "name": "",
          "type": "string"
        }
      ],
      "stateMutability": "view",
      "type": "function"
    },
    {
      "inputs": [
        {
          "internalType": "uint256",
          "name": "tokenId",
          "type": "uint256"
        }
      ],
      "name": "ownerOf",
      "outputs": [
        {
          "internalType": "address",
          "name": "",
          "type": "address"
        }
      ],
      "stateMutability": "view",
      "type": "function"
    },
    {
      "inputs": [
        {
          "internalType": "address",
          "name": "to",
          "type": "address"
        },
        {
          "internalType": "string",
          "name": "uri",
          "type": "string"
        },
        {
          "internalType": "string",
          "name": "title",
          "type": "string"
        },
        {
          "internalType": "string",
          "name": "description",
          "type": "string"
        }
      ],
      "name": "safeMint",
      "outputs": [],
      "stateMutability": "nonpayable",
      "type": "function"
    },
    {
      "inputs": [
        {
          "internalType": "address",
          "name": "from",
          "type": "address"
        },
        {
          "internalType": "address",
          "name": "to",
          "type": "address"
        },
        {
          "internalType": "uint256",
          "name": "tokenId",
          "type": "uint256"
        }
      ],
      "name": "safeTransferFrom",
      "outputs": [],
      "stateMutability": "nonpayable",
      "type": "function"
    },
    {
      "inputs": [
        {
          "internalType": "address",
          "name": "from",
          "type": "address"
        },
        {
          "internalType": "address",
          "name": "to",
          "type": "address"
        },
        {
          "internalType": "uint256",
          "name": "tokenId",
          "type": "uint256"
        },
        {
          "internalType": "bytes",
          "name": "data",
          "type": "bytes"
        }
      ],
      "name": "safeTransferFrom",
      "outputs": [],
      "stateMutability": "nonpayable",
      "type": "function"
    },
    {
      "inputs": [
        {
          "internalType": "uint256",
          "name": "",
          "type": "uint256"
        }
      ],
      "name": "sellingListing",
      "outputs": [
        {
          "internalType": "uint256",
          "name": "price",
          "type": "uint256"
        },
        {
          "internalType": "uint256",
          "name": "timestamp",
          "type": "uint256"
        }
      ],
      "stateMutability": "view",
      "type": "function"
    },
    {
      "inputs": [
        {
          "internalType": "address",
          "name": "operator",
          "type": "address"
        },
        {
          "internalType": "bool",
          "name": "approved",
          "type": "bool"
        }
      ],
      "name": "setApprovalForAll",
      "outputs": [],
      "stateMutability": "nonpayable",
      "type": "function"
    },
    {
      "inputs": [
        {
          "internalType": "bytes4",
          "name": "interfaceId",
          "type": "bytes4"
        }
      ],
      "name": "supportsInterface",
      "outputs": [
        {
          "internalType": "bool",
          "name": "",
          "type": "bool"
        }
      ],
      "stateMutability": "view",
      "type": "function"
    },
    {
      "inputs": [],
      "name": "symbol",
      "outputs": [
        {
          "internalType": "string",
          "name": "",
          "type": "string"
        }
      ],
      "stateMutability": "view",
      "type": "function"
    },
    {
      "inputs": [
        {
          "internalType": "uint256",
          "name": "index",
          "type": "uint256"
        }
      ],
      "name": "tokenByIndex",
      "outputs": [
        {
          "internalType": "uint256",
          "name": "",
          "type": "uint256"
        }
      ],
      "stateMutability": "view",
      "type": "function"
    },
    {
      "inputs": [
        {
          "internalType": "uint256",
          "name": "",
          "type": "uint256"
        }
      ],
      "name": "tokenMetadata",
      "outputs": [
        {
          "internalType": "uint256",
          "name": "creationDate",
          "type": "uint256"
        },
        {
          "internalType": "string",
          "name": "title",
          "type": "string"
        },
        {
          "internalType": "string",
          "name": "description",
          "type": "string"
        }
      ],
      "stateMutability": "view",
      "type": "function"
    },
    {
      "inputs": [
        {
          "internalType": "address",
          "name": "owner",
          "type": "address"
        },
        {
          "internalType": "uint256",
          "name": "index",
          "type": "uint256"
        }
      ],
      "name": "tokenOfOwnerByIndex",
      "outputs": [
        {
          "internalType": "uint256",
          "name": "",
          "type": "uint256"
        }
      ],
      "stateMutability": "view",
      "type": "function"
    },
    {
      "inputs": [
        {
          "internalType": "uint256",
          "name": "tokenId",
          "type": "uint256"
        }
      ],
      "name": "tokenURI",
      "outputs": [
        {
          "internalType": "string",
          "name": "",
          "type": "string"
        }
      ],
      "stateMutability": "view",
      "type": "function"
    },
    {
      "inputs": [],
      "name": "totalSupply",
      "outputs": [
        {
          "internalType": "uint256",
          "name": "",
          "type": "uint256"
        }
      ],
      "stateMutability": "view",
      "type": "function"
    },
    {
      "inputs": [
        {
          "internalType": "address",
          "name": "from",
          "type": "address"
        },
        {
          "internalType": "address",
          "name": "to",
          "type": "address"
        },
        {
          "internalType": "uint256",
          "name": "tokenId",
          "type": "uint256"
        }
      ],
      "name": "transferFrom",
      "outputs": [],
      "stateMutability": "nonpayable",
      "type": "function"
    }
  ],
  "bytecode": "0x60806040523480156200001157600080fd5b506040518060400160405280600681526020017f456e636f646500000000000000000000000000000000000000000000000000008152506040518060400160405280600381526020017f454e43000000000000000000000000000000000000000000000000000000000081525081600090816200008f919062000324565b508060019081620000a1919062000324565b5050506200040b565b600081519050919050565b7f4e487b7100000000000000000000000000000000000000000000000000000000600052604160045260246000fd5b7f4e487b7100000000000000000000000000000000000000000000000000000000600052602260045260246000fd5b600060028204905060018216806200012c57607f821691505b602082108103620001425762000141620000e4565b5b50919050565b60008190508160005260206000209050919050565b60006020601f8301049050919050565b600082821b905092915050565b600060088302620001ac7fffffffffffffffffffffffffffffffffffffffffffffffffffffffffffffffff826200016d565b620001b886836200016d565b95508019841693508086168417925050509392505050565b6000819050919050565b6000819050919050565b600062000205620001ff620001f984620001d0565b620001da565b620001d0565b9050919050565b6000819050919050565b6200022183620001e4565b6200023962000230826200020c565b8484546200017a565b825550505050565b600090565b6200025062000241565b6200025d81848462000216565b505050565b5b8181101562000285576200027960008262000246565b60018101905062000263565b5050565b601f821115620002d4576200029e8162000148565b620002a9846200015d565b81016020851015620002b9578190505b620002d1620002c8856200015d565b83018262000262565b50505b505050565b600082821c905092915050565b6000620002f960001984600802620002d9565b1980831691505092915050565b6000620003148383620002e6565b9150826002028217905092915050565b6200032f82620000aa565b67ffffffffffffffff8111156200034b576200034a620000b5565b5b62000357825462000113565b6200036482828562000289565b600060209050601f8311600181146200039c576000841562000387578287015190505b62000393858262000306565b86555062000403565b601f198416620003ac8662000148565b60005b82811015620003d657848901518255600182019150602085019450602081019050620003af565b86831015620003f65784890151620003f2601f891682620002e6565b8355505b6001600288020188555050505b505050505050565b614e10806200041b6000396000f3fe608060405234801561001057600080fd5b50600436106101c45760003560e01c80635de6dc55116100f9578063a22cb46511610097578063d1b3405211610071578063d1b3405214610552578063e4b50cb814610583578063e6f80ae6146105b3578063e985e9c5146105e3576101c4565b8063a22cb465146104ea578063b88d4fde14610506578063c87b56dd14610522576101c4565b806370a08231116100d357806370a08231146104625780637488ff76146104925780638f747dd0146104b057806395d89b41146104cc576101c4565b80635de6dc55146103d05780636352211e146104005780636914db6014610430576101c4565b806323b872dd1161016657806342842e0e1161014057806342842e0e1461033857806342966c68146103545780634f6ccce714610370578063596fbfb0146103a0576101c4565b806323b872dd146102d057806324f763d9146102ec5780632f745c5914610308576101c4565b8063081812fc116101a2578063081812fc14610233578063095ea7b31461026357806318160ddd1461027f5780631f8276b81461029d576101c4565b806301ffc9a7146101c957806303a80dfb146101f957806306fdde0314610215575b600080fd5b6101e360048036038101906101de9190613289565b610613565b6040516101f091906132d1565b60405180910390f35b610213600480360381019061020e9190613490565b610625565b005b61021d6106bb565b60405161022a91906135ca565b60405180910390f35b61024d60048036038101906102489190613622565b61074d565b60405161025a919061365e565b60405180910390f35b61027d60048036038101906102789190613679565b610793565b005b6102876108aa565b60405161029491906136c8565b60405180910390f35b6102b760048036038101906102b291906136e3565b6108b7565b6040516102c7949392919061379a565b60405180910390f35b6102ea60048036038101906102e591906137df565b610931565b005b610306600480360381019061030191906136e3565b610991565b005b610322600480360381019061031d9190613679565b610a97565b60405161032f91906136c8565b60405180910390f35b610352600480360381019061034d91906137df565b610b3c565b005b61036e60048036038101906103699190613622565b610b5c565b005b61038a60048036038101906103859190613622565b610bb8565b60405161039791906136c8565b60405180910390f35b6103ba60048036038101906103b59190613622565b610c29565b6040516103c79190613963565b60405180910390f35b6103ea60048036038101906103e59190613985565b610d40565b6040516103f79190613b7f565b60405180910390f35b61041a60048036038101906104159190613622565b610f95565b604051610427919061365e565b60405180910390f35b61044a60048036038101906104459190613622565b61101b565b60405161045993929190613ba1565b60405180910390f35b61047c60048036038101906104779190613985565b611155565b60405161048991906136c8565b60405180910390f35b61049a61120c565b6040516104a79190613b7f565b60405180910390f35b6104ca60048036038101906104c591906136e3565b61145d565b005b6104d461162d565b6040516104e191906135ca565b60405180910390f35b61050460048036038101906104ff9190613c12565b6116bf565b005b610520600480360381019061051b9190613cf3565b6116d5565b005b61053c60048036038101906105379190613622565b611737565b60405161054991906135ca565b60405180910390f35b61056c60048036038101906105679190613622565b611749565b60405161057a929190613d76565b60405180910390f35b61059d60048036038101906105989190613622565b61176d565b6040516105aa9190613e09565b60405180910390f35b6105cd60048036038101906105c89190613622565b611914565b6040516105da9190613e5a565b60405180910390f35b6105fd60048036038101906105f89190613e75565b611955565b60405161060a91906132d1565b60405180910390f35b600061061e826119e9565b9050919050565b6000610631600b611a63565b905061063d600b611a71565b6106478582611a87565b6106518185611aa5565b42600e60008381526020019081526020016000206000018190555082600e6000838152602001908152602001600020600101908161068f91906140c1565b5081600e600083815260200190815260200160002060020190816106b391906140c1565b505050505050565b6060600080546106ca90613ee4565b80601f01602080910402602001604051908101604052809291908181526020018280546106f690613ee4565b80156107435780601f1061071857610100808354040283529160200191610743565b820191906000526020600020905b81548152906001019060200180831161072657829003601f168201915b5050505050905090565b600061075882611b12565b6004600083815260200190815260200160002060009054906101000a900473ffffffffffffffffffffffffffffffffffffffff169050919050565b600061079e82610f95565b90508073ffffffffffffffffffffffffffffffffffffffff168373ffffffffffffffffffffffffffffffffffffffff160361080e576040517f08c379a000000000000000000000000000000000000000000000000000000000815260040161080590614205565b60405180910390fd5b8073ffffffffffffffffffffffffffffffffffffffff1661082d611b5d565b73ffffffffffffffffffffffffffffffffffffffff16148061085c575061085b81610856611b5d565b611955565b5b61089b576040517f08c379a000000000000000000000000000000000000000000000000000000000815260040161089290614297565b60405180910390fd5b6108a58383611b65565b505050565b6000600880549050905090565b600c60205281600052604060002081815481106108d357600080fd5b9060005260206000209060040201600091509150508060000160009054906101000a900473ffffffffffffffffffffffffffffffffffffffff16908060010154908060020154908060030160009054906101000a900460ff16905084565b61094261093c611b5d565b82611c1e565b610981576040517f08c379a000000000000000000000000000000000000000000000000000000000815260040161097890614329565b60405180910390fd5b61098c838383611cb3565b505050565b3373ffffffffffffffffffffffffffffffffffffffff166109b183610f95565b73ffffffffffffffffffffffffffffffffffffffff1614610a07576040517f08c379a00000000000000000000000000000000000000000000000000000000081526004016109fe906143bb565b60405180910390fd5b60008111610a4a576040517f08c379a0000000000000000000000000000000000000000000000000000000008152600401610a4190614427565b60405180910390fd5b610a543083610793565b604051806040016040528082815260200142815250600d600084815260200190815260200160002060008201518160000155602082015181600101559050505050565b6000610aa283611155565b8210610ae3576040517f08c379a0000000000000000000000000000000000000000000000000000000008152600401610ada906144b9565b60405180910390fd5b600660008473ffffffffffffffffffffffffffffffffffffffff1673ffffffffffffffffffffffffffffffffffffffff168152602001908152602001600020600083815260200190815260200160002054905092915050565b610b57838383604051806020016040528060008152506116d5565b505050565b610b6d610b67611b5d565b82611c1e565b610bac576040517f08c379a0000000000000000000000000000000000000000000000000000000008152600401610ba390614329565b60405180910390fd5b610bb581611fac565b50565b6000610bc26108aa565b8210610c03576040517f08c379a0000000000000000000000000000000000000000000000000000000008152600401610bfa9061454b565b60405180910390fd5b60088281548110610c1757610c1661456b565b5b90600052602060002001549050919050565b6060600c6000838152602001908152602001600020805480602002602001604051908101604052809291908181526020016000905b82821015610d3557838290600052602060002090600402016040518060800160405290816000820160009054906101000a900473ffffffffffffffffffffffffffffffffffffffff1673ffffffffffffffffffffffffffffffffffffffff1673ffffffffffffffffffffffffffffffffffffffff16815260200160018201548152602001600282015481526020016003820160009054906101000a900460ff166002811115610d1057610d0f613723565b5b6002811115610d2257610d21613723565b5b8152505081526020019060010190610c5e565b505050509050919050565b60606000610d4d83611155565b905060008167ffffffffffffffff811115610d6b57610d6a613365565b5b604051908082528060200260200182016040528015610da457816020015b610d91613141565b815260200190600190039081610d895790505b50905060005b82811015610f8a576000610dbe8683610a97565b90506000600e600083815260200190815260200160002060405180606001604052908160008201548152602001600182018054610dfa90613ee4565b80601f0160208091040260200160405190810160405280929190818152602001828054610e2690613ee4565b8015610e735780601f10610e4857610100808354040283529160200191610e73565b820191906000526020600020905b815481529060010190602001808311610e5657829003601f168201915b50505050508152602001600282018054610e8c90613ee4565b80601f0160208091040260200160405190810160405280929190818152602001828054610eb890613ee4565b8015610f055780601f10610eda57610100808354040283529160200191610f05565b820191906000526020600020905b815481529060010190602001808311610ee857829003601f168201915b50505050508152505090506040518060800160405280838152602001610f2a84611737565b8152602001610f3884610f95565b73ffffffffffffffffffffffffffffffffffffffff16815260200182815250848481518110610f6a57610f6961456b565b5b602002602001018190525050508080610f82906145c9565b915050610daa565b508092505050919050565b600080610fa183611fb8565b9050600073ffffffffffffffffffffffffffffffffffffffff168173ffffffffffffffffffffffffffffffffffffffff1603611012576040517f08c379a00000000000000000000000000000000000000000000000000000000081526004016110099061465d565b60405180910390fd5b80915050919050565b600e60205280600052604060002060009150905080600001549080600101805461104490613ee4565b80601f016020809104026020016040519081016040528092919081815260200182805461107090613ee4565b80156110bd5780601f10611092576101008083540402835291602001916110bd565b820191906000526020600020905b8154815290600101906020018083116110a057829003601f168201915b5050505050908060020180546110d290613ee4565b80601f01602080910402602001604051908101604052809291908181526020018280546110fe90613ee4565b801561114b5780601f106111205761010080835404028352916020019161114b565b820191906000526020600020905b81548152906001019060200180831161112e57829003601f168201915b5050505050905083565b60008073ffffffffffffffffffffffffffffffffffffffff168273ffffffffffffffffffffffffffffffffffffffff16036111c5576040517f08c379a00000000000000000000000000000000000000000000000000000000081526004016111bc906146ef565b60405180910390fd5b600360008373ffffffffffffffffffffffffffffffffffffffff1673ffffffffffffffffffffffffffffffffffffffff168152602001908152602001600020549050919050565b606060006112186108aa565b905060008167ffffffffffffffff81111561123657611235613365565b5b60405190808252806020026020018201604052801561126f57816020015b61125c613141565b8152602001906001900390816112545790505b50905060005b8281101561145457600061128882610bb8565b90506000600e6000838152602001908152602001600020604051806060016040529081600082015481526020016001820180546112c490613ee4565b80601f01602080910402602001604051908101604052809291908181526020018280546112f090613ee4565b801561133d5780601f106113125761010080835404028352916020019161133d565b820191906000526020600020905b81548152906001019060200180831161132057829003601f168201915b5050505050815260200160028201805461135690613ee4565b80601f016020809104026020016040519081016040528092919081815260200182805461138290613ee4565b80156113cf5780601f106113a4576101008083540402835291602001916113cf565b820191906000526020600020905b8154815290600101906020018083116113b257829003601f168201915b505050505081525050905060405180608001604052808381526020016113f484611737565b815260200161140284610f95565b73ffffffffffffffffffffffffffffffffffffffff168152602001828152508484815181106114345761143361456b565b5b60200260200101819052505050808061144c906145c9565b915050611275565b50809250505090565b3373ffffffffffffffffffffffffffffffffffffffff1661147d83610f95565b73ffffffffffffffffffffffffffffffffffffffff16036114d3576040517f08c379a00000000000000000000000000000000000000000000000000000000081526004016114ca9061475b565b60405180910390fd5b60008111611516576040517f08c379a000000000000000000000000000000000000000000000000000000000815260040161150d906147c7565b60405180910390fd5b600c600083815260200190815260200160002060405180608001604052803373ffffffffffffffffffffffffffffffffffffffff168152602001838152602001428152602001600060028111156115705761156f613723565b5b815250908060018154018082558091505060019003906000526020600020906004020160009091909190915060008201518160000160006101000a81548173ffffffffffffffffffffffffffffffffffffffff021916908373ffffffffffffffffffffffffffffffffffffffff160217905550602082015181600101556040820151816002015560608201518160030160006101000a81548160ff0219169083600281111561162257611621613723565b5b021790555050505050565b60606001805461163c90613ee4565b80601f016020809104026020016040519081016040528092919081815260200182805461166890613ee4565b80156116b55780601f1061168a576101008083540402835291602001916116b5565b820191906000526020600020905b81548152906001019060200180831161169857829003601f168201915b5050505050905090565b6116d16116ca611b5d565b8383611ff5565b5050565b6116e66116e0611b5d565b83611c1e565b611725576040517f08c379a000000000000000000000000000000000000000000000000000000000815260040161171c90614329565b60405180910390fd5b61173184848484612161565b50505050565b6060611742826121bd565b9050919050565b600d6020528060005260406000206000915090508060000154908060010154905082565b611775613141565b6000600e6000848152602001908152602001600020604051806060016040529081600082015481526020016001820180546117af90613ee4565b80601f01602080910402602001604051908101604052809291908181526020018280546117db90613ee4565b80156118285780601f106117fd57610100808354040283529160200191611828565b820191906000526020600020905b81548152906001019060200180831161180b57829003601f168201915b5050505050815260200160028201805461184190613ee4565b80601f016020809104026020016040519081016040528092919081815260200182805461186d90613ee4565b80156118ba5780601f1061188f576101008083540402835291602001916118ba565b820191906000526020600020905b81548152906001019060200180831161189d57829003601f168201915b505050505081525050905060405180608001604052808481526020016118df85611737565b81526020016118ed85610f95565b73ffffffffffffffffffffffffffffffffffffffff16815260200182815250915050919050565b61191c613185565b600d6000838152602001908152602001600020604051806040016040529081600082015481526020016001820154815250509050919050565b6000600560008473ffffffffffffffffffffffffffffffffffffffff1673ffffffffffffffffffffffffffffffffffffffff16815260200190815260200160002060008373ffffffffffffffffffffffffffffffffffffffff1673ffffffffffffffffffffffffffffffffffffffff16815260200190815260200160002060009054906101000a900460ff16905092915050565b60007f780e9d63000000000000000000000000000000000000000000000000000000007bffffffffffffffffffffffffffffffffffffffffffffffffffffffff1916827bffffffffffffffffffffffffffffffffffffffffffffffffffffffff19161480611a5c5750611a5b826122cf565b5b9050919050565b600081600001549050919050565b6001816000016000828254019250508190555050565b611aa18282604051806020016040528060008152506123b1565b5050565b611aae8261240c565b611aed576040517f08c379a0000000000000000000000000000000000000000000000000000000008152600401611ae490614859565b60405180910390fd5b80600a60008481526020019081526020016000209081611b0d91906140c1565b505050565b611b1b8161240c565b611b5a576040517f08c379a0000000000000000000000000000000000000000000000000000000008152600401611b519061465d565b60405180910390fd5b50565b600033905090565b816004600083815260200190815260200160002060006101000a81548173ffffffffffffffffffffffffffffffffffffffff021916908373ffffffffffffffffffffffffffffffffffffffff160217905550808273ffffffffffffffffffffffffffffffffffffffff16611bd883610f95565b73ffffffffffffffffffffffffffffffffffffffff167f8c5be1e5ebec7d5bd14f71427d1e84f3dd0314c0f7b2291e5b200ac8c7c3b92560405160405180910390a45050565b600080611c2a83610f95565b90508073ffffffffffffffffffffffffffffffffffffffff168473ffffffffffffffffffffffffffffffffffffffff161480611c6c5750611c6b8185611955565b5b80611caa57508373ffffffffffffffffffffffffffffffffffffffff16611c928461074d565b73ffffffffffffffffffffffffffffffffffffffff16145b91505092915050565b8273ffffffffffffffffffffffffffffffffffffffff16611cd382610f95565b73ffffffffffffffffffffffffffffffffffffffff1614611d29576040517f08c379a0000000000000000000000000000000000000000000000000000000008152600401611d20906148eb565b60405180910390fd5b600073ffffffffffffffffffffffffffffffffffffffff168273ffffffffffffffffffffffffffffffffffffffff1603611d98576040517f08c379a0000000000000000000000000000000000000000000000000000000008152600401611d8f9061497d565b60405180910390fd5b611da5838383600161244d565b8273ffffffffffffffffffffffffffffffffffffffff16611dc582610f95565b73ffffffffffffffffffffffffffffffffffffffff1614611e1b576040517f08c379a0000000000000000000000000000000000000000000000000000000008152600401611e12906148eb565b60405180910390fd5b6004600082815260200190815260200160002060006101000a81549073ffffffffffffffffffffffffffffffffffffffff02191690556001600360008573ffffffffffffffffffffffffffffffffffffffff1673ffffffffffffffffffffffffffffffffffffffff168152602001908152602001600020600082825403925050819055506001600360008473ffffffffffffffffffffffffffffffffffffffff1673ffffffffffffffffffffffffffffffffffffffff16815260200190815260200160002060008282540192505081905550816002600083815260200190815260200160002060006101000a81548173ffffffffffffffffffffffffffffffffffffffff021916908373ffffffffffffffffffffffffffffffffffffffff160217905550808273ffffffffffffffffffffffffffffffffffffffff168473ffffffffffffffffffffffffffffffffffffffff167fddf252ad1be2c89b69c2b068fc378daa952ba7f163c4a11628f55a4df523b3ef60405160405180910390a4611fa7838383600161245f565b505050565b611fb581612465565b50565b60006002600083815260200190815260200160002060009054906101000a900473ffffffffffffffffffffffffffffffffffffffff169050919050565b8173ffffffffffffffffffffffffffffffffffffffff168373ffffffffffffffffffffffffffffffffffffffff1603612063576040517f08c379a000000000000000000000000000000000000000000000000000000000815260040161205a906149e9565b60405180910390fd5b80600560008573ffffffffffffffffffffffffffffffffffffffff1673ffffffffffffffffffffffffffffffffffffffff16815260200190815260200160002060008473ffffffffffffffffffffffffffffffffffffffff1673ffffffffffffffffffffffffffffffffffffffff16815260200190815260200160002060006101000a81548160ff0219169083151502179055508173ffffffffffffffffffffffffffffffffffffffff168373ffffffffffffffffffffffffffffffffffffffff167f17307eab39ab6107e8899845ad3d59bd9653f200f220920489ca2b5937696c318360405161215491906132d1565b60405180910390a3505050565b61216c848484611cb3565b612178848484846124b8565b6121b7576040517f08c379a00000000000000000000000000000000000000000000000000000000081526004016121ae90614a7b565b60405180910390fd5b50505050565b60606121c882611b12565b6000600a600084815260200190815260200160002080546121e890613ee4565b80601f016020809104026020016040519081016040528092919081815260200182805461221490613ee4565b80156122615780601f1061223657610100808354040283529160200191612261565b820191906000526020600020905b81548152906001019060200180831161224457829003601f168201915b50505050509050600061227261263f565b905060008151036122875781925050506122ca565b6000825111156122bc5780826040516020016122a4929190614ad7565b604051602081830303815290604052925050506122ca565b6122c584612656565b925050505b919050565b60007f80ac58cd000000000000000000000000000000000000000000000000000000007bffffffffffffffffffffffffffffffffffffffffffffffffffffffff1916827bffffffffffffffffffffffffffffffffffffffffffffffffffffffff1916148061239a57507f5b5e139f000000000000000000000000000000000000000000000000000000007bffffffffffffffffffffffffffffffffffffffffffffffffffffffff1916827bffffffffffffffffffffffffffffffffffffffffffffffffffffffff1916145b806123aa57506123a9826126be565b5b9050919050565b6123bb8383612728565b6123c860008484846124b8565b612407576040517f08c379a00000000000000000000000000000000000000000000000000000000081526004016123fe90614a7b565b60405180910390fd5b505050565b60008073ffffffffffffffffffffffffffffffffffffffff1661242e83611fb8565b73ffffffffffffffffffffffffffffffffffffffff1614159050919050565b61245984848484612945565b50505050565b50505050565b61246e81612aa3565b6000600a6000838152602001908152602001600020805461248e90613ee4565b9050146124b557600a600082815260200190815260200160002060006124b4919061319f565b5b50565b60006124d98473ffffffffffffffffffffffffffffffffffffffff16612bf1565b15612632578373ffffffffffffffffffffffffffffffffffffffff1663150b7a02612502611b5d565b8786866040518563ffffffff1660e01b81526004016125249493929190614b50565b6020604051808303816000875af192505050801561256057506040513d601f19601f8201168201806040525081019061255d9190614bb1565b60015b6125e2573d8060008114612590576040519150601f19603f3d011682016040523d82523d6000602084013e612595565b606091505b5060008151036125da576040517f08c379a00000000000000000000000000000000000000000000000000000000081526004016125d190614a7b565b60405180910390fd5b805181602001fd5b63150b7a0260e01b7bffffffffffffffffffffffffffffffffffffffffffffffffffffffff1916817bffffffffffffffffffffffffffffffffffffffffffffffffffffffff191614915050612637565b600190505b949350505050565b606060405180602001604052806000815250905090565b606061266182611b12565b600061266b61263f565b9050600081511161268b57604051806020016040528060008152506126b6565b8061269584612c14565b6040516020016126a6929190614ad7565b6040516020818303038152906040525b915050919050565b60007f01ffc9a7000000000000000000000000000000000000000000000000000000007bffffffffffffffffffffffffffffffffffffffffffffffffffffffff1916827bffffffffffffffffffffffffffffffffffffffffffffffffffffffff1916149050919050565b600073ffffffffffffffffffffffffffffffffffffffff168273ffffffffffffffffffffffffffffffffffffffff1603612797576040517f08c379a000000000000000000000000000000000000000000000000000000000815260040161278e90614c2a565b60405180910390fd5b6127a08161240c565b156127e0576040517f08c379a00000000000000000000000000000000000000000000000000000000081526004016127d790614c96565b60405180910390fd5b6127ee60008383600161244d565b6127f78161240c565b15612837576040517f08c379a000000000000000000000000000000000000000000000000000000000815260040161282e90614c96565b60405180910390fd5b6001600360008473ffffffffffffffffffffffffffffffffffffffff1673ffffffffffffffffffffffffffffffffffffffff16815260200190815260200160002060008282540192505081905550816002600083815260200190815260200160002060006101000a81548173ffffffffffffffffffffffffffffffffffffffff021916908373ffffffffffffffffffffffffffffffffffffffff160217905550808273ffffffffffffffffffffffffffffffffffffffff16600073ffffffffffffffffffffffffffffffffffffffff167fddf252ad1be2c89b69c2b068fc378daa952ba7f163c4a11628f55a4df523b3ef60405160405180910390a461294160008383600161245f565b5050565b61295184848484612ce2565b6001811115612995576040517f08c379a000000000000000000000000000000000000000000000000000000000815260040161298c90614d28565b60405180910390fd5b6000829050600073ffffffffffffffffffffffffffffffffffffffff168573ffffffffffffffffffffffffffffffffffffffff16036129dc576129d781612ce8565b612a1b565b8373ffffffffffffffffffffffffffffffffffffffff168573ffffffffffffffffffffffffffffffffffffffff1614612a1a57612a198582612d31565b5b5b600073ffffffffffffffffffffffffffffffffffffffff168473ffffffffffffffffffffffffffffffffffffffff1603612a5d57612a5881612e9e565b612a9c565b8473ffffffffffffffffffffffffffffffffffffffff168473ffffffffffffffffffffffffffffffffffffffff1614612a9b57612a9a8482612f6f565b5b5b5050505050565b6000612aae82610f95565b9050612abe81600084600161244d565b612ac782610f95565b90506004600083815260200190815260200160002060006101000a81549073ffffffffffffffffffffffffffffffffffffffff02191690556001600360008373ffffffffffffffffffffffffffffffffffffffff1673ffffffffffffffffffffffffffffffffffffffff168152602001908152602001600020600082825403925050819055506002600083815260200190815260200160002060006101000a81549073ffffffffffffffffffffffffffffffffffffffff021916905581600073ffffffffffffffffffffffffffffffffffffffff168273ffffffffffffffffffffffffffffffffffffffff167fddf252ad1be2c89b69c2b068fc378daa952ba7f163c4a11628f55a4df523b3ef60405160405180910390a4612bed81600084600161245f565b5050565b6000808273ffffffffffffffffffffffffffffffffffffffff163b119050919050565b606060006001612c2384612fee565b01905060008167ffffffffffffffff811115612c4257612c41613365565b5b6040519080825280601f01601f191660200182016040528015612c745781602001600182028036833780820191505090505b509050600082602001820190505b600115612cd7578080600190039150507f3031323334353637383961626364656600000000000000000000000000000000600a86061a8153600a8581612ccb57612cca614d48565b5b04945060008503612c82575b819350505050919050565b50505050565b6008805490506009600083815260200190815260200160002081905550600881908060018154018082558091505060019003906000526020600020016000909190919091505550565b60006001612d3e84611155565b612d489190614d77565b9050600060076000848152602001908152602001600020549050818114612e2d576000600660008673ffffffffffffffffffffffffffffffffffffffff1673ffffffffffffffffffffffffffffffffffffffff168152602001908152602001600020600084815260200190815260200160002054905080600660008773ffffffffffffffffffffffffffffffffffffffff1673ffffffffffffffffffffffffffffffffffffffff168152602001908152602001600020600084815260200190815260200160002081905550816007600083815260200190815260200160002081905550505b6007600084815260200190815260200160002060009055600660008573ffffffffffffffffffffffffffffffffffffffff1673ffffffffffffffffffffffffffffffffffffffff16815260200190815260200160002060008381526020019081526020016000206000905550505050565b60006001600880549050612eb29190614d77565b9050600060096000848152602001908152602001600020549050600060088381548110612ee257612ee161456b565b5b906000526020600020015490508060088381548110612f0457612f0361456b565b5b906000526020600020018190555081600960008381526020019081526020016000208190555060096000858152602001908152602001600020600090556008805480612f5357612f52614dab565b5b6001900381819060005260206000200160009055905550505050565b6000612f7a83611155565b905081600660008573ffffffffffffffffffffffffffffffffffffffff1673ffffffffffffffffffffffffffffffffffffffff168152602001908152602001600020600083815260200190815260200160002081905550806007600084815260200190815260200160002081905550505050565b600080600090507a184f03e93ff9f4daa797ed6e38ed64bf6a1f010000000000000000831061304c577a184f03e93ff9f4daa797ed6e38ed64bf6a1f010000000000000000838161304257613041614d48565b5b0492506040810190505b6d04ee2d6d415b85acef81000000008310613089576d04ee2d6d415b85acef8100000000838161307f5761307e614d48565b5b0492506020810190505b662386f26fc1000083106130b857662386f26fc1000083816130ae576130ad614d48565b5b0492506010810190505b6305f5e10083106130e1576305f5e10083816130d7576130d6614d48565b5b0492506008810190505b61271083106131065761271083816130fc576130fb614d48565b5b0492506004810190505b60648310613129576064838161311f5761311e614d48565b5b0492506002810190505b600a8310613138576001810190505b80915050919050565b60405180608001604052806000815260200160608152602001600073ffffffffffffffffffffffffffffffffffffffff16815260200161317f6131df565b81525090565b604051806040016040528060008152602001600081525090565b5080546131ab90613ee4565b6000825580601f106131bd57506131dc565b601f0160209004906000526020600020908101906131db9190613200565b5b50565b60405180606001604052806000815260200160608152602001606081525090565b5b80821115613219576000816000905550600101613201565b5090565b6000604051905090565b600080fd5b600080fd5b60007fffffffff0000000000000000000000000000000000000000000000000000000082169050919050565b61326681613231565b811461327157600080fd5b50565b6000813590506132838161325d565b92915050565b60006020828403121561329f5761329e613227565b5b60006132ad84828501613274565b91505092915050565b60008115159050919050565b6132cb816132b6565b82525050565b60006020820190506132e660008301846132c2565b92915050565b600073ffffffffffffffffffffffffffffffffffffffff82169050919050565b6000613317826132ec565b9050919050565b6133278161330c565b811461333257600080fd5b50565b6000813590506133448161331e565b92915050565b600080fd5b600080fd5b6000601f19601f8301169050919050565b7f4e487b7100000000000000000000000000000000000000000000000000000000600052604160045260246000fd5b61339d82613354565b810181811067ffffffffffffffff821117156133bc576133bb613365565b5b80604052505050565b60006133cf61321d565b90506133db8282613394565b919050565b600067ffffffffffffffff8211156133fb576133fa613365565b5b61340482613354565b9050602081019050919050565b82818337600083830152505050565b600061343361342e846133e0565b6133c5565b90508281526020810184848401111561344f5761344e61334f565b5b61345a848285613411565b509392505050565b600082601f8301126134775761347661334a565b5b8135613487848260208601613420565b91505092915050565b600080600080608085870312156134aa576134a9613227565b5b60006134b887828801613335565b945050602085013567ffffffffffffffff8111156134d9576134d861322c565b5b6134e587828801613462565b935050604085013567ffffffffffffffff8111156135065761350561322c565b5b61351287828801613462565b925050606085013567ffffffffffffffff8111156135335761353261322c565b5b61353f87828801613462565b91505092959194509250565b600081519050919050565b600082825260208201905092915050565b60005b8381101561358557808201518184015260208101905061356a565b60008484015250505050565b600061359c8261354b565b6135a68185613556565b93506135b6818560208601613567565b6135bf81613354565b840191505092915050565b600060208201905081810360008301526135e48184613591565b905092915050565b6000819050919050565b6135ff816135ec565b811461360a57600080fd5b50565b60008135905061361c816135f6565b92915050565b60006020828403121561363857613637613227565b5b60006136468482850161360d565b91505092915050565b6136588161330c565b82525050565b6000602082019050613673600083018461364f565b92915050565b600080604083850312156136905761368f613227565b5b600061369e85828601613335565b92505060206136af8582860161360d565b9150509250929050565b6136c2816135ec565b82525050565b60006020820190506136dd60008301846136b9565b92915050565b600080604083850312156136fa576136f9613227565b5b60006137088582860161360d565b92505060206137198582860161360d565b9150509250929050565b7f4e487b7100000000000000000000000000000000000000000000000000000000600052602160045260246000fd5b6003811061376357613762613723565b5b50565b600081905061377482613752565b919050565b600061378482613766565b9050919050565b61379481613779565b82525050565b60006080820190506137af600083018761364f565b6137bc60208301866136b9565b6137c960408301856136b9565b6137d6606083018461378b565b95945050505050565b6000806000606084860312156137f8576137f7613227565b5b600061380686828701613335565b935050602061381786828701613335565b92505060406138288682870161360d565b9150509250925092565b600081519050919050565b600082825260208201905092915050565b6000819050602082019050919050565b6138678161330c565b82525050565b613876816135ec565b82525050565b61388581613779565b82525050565b6080820160008201516138a1600085018261385e565b5060208201516138b4602085018261386d565b5060408201516138c7604085018261386d565b5060608201516138da606085018261387c565b50505050565b60006138ec838361388b565b60808301905092915050565b6000602082019050919050565b600061391082613832565b61391a818561383d565b93506139258361384e565b8060005b8381101561395657815161393d88826138e0565b9750613948836138f8565b925050600181019050613929565b5085935050505092915050565b6000602082019050818103600083015261397d8184613905565b905092915050565b60006020828403121561399b5761399a613227565b5b60006139a984828501613335565b91505092915050565b600081519050919050565b600082825260208201905092915050565b6000819050602082019050919050565b600082825260208201905092915050565b60006139fa8261354b565b613a0481856139de565b9350613a14818560208601613567565b613a1d81613354565b840191505092915050565b6000606083016000830151613a40600086018261386d565b5060208301518482036020860152613a5882826139ef565b91505060408301518482036040860152613a7282826139ef565b9150508091505092915050565b6000608083016000830151613a97600086018261386d565b5060208301518482036020860152613aaf82826139ef565b9150506040830151613ac4604086018261385e565b5060608301518482036060860152613adc8282613a28565b9150508091505092915050565b6000613af58383613a7f565b905092915050565b6000602082019050919050565b6000613b15826139b2565b613b1f81856139bd565b935083602082028501613b31856139ce565b8060005b85811015613b6d5784840389528151613b4e8582613ae9565b9450613b5983613afd565b925060208a01995050600181019050613b35565b50829750879550505050505092915050565b60006020820190508181036000830152613b998184613b0a565b905092915050565b6000606082019050613bb660008301866136b9565b8181036020830152613bc88185613591565b90508181036040830152613bdc8184613591565b9050949350505050565b613bef816132b6565b8114613bfa57600080fd5b50565b600081359050613c0c81613be6565b92915050565b60008060408385031215613c2957613c28613227565b5b6000613c3785828601613335565b9250506020613c4885828601613bfd565b9150509250929050565b600067ffffffffffffffff821115613c6d57613c6c613365565b5b613c7682613354565b9050602081019050919050565b6000613c96613c9184613c52565b6133c5565b905082815260208101848484011115613cb257613cb161334f565b5b613cbd848285613411565b509392505050565b600082601f830112613cda57613cd961334a565b5b8135613cea848260208601613c83565b91505092915050565b60008060008060808587031215613d0d57613d0c613227565b5b6000613d1b87828801613335565b9450506020613d2c87828801613335565b9350506040613d3d8782880161360d565b925050606085013567ffffffffffffffff811115613d5e57613d5d61322c565b5b613d6a87828801613cc5565b91505092959194509250565b6000604082019050613d8b60008301856136b9565b613d9860208301846136b9565b9392505050565b6000608083016000830151613db7600086018261386d565b5060208301518482036020860152613dcf82826139ef565b9150506040830151613de4604086018261385e565b5060608301518482036060860152613dfc8282613a28565b9150508091505092915050565b60006020820190508181036000830152613e238184613d9f565b905092915050565b604082016000820151613e41600085018261386d565b506020820151613e54602085018261386d565b50505050565b6000604082019050613e6f6000830184613e2b565b92915050565b60008060408385031215613e8c57613e8b613227565b5b6000613e9a85828601613335565b9250506020613eab85828601613335565b9150509250929050565b7f4e487b7100000000000000000000000000000000000000000000000000000000600052602260045260246000fd5b60006002820490506001821680613efc57607f821691505b602082108103613f0f57613f0e613eb5565b5b50919050565b60008190508160005260206000209050919050565b60006020601f8301049050919050565b600082821b905092915050565b600060088302613f777fffffffffffffffffffffffffffffffffffffffffffffffffffffffffffffffff82613f3a565b613f818683613f3a565b95508019841693508086168417925050509392505050565b6000819050919050565b6000613fbe613fb9613fb4846135ec565b613f99565b6135ec565b9050919050565b6000819050919050565b613fd883613fa3565b613fec613fe482613fc5565b848454613f47565b825550505050565b600090565b614001613ff4565b61400c818484613fcf565b505050565b5b8181101561403057614025600082613ff9565b600181019050614012565b5050565b601f8211156140755761404681613f15565b61404f84613f2a565b8101602085101561405e578190505b61407261406a85613f2a565b830182614011565b50505b505050565b600082821c905092915050565b60006140986000198460080261407a565b1980831691505092915050565b60006140b18383614087565b9150826002028217905092915050565b6140ca8261354b565b67ffffffffffffffff8111156140e3576140e2613365565b5b6140ed8254613ee4565b6140f8828285614034565b600060209050601f83116001811461412b5760008415614119578287015190505b61412385826140a5565b86555061418b565b601f19841661413986613f15565b60005b828110156141615784890151825560018201915060208501945060208101905061413c565b8683101561417e578489015161417a601f891682614087565b8355505b6001600288020188555050505b505050505050565b7f4552433732313a20617070726f76616c20746f2063757272656e74206f776e6560008201527f7200000000000000000000000000000000000000000000000000000000000000602082015250565b60006141ef602183613556565b91506141fa82614193565b604082019050919050565b6000602082019050818103600083015261421e816141e2565b9050919050565b7f4552433732313a20617070726f76652063616c6c6572206973206e6f7420746f60008201527f6b656e206f776e6572206f7220617070726f76656420666f7220616c6c000000602082015250565b6000614281603d83613556565b915061428c82614225565b604082019050919050565b600060208201905081810360008301526142b081614274565b9050919050565b7f4552433732313a2063616c6c6572206973206e6f7420746f6b656e206f776e6560008201527f72206f7220617070726f76656400000000000000000000000000000000000000602082015250565b6000614313602d83613556565b915061431e826142b7565b604082019050919050565b6000602082019050818103600083015261434281614306565b9050919050565b7f596f752063616e6e6f742073656c6c204e465473207468617420796f7520646f60008201527f206e6f74206f776e000000000000000000000000000000000000000000000000602082015250565b60006143a5602883613556565b91506143b082614349565b604082019050919050565b600060208201905081810360008301526143d481614398565b9050919050565b7f5072696365206d7573742062652067726561746572207468616e203000000000600082015250565b6000614411601c83613556565b915061441c826143db565b602082019050919050565b6000602082019050818103600083015261444081614404565b9050919050565b7f455243373231456e756d657261626c653a206f776e657220696e646578206f7560008201527f74206f6620626f756e6473000000000000000000000000000000000000000000602082015250565b60006144a3602b83613556565b91506144ae82614447565b604082019050919050565b600060208201905081810360008301526144d281614496565b9050919050565b7f455243373231456e756d657261626c653a20676c6f62616c20696e646578206f60008201527f7574206f6620626f756e64730000000000000000000000000000000000000000602082015250565b6000614535602c83613556565b9150614540826144d9565b604082019050919050565b6000602082019050818103600083015261456481614528565b9050919050565b7f4e487b7100000000000000000000000000000000000000000000000000000000600052603260045260246000fd5b7f4e487b7100000000000000000000000000000000000000000000000000000000600052601160045260246000fd5b60006145d4826135ec565b91507fffffffffffffffffffffffffffffffffffffffffffffffffffffffffffffffff82036146065761460561459a565b5b600182019050919050565b7f4552433732313a20696e76616c696420746f6b656e2049440000000000000000600082015250565b6000614647601883613556565b915061465282614611565b602082019050919050565b600060208201905081810360008301526146768161463a565b9050919050565b7f4552433732313a2061646472657373207a65726f206973206e6f74206120766160008201527f6c6964206f776e65720000000000000000000000000000000000000000000000602082015250565b60006146d9602983613556565b91506146e48261467d565b604082019050919050565b60006020820190508181036000830152614708816146cc565b9050919050565b7f596f752063616e6e6f742062757920796f7572206f776e204e46540000000000600082015250565b6000614745601b83613556565b91506147508261470f565b602082019050919050565b6000602082019050818103600083015261477481614738565b9050919050565b7f4f66666572206d7573742062652067726561746572207468616e203000000000600082015250565b60006147b1601c83613556565b91506147bc8261477b565b602082019050919050565b600060208201905081810360008301526147e0816147a4565b9050919050565b7f45524337323155524953746f726167653a2055524920736574206f66206e6f6e60008201527f6578697374656e7420746f6b656e000000000000000000000000000000000000602082015250565b6000614843602e83613556565b915061484e826147e7565b604082019050919050565b6000602082019050818103600083015261487281614836565b9050919050565b7f4552433732313a207472616e736665722066726f6d20696e636f72726563742060008201527f6f776e6572000000000000000000000000000000000000000000000000000000602082015250565b60006148d5602583613556565b91506148e082614879565b604082019050919050565b60006020820190508181036000830152614904816148c8565b9050919050565b7f4552433732313a207472616e7366657220746f20746865207a65726f2061646460008201527f7265737300000000000000000000000000000000000000000000000000000000602082015250565b6000614967602483613556565b91506149728261490b565b604082019050919050565b600060208201905081810360008301526149968161495a565b9050919050565b7f4552433732313a20617070726f766520746f2063616c6c657200000000000000600082015250565b60006149d3601983613556565b91506149de8261499d565b602082019050919050565b60006020820190508181036000830152614a02816149c6565b9050919050565b7f4552433732313a207472616e7366657220746f206e6f6e20455243373231526560008201527f63656976657220696d706c656d656e7465720000000000000000000000000000602082015250565b6000614a65603283613556565b9150614a7082614a09565b604082019050919050565b60006020820190508181036000830152614a9481614a58565b9050919050565b600081905092915050565b6000614ab18261354b565b614abb8185614a9b565b9350614acb818560208601613567565b80840191505092915050565b6000614ae38285614aa6565b9150614aef8284614aa6565b91508190509392505050565b600081519050919050565b600082825260208201905092915050565b6000614b2282614afb565b614b2c8185614b06565b9350614b3c818560208601613567565b614b4581613354565b840191505092915050565b6000608082019050614b65600083018761364f565b614b72602083018661364f565b614b7f60408301856136b9565b8181036060830152614b918184614b17565b905095945050505050565b600081519050614bab8161325d565b92915050565b600060208284031215614bc757614bc6613227565b5b6000614bd584828501614b9c565b91505092915050565b7f4552433732313a206d696e7420746f20746865207a65726f2061646472657373600082015250565b6000614c14602083613556565b9150614c1f82614bde565b602082019050919050565b60006020820190508181036000830152614c4381614c07565b9050919050565b7f4552433732313a20746f6b656e20616c7265616479206d696e74656400000000600082015250565b6000614c80601c83613556565b9150614c8b82614c4a565b602082019050919050565b60006020820190508181036000830152614caf81614c73565b9050919050565b7f455243373231456e756d657261626c653a20636f6e736563757469766520747260008201527f616e7366657273206e6f7420737570706f727465640000000000000000000000602082015250565b6000614d12603583613556565b9150614d1d82614cb6565b604082019050919050565b60006020820190508181036000830152614d4181614d05565b9050919050565b7f4e487b7100000000000000000000000000000000000000000000000000000000600052601260045260246000fd5b6000614d82826135ec565b9150614d8d836135ec565b9250828203905081811115614da557614da461459a565b5b92915050565b7f4e487b7100000000000000000000000000000000000000000000000000000000600052603160045260246000fdfea26469706673582212201db4331e40dd3425a34964e72e8d3b135c3a76b07b1d0967936ec413185570d264736f6c63430008130033",
  "linkReferences": {},
  "deployedLinkReferences": {}
}