{
  "_format": "hh-sol-artifact-1",
  "contractName": "Encode",
  "sourceName": "contracts/Encode.sol",
  "abi": [
    {
      "inputs": [],
      "stateMutability": "nonpayable",
      "type": "constructor"
    },
    {
      "anonymous": false,
      "inputs": [
        {
          "indexed": true,
          "internalType": "address",
          "name": "owner",
          "type": "address"
        },
        {
          "indexed": true,
          "internalType": "address",
          "name": "approved",
          "type": "address"
        },
        {
          "indexed": true,
          "internalType": "uint256",
          "name": "tokenId",
          "type": "uint256"
        }
      ],
      "name": "Approval",
      "type": "event"
    },
    {
      "anonymous": false,
      "inputs": [
        {
          "indexed": true,
          "internalType": "address",
          "name": "owner",
          "type": "address"
        },
        {
          "indexed": true,
          "internalType": "address",
          "name": "operator",
          "type": "address"
        },
        {
          "indexed": false,
          "internalType": "bool",
          "name": "approved",
          "type": "bool"
        }
      ],
      "name": "ApprovalForAll",
      "type": "event"
    },
    {
      "anonymous": false,
      "inputs": [
        {
          "indexed": true,
          "internalType": "address",
          "name": "sender",
          "type": "address"
        },
        {
          "indexed": false,
          "internalType": "uint256",
          "name": "amount",
          "type": "uint256"
        }
      ],
      "name": "Received",
      "type": "event"
    },
    {
      "anonymous": false,
      "inputs": [
        {
          "indexed": true,
          "internalType": "address",
          "name": "from",
          "type": "address"
        },
        {
          "indexed": true,
          "internalType": "address",
          "name": "to",
          "type": "address"
        },
        {
          "indexed": true,
          "internalType": "uint256",
          "name": "tokenId",
          "type": "uint256"
        }
      ],
      "name": "Transfer",
      "type": "event"
    },
    {
      "inputs": [
        {
          "internalType": "uint256",
          "name": "tokenId",
          "type": "uint256"
        },
        {
          "internalType": "uint256",
          "name": "requestId",
          "type": "uint256"
        }
      ],
      "name": "acceptBuyingRequest",
      "outputs": [],
      "stateMutability": "nonpayable",
      "type": "function"
    },
    {
      "inputs": [
        {
          "internalType": "address",
          "name": "to",
          "type": "address"
        },
        {
          "internalType": "uint256",
          "name": "tokenId",
          "type": "uint256"
        }
      ],
      "name": "approve",
      "outputs": [],
      "stateMutability": "nonpayable",
      "type": "function"
    },
    {
      "inputs": [
        {
          "internalType": "address",
          "name": "owner",
          "type": "address"
        }
      ],
      "name": "balanceOf",
      "outputs": [
        {
          "internalType": "uint256",
          "name": "",
          "type": "uint256"
        }
      ],
      "stateMutability": "view",
      "type": "function"
    },
    {
      "inputs": [
        {
          "internalType": "address",
          "name": "",
          "type": "address"
        }
      ],
      "name": "balances",
      "outputs": [
        {
          "internalType": "uint256",
          "name": "",
          "type": "uint256"
        }
      ],
      "stateMutability": "view",
      "type": "function"
    },
    {
      "inputs": [
        {
          "internalType": "uint256",
          "name": "tokenId",
          "type": "uint256"
        }
      ],
      "name": "burn",
      "outputs": [],
      "stateMutability": "nonpayable",
      "type": "function"
    },
    {
      "inputs": [
        {
          "internalType": "uint256",
          "name": "tokenId",
          "type": "uint256"
        }
      ],
      "name": "buyToken",
      "outputs": [],
      "stateMutability": "payable",
      "type": "function"
    },
    {
      "inputs": [
        {
          "internalType": "uint256",
          "name": "",
          "type": "uint256"
        },
        {
          "internalType": "uint256",
          "name": "",
          "type": "uint256"
        }
      ],
      "name": "buyingRequests",
      "outputs": [
        {
          "internalType": "uint256",
          "name": "id",
          "type": "uint256"
        },
        {
          "internalType": "address",
          "name": "buyer",
          "type": "address"
        },
        {
          "internalType": "uint256",
          "name": "offer",
          "type": "uint256"
        },
        {
          "internalType": "uint256",
          "name": "timestamp",
          "type": "uint256"
        },
        {
          "internalType": "enum Encode.BuyingRequestStatus",
          "name": "status",
          "type": "uint8"
        }
      ],
      "stateMutability": "view",
      "type": "function"
    },
    {
      "inputs": [
        {
          "internalType": "uint256",
          "name": "tokenId",
          "type": "uint256"
        },
        {
          "internalType": "uint256",
          "name": "requestId",
          "type": "uint256"
        }
      ],
      "name": "cancelBuyingRequest",
      "outputs": [],
      "stateMutability": "nonpayable",
      "type": "function"
    },
    {
      "inputs": [
        {
          "internalType": "uint256",
          "name": "tokenId",
          "type": "uint256"
        }
      ],
      "name": "cancelSellingListing",
      "outputs": [],
      "stateMutability": "nonpayable",
      "type": "function"
    },
    {
      "inputs": [
        {
          "internalType": "uint256",
          "name": "tokenId",
          "type": "uint256"
        }
      ],
      "name": "createBuyingRequest",
      "outputs": [],
      "stateMutability": "payable",
      "type": "function"
    },
    {
      "inputs": [
        {
          "internalType": "uint256",
          "name": "tokenId",
          "type": "uint256"
        },
        {
          "internalType": "uint256",
          "name": "price",
          "type": "uint256"
        }
      ],
      "name": "createSellingListing",
      "outputs": [],
      "stateMutability": "nonpayable",
      "type": "function"
    },
    {
      "inputs": [
        {
          "internalType": "uint256",
          "name": "tokenId",
          "type": "uint256"
        }
      ],
      "name": "getApproved",
      "outputs": [
        {
          "internalType": "address",
          "name": "",
          "type": "address"
        }
      ],
      "stateMutability": "view",
      "type": "function"
    },
    {
      "inputs": [
        {
          "internalType": "uint256",
          "name": "tokenId",
          "type": "uint256"
        }
      ],
      "name": "getBuyingRequests",
      "outputs": [
        {
          "components": [
            {
              "internalType": "uint256",
              "name": "id",
              "type": "uint256"
            },
            {
              "internalType": "address",
              "name": "buyer",
              "type": "address"
            },
            {
              "internalType": "uint256",
              "name": "offer",
              "type": "uint256"
            },
            {
              "internalType": "uint256",
              "name": "timestamp",
              "type": "uint256"
            },
            {
              "internalType": "enum Encode.BuyingRequestStatus",
              "name": "status",
              "type": "uint8"
            }
          ],
          "internalType": "struct Encode.BuyingRequest[]",
          "name": "",
          "type": "tuple[]"
        }
      ],
      "stateMutability": "view",
      "type": "function"
    },
    {
      "inputs": [
        {
          "internalType": "uint256",
          "name": "tokenId",
          "type": "uint256"
        }
      ],
      "name": "getToken",
      "outputs": [
        {
          "components": [
            {
              "internalType": "uint256",
              "name": "id",
              "type": "uint256"
            },
            {
              "internalType": "string",
              "name": "uri",
              "type": "string"
            },
            {
              "internalType": "address",
              "name": "owner",
              "type": "address"
            },
            {
              "components": [
                {
                  "internalType": "uint256",
                  "name": "creationDate",
                  "type": "uint256"
                },
                {
                  "internalType": "string",
                  "name": "title",
                  "type": "string"
                },
                {
                  "internalType": "string",
                  "name": "description",
                  "type": "string"
                }
              ],
              "internalType": "struct Encode.TokenMetadata",
              "name": "metadata",
              "type": "tuple"
            },
            {
              "components": [
                {
                  "internalType": "uint256",
                  "name": "price",
                  "type": "uint256"
                },
                {
                  "internalType": "uint256",
                  "name": "timestamp",
                  "type": "uint256"
                }
              ],
              "internalType": "struct Encode.SellingListing",
              "name": "sellingListing",
              "type": "tuple"
            }
          ],
          "internalType": "struct Encode.TokenInfo",
          "name": "",
          "type": "tuple"
        }
      ],
      "stateMutability": "view",
      "type": "function"
    },
    {
      "inputs": [
        {
          "internalType": "address",
          "name": "addr",
          "type": "address"
        }
      ],
      "name": "getTokensOfOwner",
      "outputs": [
        {
          "components": [
            {
              "internalType": "uint256",
              "name": "id",
              "type": "uint256"
            },
            {
              "internalType": "string",
              "name": "uri",
              "type": "string"
            },
            {
              "internalType": "address",
              "name": "owner",
              "type": "address"
            },
            {
              "components": [
                {
                  "internalType": "uint256",
                  "name": "creationDate",
                  "type": "uint256"
                },
                {
                  "internalType": "string",
                  "name": "title",
                  "type": "string"
                },
                {
                  "internalType": "string",
                  "name": "description",
                  "type": "string"
                }
              ],
              "internalType": "struct Encode.TokenMetadata",
              "name": "metadata",
              "type": "tuple"
            },
            {
              "components": [
                {
                  "internalType": "uint256",
                  "name": "price",
                  "type": "uint256"
                },
                {
                  "internalType": "uint256",
                  "name": "timestamp",
                  "type": "uint256"
                }
              ],
              "internalType": "struct Encode.SellingListing",
              "name": "sellingListing",
              "type": "tuple"
            }
          ],
          "internalType": "struct Encode.TokenInfo[]",
          "name": "",
          "type": "tuple[]"
        }
      ],
      "stateMutability": "view",
      "type": "function"
    },
    {
      "inputs": [
        {
          "internalType": "address",
          "name": "owner",
          "type": "address"
        },
        {
          "internalType": "address",
          "name": "operator",
          "type": "address"
        }
      ],
      "name": "isApprovedForAll",
      "outputs": [
        {
          "internalType": "bool",
          "name": "",
          "type": "bool"
        }
      ],
      "stateMutability": "view",
      "type": "function"
    },
    {
      "inputs": [],
      "name": "listTokens",
      "outputs": [
        {
          "components": [
            {
              "internalType": "uint256",
              "name": "id",
              "type": "uint256"
            },
            {
              "internalType": "string",
              "name": "uri",
              "type": "string"
            },
            {
              "internalType": "address",
              "name": "owner",
              "type": "address"
            },
            {
              "components": [
                {
                  "internalType": "uint256",
                  "name": "creationDate",
                  "type": "uint256"
                },
                {
                  "internalType": "string",
                  "name": "title",
                  "type": "string"
                },
                {
                  "internalType": "string",
                  "name": "description",
                  "type": "string"
                }
              ],
              "internalType": "struct Encode.TokenMetadata",
              "name": "metadata",
              "type": "tuple"
            },
            {
              "components": [
                {
                  "internalType": "uint256",
                  "name": "price",
                  "type": "uint256"
                },
                {
                  "internalType": "uint256",
                  "name": "timestamp",
                  "type": "uint256"
                }
              ],
              "internalType": "struct Encode.SellingListing",
              "name": "sellingListing",
              "type": "tuple"
            }
          ],
          "internalType": "struct Encode.TokenInfo[]",
          "name": "",
          "type": "tuple[]"
        }
      ],
      "stateMutability": "view",
      "type": "function"
    },
    {
      "inputs": [],
      "name": "name",
      "outputs": [
        {
          "internalType": "string",
          "name": "",
          "type": "string"
        }
      ],
      "stateMutability": "view",
      "type": "function"
    },
    {
      "inputs": [
        {
          "internalType": "uint256",
          "name": "tokenId",
          "type": "uint256"
        }
      ],
      "name": "ownerOf",
      "outputs": [
        {
          "internalType": "address",
          "name": "",
          "type": "address"
        }
      ],
      "stateMutability": "view",
      "type": "function"
    },
    {
      "inputs": [
        {
          "internalType": "address",
          "name": "to",
          "type": "address"
        },
        {
          "internalType": "string",
          "name": "uri",
          "type": "string"
        },
        {
          "internalType": "string",
          "name": "title",
          "type": "string"
        },
        {
          "internalType": "string",
          "name": "description",
          "type": "string"
        }
      ],
      "name": "safeMint",
      "outputs": [],
      "stateMutability": "nonpayable",
      "type": "function"
    },
    {
      "inputs": [
        {
          "internalType": "address",
          "name": "_from",
          "type": "address"
        },
        {
          "internalType": "address",
          "name": "_to",
          "type": "address"
        },
        {
          "internalType": "uint256",
          "name": "_tokenId",
          "type": "uint256"
        }
      ],
      "name": "safeTransferFrom",
      "outputs": [],
      "stateMutability": "nonpayable",
      "type": "function"
    },
    {
      "inputs": [
        {
          "internalType": "address",
          "name": "from",
          "type": "address"
        },
        {
          "internalType": "address",
          "name": "to",
          "type": "address"
        },
        {
          "internalType": "uint256",
          "name": "tokenId",
          "type": "uint256"
        },
        {
          "internalType": "bytes",
          "name": "data",
          "type": "bytes"
        }
      ],
      "name": "safeTransferFrom",
      "outputs": [],
      "stateMutability": "nonpayable",
      "type": "function"
    },
    {
      "inputs": [
        {
          "internalType": "uint256",
          "name": "",
          "type": "uint256"
        }
      ],
      "name": "sellingListing",
      "outputs": [
        {
          "internalType": "uint256",
          "name": "price",
          "type": "uint256"
        },
        {
          "internalType": "uint256",
          "name": "timestamp",
          "type": "uint256"
        }
      ],
      "stateMutability": "view",
      "type": "function"
    },
    {
      "inputs": [
        {
          "internalType": "address",
          "name": "operator",
          "type": "address"
        },
        {
          "internalType": "bool",
          "name": "approved",
          "type": "bool"
        }
      ],
      "name": "setApprovalForAll",
      "outputs": [],
      "stateMutability": "nonpayable",
      "type": "function"
    },
    {
      "inputs": [
        {
          "internalType": "bytes4",
          "name": "interfaceId",
          "type": "bytes4"
        }
      ],
      "name": "supportsInterface",
      "outputs": [
        {
          "internalType": "bool",
          "name": "",
          "type": "bool"
        }
      ],
      "stateMutability": "view",
      "type": "function"
    },
    {
      "inputs": [],
      "name": "symbol",
      "outputs": [
        {
          "internalType": "string",
          "name": "",
          "type": "string"
        }
      ],
      "stateMutability": "view",
      "type": "function"
    },
    {
      "inputs": [
        {
          "internalType": "uint256",
          "name": "index",
          "type": "uint256"
        }
      ],
      "name": "tokenByIndex",
      "outputs": [
        {
          "internalType": "uint256",
          "name": "",
          "type": "uint256"
        }
      ],
      "stateMutability": "view",
      "type": "function"
    },
    {
      "inputs": [
        {
          "internalType": "uint256",
          "name": "",
          "type": "uint256"
        }
      ],
      "name": "tokenMetadata",
      "outputs": [
        {
          "internalType": "uint256",
          "name": "creationDate",
          "type": "uint256"
        },
        {
          "internalType": "string",
          "name": "title",
          "type": "string"
        },
        {
          "internalType": "string",
          "name": "description",
          "type": "string"
        }
      ],
      "stateMutability": "view",
      "type": "function"
    },
    {
      "inputs": [
        {
          "internalType": "address",
          "name": "owner",
          "type": "address"
        },
        {
          "internalType": "uint256",
          "name": "index",
          "type": "uint256"
        }
      ],
      "name": "tokenOfOwnerByIndex",
      "outputs": [
        {
          "internalType": "uint256",
          "name": "",
          "type": "uint256"
        }
      ],
      "stateMutability": "view",
      "type": "function"
    },
    {
      "inputs": [
        {
          "internalType": "uint256",
          "name": "tokenId",
          "type": "uint256"
        }
      ],
      "name": "tokenURI",
      "outputs": [
        {
          "internalType": "string",
          "name": "",
          "type": "string"
        }
      ],
      "stateMutability": "view",
      "type": "function"
    },
    {
      "inputs": [],
      "name": "totalSupply",
      "outputs": [
        {
          "internalType": "uint256",
          "name": "",
          "type": "uint256"
        }
      ],
      "stateMutability": "view",
      "type": "function"
    },
    {
      "inputs": [
        {
          "internalType": "address",
          "name": "from",
          "type": "address"
        },
        {
          "internalType": "address",
          "name": "to",
          "type": "address"
        },
        {
          "internalType": "uint256",
          "name": "tokenId",
          "type": "uint256"
        }
      ],
      "name": "transferFrom",
      "outputs": [],
      "stateMutability": "nonpayable",
      "type": "function"
    },
    {
      "stateMutability": "payable",
      "type": "receive"
    }
  ],
  "bytecode": "0x60806040523480156200001157600080fd5b506040518060400160405280600681526020017f456e636f646500000000000000000000000000000000000000000000000000008152506040518060400160405280600381526020017f454e43000000000000000000000000000000000000000000000000000000000081525081600090816200008f919062000324565b508060019081620000a1919062000324565b5050506200040b565b600081519050919050565b7f4e487b7100000000000000000000000000000000000000000000000000000000600052604160045260246000fd5b7f4e487b7100000000000000000000000000000000000000000000000000000000600052602260045260246000fd5b600060028204905060018216806200012c57607f821691505b602082108103620001425762000141620000e4565b5b50919050565b60008190508160005260206000209050919050565b60006020601f8301049050919050565b600082821b905092915050565b600060088302620001ac7fffffffffffffffffffffffffffffffffffffffffffffffffffffffffffffffff826200016d565b620001b886836200016d565b95508019841693508086168417925050509392505050565b6000819050919050565b6000819050919050565b600062000205620001ff620001f984620001d0565b620001da565b620001d0565b9050919050565b6000819050919050565b6200022183620001e4565b6200023962000230826200020c565b8484546200017a565b825550505050565b600090565b6200025062000241565b6200025d81848462000216565b505050565b5b8181101562000285576200027960008262000246565b60018101905062000263565b5050565b601f821115620002d4576200029e8162000148565b620002a9846200015d565b81016020851015620002b9578190505b620002d1620002c8856200015d565b83018262000262565b50505b505050565b600082821c905092915050565b6000620002f960001984600802620002d9565b1980831691505092915050565b6000620003148383620002e6565b9150826002028217905092915050565b6200032f82620000aa565b67ffffffffffffffff8111156200034b576200034a620000b5565b5b62000357825462000113565b6200036482828562000289565b600060209050601f8311600181146200039c576000841562000387578287015190505b62000393858262000306565b86555062000403565b601f198416620003ac8662000148565b60005b82811015620003d657848901518255600182019150602085019450602081019050620003af565b86831015620003f65784890151620003f2601f891682620002e6565b8355505b6001600288020188555050505b505050505050565b615fe6806200041b6000396000f3fe6080604052600436106101e75760003560e01c8063596fbfb011610102578063a9286ebc11610095578063d1b3405211610064578063d1b34052146107a1578063e4b50cb8146107df578063e985e9c51461081c578063ee8a0aed146108595761023c565b8063a9286ebc146106e9578063b88d4fde14610712578063c09a81511461073b578063c87b56dd146107645761023c565b806370a08231116100d157806370a082311461062d5780637488ff761461066a57806395d89b4114610695578063a22cb465146106c05761023c565b8063596fbfb0146105375780635de6dc55146105745780636352211e146105b15780636914db60146105ee5761023c565b806324f763d91161017a5780632f745c59116101495780632f745c591461046b57806342842e0e146104a857806342966c68146104d15780634f6ccce7146104fa5761023c565b806324f763d9146103cd57806327e235e3146103f65780632d296bf1146104335780632d4849531461044f5761023c565b8063095ea7b3116101b6578063095ea7b31461030f57806318160ddd146103385780631f8276b81461036357806323b872dd146103a45761023c565b806301ffc9a71461024157806303a80dfb1461027e57806306fdde03146102a7578063081812fc146102d25761023c565b3661023c573373ffffffffffffffffffffffffffffffffffffffff167f88a5966d370b9919b20f3e2c13ff65706f196a4e32cc2c12bf57088f88525874346040516102329190613fd4565b60405180910390a2005b600080fd5b34801561024d57600080fd5b506102686004803603810190610263919061405b565b610882565b60405161027591906140a3565b60405180910390f35b34801561028a57600080fd5b506102a560048036038101906102a09190614262565b610894565b005b3480156102b357600080fd5b506102bc61092a565b6040516102c9919061439c565b60405180910390f35b3480156102de57600080fd5b506102f960048036038101906102f491906143ea565b6109bc565b6040516103069190614426565b60405180910390f35b34801561031b57600080fd5b5061033660048036038101906103319190614441565b610a02565b005b34801561034457600080fd5b5061034d610b19565b60405161035a9190613fd4565b60405180910390f35b34801561036f57600080fd5b5061038a60048036038101906103859190614481565b610b26565b60405161039b959493929190614538565b60405180910390f35b3480156103b057600080fd5b506103cb60048036038101906103c6919061458b565b610ba6565b005b3480156103d957600080fd5b506103f460048036038101906103ef9190614481565b610c06565b005b34801561040257600080fd5b5061041d600480360381019061041891906145de565b610d0c565b60405161042a9190613fd4565b60405180910390f35b61044d600480360381019061044891906143ea565b610d24565b005b610469600480360381019061046491906143ea565b610eb5565b005b34801561047757600080fd5b50610492600480360381019061048d9190614441565b611295565b60405161049f9190613fd4565b60405180910390f35b3480156104b457600080fd5b506104cf60048036038101906104ca919061458b565b61133a565b005b3480156104dd57600080fd5b506104f860048036038101906104f391906143ea565b61138f565b005b34801561050657600080fd5b50610521600480360381019061051c91906143ea565b6113eb565b60405161052e9190613fd4565b60405180910390f35b34801561054357600080fd5b5061055e600480360381019061055991906143ea565b61145c565b60405161056b919061474f565b60405180910390f35b34801561058057600080fd5b5061059b600480360381019061059691906145de565b61157d565b6040516105a89190614980565b60405180910390f35b3480156105bd57600080fd5b506105d860048036038101906105d391906143ea565b61180f565b6040516105e59190614426565b60405180910390f35b3480156105fa57600080fd5b50610615600480360381019061061091906143ea565b611895565b604051610624939291906149a2565b60405180910390f35b34801561063957600080fd5b50610654600480360381019061064f91906145de565b6119cf565b6040516106619190613fd4565b60405180910390f35b34801561067657600080fd5b5061067f611a86565b60405161068c9190614980565b60405180910390f35b3480156106a157600080fd5b506106aa611d14565b6040516106b7919061439c565b60405180910390f35b3480156106cc57600080fd5b506106e760048036038101906106e29190614a13565b611da6565b005b3480156106f557600080fd5b50610710600480360381019061070b9190614481565b611dbc565b005b34801561071e57600080fd5b5061073960048036038101906107349190614af4565b6120a5565b005b34801561074757600080fd5b50610762600480360381019061075d91906143ea565b612107565b005b34801561077057600080fd5b5061078b600480360381019061078691906143ea565b6121b1565b604051610798919061439c565b60405180910390f35b3480156107ad57600080fd5b506107c860048036038101906107c391906143ea565b6121c3565b6040516107d6929190614b77565b60405180910390f35b3480156107eb57600080fd5b50610806600480360381019061080191906143ea565b6121e7565b6040516108139190614c1d565b60405180910390f35b34801561082857600080fd5b50610843600480360381019061083e9190614c3f565b6123cb565b60405161085091906140a3565b60405180910390f35b34801561086557600080fd5b50610880600480360381019061087b9190614481565b61245f565b005b600061088d826126cc565b9050919050565b60006108a0600b612746565b90506108ac600b612754565b6108b6858261276a565b6108c08185612788565b426010600083815260200190815260200160002060000181905550826010600083815260200190815260200160002060010190816108fe9190614e8b565b50816010600083815260200190815260200160002060020190816109229190614e8b565b505050505050565b60606000805461093990614cae565b80601f016020809104026020016040519081016040528092919081815260200182805461096590614cae565b80156109b25780601f10610987576101008083540402835291602001916109b2565b820191906000526020600020905b81548152906001019060200180831161099557829003601f168201915b5050505050905090565b60006109c7826127f5565b6004600083815260200190815260200160002060009054906101000a900473ffffffffffffffffffffffffffffffffffffffff169050919050565b6000610a0d8261180f565b90508073ffffffffffffffffffffffffffffffffffffffff168373ffffffffffffffffffffffffffffffffffffffff1603610a7d576040517f08c379a0000000000000000000000000000000000000000000000000000000008152600401610a7490614fcf565b60405180910390fd5b8073ffffffffffffffffffffffffffffffffffffffff16610a9c612840565b73ffffffffffffffffffffffffffffffffffffffff161480610acb5750610aca81610ac5612840565b6123cb565b5b610b0a576040517f08c379a0000000000000000000000000000000000000000000000000000000008152600401610b0190615061565b60405180910390fd5b610b148383612848565b505050565b6000600880549050905090565b600e6020528160005260406000208181548110610b4257600080fd5b9060005260206000209060050201600091509150508060000154908060010160009054906101000a900473ffffffffffffffffffffffffffffffffffffffff16908060020154908060030154908060040160009054906101000a900460ff16905085565b610bb7610bb1612840565b82612901565b610bf6576040517f08c379a0000000000000000000000000000000000000000000000000000000008152600401610bed906150f3565b60405180910390fd5b610c01838383612996565b505050565b3373ffffffffffffffffffffffffffffffffffffffff16610c268361180f565b73ffffffffffffffffffffffffffffffffffffffff1614610c7c576040517f08c379a0000000000000000000000000000000000000000000000000000000008152600401610c7390615185565b60405180910390fd5b60008111610cbf576040517f08c379a0000000000000000000000000000000000000000000000000000000008152600401610cb6906151f1565b60405180910390fd5b610cc93083610a02565b604051806040016040528082815260200142815250600f600084815260200190815260200160002060008201518160000155602082015181600101559050505050565b600d6020528060005260406000206000915090505481565b3373ffffffffffffffffffffffffffffffffffffffff16610d448261180f565b73ffffffffffffffffffffffffffffffffffffffff1603610d9a576040517f08c379a0000000000000000000000000000000000000000000000000000000008152600401610d919061525d565b60405180910390fd5b6000600f60008381526020019081526020016000206000015411610df3576040517f08c379a0000000000000000000000000000000000000000000000000000000008152600401610dea906152c9565b60405180910390fd5b600f600082815260200190815260200160002060000154341015610e4c576040517f08c379a0000000000000000000000000000000000000000000000000000000008152600401610e439061535b565b60405180910390fd5b6000610e578261180f565b90506000339050610e6982828561133a565b8173ffffffffffffffffffffffffffffffffffffffff166108fc349081150290604051600060405180830381858888f19350505050158015610eaf573d6000803e3d6000fd5b50505050565b3373ffffffffffffffffffffffffffffffffffffffff16610ed58261180f565b73ffffffffffffffffffffffffffffffffffffffff1603610f2b576040517f08c379a0000000000000000000000000000000000000000000000000000000008152600401610f229061525d565b60405180910390fd5b60003411610f6e576040517f08c379a0000000000000000000000000000000000000000000000000000000008152600401610f65906153c7565b60405180910390fd5b6000600e6000838152602001908152602001600020905060005b81805490508110156110b7573373ffffffffffffffffffffffffffffffffffffffff16828281548110610fbe57610fbd6153e7565b5b906000526020600020906005020160010160009054906101000a900473ffffffffffffffffffffffffffffffffffffffff1673ffffffffffffffffffffffffffffffffffffffff16036110a4576000600281111561101f5761101e6144c1565b5b828281548110611032576110316153e7565b5b906000526020600020906005020160040160009054906101000a900460ff166002811115611063576110626144c1565b5b036110a3576040517f08c379a000000000000000000000000000000000000000000000000000000000815260040161109a90615488565b60405180910390fd5b5b80806110af906154d7565b915050610f88565b503073ffffffffffffffffffffffffffffffffffffffff166108fc349081150290604051600060405180830381858888f193505050501580156110fe573d6000803e3d6000fd5b5034600d60003373ffffffffffffffffffffffffffffffffffffffff1673ffffffffffffffffffffffffffffffffffffffff168152602001908152602001600020600082825461114e919061551f565b925050819055506000611161600c612746565b905061116d600c612754565b600e60008481526020019081526020016000206040518060a001604052808381526020013373ffffffffffffffffffffffffffffffffffffffff168152602001348152602001428152602001600060028111156111cd576111cc6144c1565b5b81525090806001815401808255809150506001900390600052602060002090600502016000909190919091506000820151816000015560208201518160010160006101000a81548173ffffffffffffffffffffffffffffffffffffffff021916908373ffffffffffffffffffffffffffffffffffffffff160217905550604082015181600201556060820151816003015560808201518160040160006101000a81548160ff02191690836002811115611289576112886144c1565b5b02179055505050505050565b60006112a0836119cf565b82106112e1576040517f08c379a00000000000000000000000000000000000000000000000000000000081526004016112d8906155c5565b60405180910390fd5b600660008473ffffffffffffffffffffffffffffffffffffffff1673ffffffffffffffffffffffffffffffffffffffff168152602001908152602001600020600083815260200190815260200160002054905092915050565b600e600082815260200190815260200160002060006113599190613e44565b600f60008281526020019081526020016000206000808201600090556001820160009055505061138a838383612c8f565b505050565b6113a061139a612840565b82612901565b6113df576040517f08c379a00000000000000000000000000000000000000000000000000000000081526004016113d6906150f3565b60405180910390fd5b6113e881612caf565b50565b60006113f5610b19565b8210611436576040517f08c379a000000000000000000000000000000000000000000000000000000000815260040161142d90615657565b60405180910390fd5b6008828154811061144a576114496153e7565b5b90600052602060002001549050919050565b6060600e6000838152602001908152602001600020805480602002602001604051908101604052809291908181526020016000905b8282101561157257838290600052602060002090600502016040518060a0016040529081600082015481526020016001820160009054906101000a900473ffffffffffffffffffffffffffffffffffffffff1673ffffffffffffffffffffffffffffffffffffffff1673ffffffffffffffffffffffffffffffffffffffff16815260200160028201548152602001600382015481526020016004820160009054906101000a900460ff16600281111561154d5761154c6144c1565b5b600281111561155f5761155e6144c1565b5b8152505081526020019060010190611491565b505050509050919050565b6060600061158a836119cf565b905060008167ffffffffffffffff8111156115a8576115a7614137565b5b6040519080825280602002602001820160405280156115e157816020015b6115ce613e68565b8152602001906001900390816115c65790505b50905060005b828110156118045760006115fb8683611295565b90506000601060008381526020019081526020016000206040518060600160405290816000820154815260200160018201805461163790614cae565b80601f016020809104026020016040519081016040528092919081815260200182805461166390614cae565b80156116b05780601f10611685576101008083540402835291602001916116b0565b820191906000526020600020905b81548152906001019060200180831161169357829003601f168201915b505050505081526020016002820180546116c990614cae565b80601f01602080910402602001604051908101604052809291908181526020018280546116f590614cae565b80156117425780601f1061171757610100808354040283529160200191611742565b820191906000526020600020905b81548152906001019060200180831161172557829003601f168201915b50505050508152505090506000600f60008481526020019081526020016000206040518060400160405290816000820154815260200160018201548152505090506040518060a0016040528084815260200161179d856121b1565b81526020016117ab8561180f565b73ffffffffffffffffffffffffffffffffffffffff168152602001838152602001828152508585815181106117e3576117e26153e7565b5b602002602001018190525050505080806117fc906154d7565b9150506115e7565b508092505050919050565b60008061181b83612cbb565b9050600073ffffffffffffffffffffffffffffffffffffffff168173ffffffffffffffffffffffffffffffffffffffff160361188c576040517f08c379a0000000000000000000000000000000000000000000000000000000008152600401611883906156c3565b60405180910390fd5b80915050919050565b60106020528060005260406000206000915090508060000154908060010180546118be90614cae565b80601f01602080910402602001604051908101604052809291908181526020018280546118ea90614cae565b80156119375780601f1061190c57610100808354040283529160200191611937565b820191906000526020600020905b81548152906001019060200180831161191a57829003601f168201915b50505050509080600201805461194c90614cae565b80601f016020809104026020016040519081016040528092919081815260200182805461197890614cae565b80156119c55780601f1061199a576101008083540402835291602001916119c5565b820191906000526020600020905b8154815290600101906020018083116119a857829003601f168201915b5050505050905083565b60008073ffffffffffffffffffffffffffffffffffffffff168273ffffffffffffffffffffffffffffffffffffffff1603611a3f576040517f08c379a0000000000000000000000000000000000000000000000000000000008152600401611a3690615755565b60405180910390fd5b600360008373ffffffffffffffffffffffffffffffffffffffff1673ffffffffffffffffffffffffffffffffffffffff168152602001908152602001600020549050919050565b60606000611a92610b19565b905060008167ffffffffffffffff811115611ab057611aaf614137565b5b604051908082528060200260200182016040528015611ae957816020015b611ad6613e68565b815260200190600190039081611ace5790505b50905060005b82811015611d0b576000611b02826113eb565b905060006010600083815260200190815260200160002060405180606001604052908160008201548152602001600182018054611b3e90614cae565b80601f0160208091040260200160405190810160405280929190818152602001828054611b6a90614cae565b8015611bb75780601f10611b8c57610100808354040283529160200191611bb7565b820191906000526020600020905b815481529060010190602001808311611b9a57829003601f168201915b50505050508152602001600282018054611bd090614cae565b80601f0160208091040260200160405190810160405280929190818152602001828054611bfc90614cae565b8015611c495780601f10611c1e57610100808354040283529160200191611c49565b820191906000526020600020905b815481529060010190602001808311611c2c57829003601f168201915b50505050508152505090506000600f60008481526020019081526020016000206040518060400160405290816000820154815260200160018201548152505090506040518060a00160405280848152602001611ca4856121b1565b8152602001611cb28561180f565b73ffffffffffffffffffffffffffffffffffffffff16815260200183815260200182815250858581518110611cea57611ce96153e7565b5b60200260200101819052505050508080611d03906154d7565b915050611aef565b50809250505090565b606060018054611d2390614cae565b80601f0160208091040260200160405190810160405280929190818152602001828054611d4f90614cae565b8015611d9c5780601f10611d7157610100808354040283529160200191611d9c565b820191906000526020600020905b815481529060010190602001808311611d7f57829003601f168201915b5050505050905090565b611db8611db1612840565b8383612cf8565b5050565b3373ffffffffffffffffffffffffffffffffffffffff16611ddc8361180f565b73ffffffffffffffffffffffffffffffffffffffff1614611e32576040517f08c379a0000000000000000000000000000000000000000000000000000000008152600401611e29906157e7565b60405180910390fd5b6000600e6000848152602001908152602001600020905060005b818054905081101561209f5782828281548110611e6c57611e6b6153e7565b5b90600052602060002090600502016000015403611f8f576001828281548110611e9857611e976153e7565b5b906000526020600020906005020160040160006101000a81548160ff02191690836002811115611ecb57611eca6144c1565b5b02179055503373ffffffffffffffffffffffffffffffffffffffff166108fc838381548110611efd57611efc6153e7565b5b9060005260206000209060050201600201549081150290604051600060405180830381858888f19350505050158015611f3a573d6000803e3d6000fd5b50611f8a33838381548110611f5257611f516153e7565b5b906000526020600020906005020160010160009054906101000a900473ffffffffffffffffffffffffffffffffffffffff168661133a565b61208c565b6002828281548110611fa457611fa36153e7565b5b906000526020600020906005020160040160006101000a81548160ff02191690836002811115611fd757611fd66144c1565b5b0217905550818181548110611fef57611fee6153e7565b5b906000526020600020906005020160010160009054906101000a900473ffffffffffffffffffffffffffffffffffffffff1673ffffffffffffffffffffffffffffffffffffffff166108fc83838154811061204d5761204c6153e7565b5b9060005260206000209060050201600201549081150290604051600060405180830381858888f1935050505015801561208a573d6000803e3d6000fd5b505b8080612097906154d7565b915050611e4c565b50505050565b6120b66120b0612840565b83612901565b6120f5576040517f08c379a00000000000000000000000000000000000000000000000000000000081526004016120ec906150f3565b60405180910390fd5b61210184848484612e64565b50505050565b3373ffffffffffffffffffffffffffffffffffffffff166121278261180f565b73ffffffffffffffffffffffffffffffffffffffff161461217d576040517f08c379a000000000000000000000000000000000000000000000000000000000815260040161217490615879565b60405180910390fd5b612188600082610a02565b600f60008281526020019081526020016000206000808201600090556001820160009055505050565b60606121bc82612ec0565b9050919050565b600f6020528060005260406000206000915090508060000154908060010154905082565b6121ef613e68565b6000601060008481526020019081526020016000206040518060600160405290816000820154815260200160018201805461222990614cae565b80601f016020809104026020016040519081016040528092919081815260200182805461225590614cae565b80156122a25780601f10612277576101008083540402835291602001916122a2565b820191906000526020600020905b81548152906001019060200180831161228557829003601f168201915b505050505081526020016002820180546122bb90614cae565b80601f01602080910402602001604051908101604052809291908181526020018280546122e790614cae565b80156123345780601f1061230957610100808354040283529160200191612334565b820191906000526020600020905b81548152906001019060200180831161231757829003601f168201915b50505050508152505090506000600f60008581526020019081526020016000206040518060400160405290816000820154815260200160018201548152505090506040518060a0016040528085815260200161238f866121b1565b815260200161239d8661180f565b73ffffffffffffffffffffffffffffffffffffffff1681526020018381526020018281525092505050919050565b6000600560008473ffffffffffffffffffffffffffffffffffffffff1673ffffffffffffffffffffffffffffffffffffffff16815260200190815260200160002060008373ffffffffffffffffffffffffffffffffffffffff1673ffffffffffffffffffffffffffffffffffffffff16815260200190815260200160002060009054906101000a900460ff16905092915050565b6000600e6000848152602001908152602001600020905060005b81805490508110156126c65782828281548110612499576124986153e7565b5b906000526020600020906005020160000154036126b3573373ffffffffffffffffffffffffffffffffffffffff168282815481106124da576124d96153e7565b5b906000526020600020906005020160010160009054906101000a900473ffffffffffffffffffffffffffffffffffffffff1673ffffffffffffffffffffffffffffffffffffffff1614612562576040517f08c379a00000000000000000000000000000000000000000000000000000000081526004016125599061590b565b60405180910390fd5b60006002811115612576576125756144c1565b5b828281548110612589576125886153e7565b5b906000526020600020906005020160040160009054906101000a900460ff1660028111156125ba576125b96144c1565b5b146125fa576040517f08c379a00000000000000000000000000000000000000000000000000000000081526004016125f19061599d565b60405180910390fd5b600282828154811061260f5761260e6153e7565b5b906000526020600020906005020160040160006101000a81548160ff02191690836002811115612642576126416144c1565b5b02179055503373ffffffffffffffffffffffffffffffffffffffff166108fc838381548110612674576126736153e7565b5b9060005260206000209060050201600201549081150290604051600060405180830381858888f193505050501580156126b1573d6000803e3d6000fd5b505b80806126be906154d7565b915050612479565b50505050565b60007f780e9d63000000000000000000000000000000000000000000000000000000007bffffffffffffffffffffffffffffffffffffffffffffffffffffffff1916827bffffffffffffffffffffffffffffffffffffffffffffffffffffffff1916148061273f575061273e82612fd2565b5b9050919050565b600081600001549050919050565b6001816000016000828254019250508190555050565b6127848282604051806020016040528060008152506130b4565b5050565b6127918261310f565b6127d0576040517f08c379a00000000000000000000000000000000000000000000000000000000081526004016127c790615a2f565b60405180910390fd5b80600a600084815260200190815260200160002090816127f09190614e8b565b505050565b6127fe8161310f565b61283d576040517f08c379a0000000000000000000000000000000000000000000000000000000008152600401612834906156c3565b60405180910390fd5b50565b600033905090565b816004600083815260200190815260200160002060006101000a81548173ffffffffffffffffffffffffffffffffffffffff021916908373ffffffffffffffffffffffffffffffffffffffff160217905550808273ffffffffffffffffffffffffffffffffffffffff166128bb8361180f565b73ffffffffffffffffffffffffffffffffffffffff167f8c5be1e5ebec7d5bd14f71427d1e84f3dd0314c0f7b2291e5b200ac8c7c3b92560405160405180910390a45050565b60008061290d8361180f565b90508073ffffffffffffffffffffffffffffffffffffffff168473ffffffffffffffffffffffffffffffffffffffff16148061294f575061294e81856123cb565b5b8061298d57508373ffffffffffffffffffffffffffffffffffffffff16612975846109bc565b73ffffffffffffffffffffffffffffffffffffffff16145b91505092915050565b8273ffffffffffffffffffffffffffffffffffffffff166129b68261180f565b73ffffffffffffffffffffffffffffffffffffffff1614612a0c576040517f08c379a0000000000000000000000000000000000000000000000000000000008152600401612a0390615ac1565b60405180910390fd5b600073ffffffffffffffffffffffffffffffffffffffff168273ffffffffffffffffffffffffffffffffffffffff1603612a7b576040517f08c379a0000000000000000000000000000000000000000000000000000000008152600401612a7290615b53565b60405180910390fd5b612a888383836001613150565b8273ffffffffffffffffffffffffffffffffffffffff16612aa88261180f565b73ffffffffffffffffffffffffffffffffffffffff1614612afe576040517f08c379a0000000000000000000000000000000000000000000000000000000008152600401612af590615ac1565b60405180910390fd5b6004600082815260200190815260200160002060006101000a81549073ffffffffffffffffffffffffffffffffffffffff02191690556001600360008573ffffffffffffffffffffffffffffffffffffffff1673ffffffffffffffffffffffffffffffffffffffff168152602001908152602001600020600082825403925050819055506001600360008473ffffffffffffffffffffffffffffffffffffffff1673ffffffffffffffffffffffffffffffffffffffff16815260200190815260200160002060008282540192505081905550816002600083815260200190815260200160002060006101000a81548173ffffffffffffffffffffffffffffffffffffffff021916908373ffffffffffffffffffffffffffffffffffffffff160217905550808273ffffffffffffffffffffffffffffffffffffffff168473ffffffffffffffffffffffffffffffffffffffff167fddf252ad1be2c89b69c2b068fc378daa952ba7f163c4a11628f55a4df523b3ef60405160405180910390a4612c8a8383836001613162565b505050565b612caa838383604051806020016040528060008152506120a5565b505050565b612cb881613168565b50565b60006002600083815260200190815260200160002060009054906101000a900473ffffffffffffffffffffffffffffffffffffffff169050919050565b8173ffffffffffffffffffffffffffffffffffffffff168373ffffffffffffffffffffffffffffffffffffffff1603612d66576040517f08c379a0000000000000000000000000000000000000000000000000000000008152600401612d5d90615bbf565b60405180910390fd5b80600560008573ffffffffffffffffffffffffffffffffffffffff1673ffffffffffffffffffffffffffffffffffffffff16815260200190815260200160002060008473ffffffffffffffffffffffffffffffffffffffff1673ffffffffffffffffffffffffffffffffffffffff16815260200190815260200160002060006101000a81548160ff0219169083151502179055508173ffffffffffffffffffffffffffffffffffffffff168373ffffffffffffffffffffffffffffffffffffffff167f17307eab39ab6107e8899845ad3d59bd9653f200f220920489ca2b5937696c3183604051612e5791906140a3565b60405180910390a3505050565b612e6f848484612996565b612e7b848484846131bb565b612eba576040517f08c379a0000000000000000000000000000000000000000000000000000000008152600401612eb190615c51565b60405180910390fd5b50505050565b6060612ecb826127f5565b6000600a60008481526020019081526020016000208054612eeb90614cae565b80601f0160208091040260200160405190810160405280929190818152602001828054612f1790614cae565b8015612f645780601f10612f3957610100808354040283529160200191612f64565b820191906000526020600020905b815481529060010190602001808311612f4757829003601f168201915b505050505090506000612f75613342565b90506000815103612f8a578192505050612fcd565b600082511115612fbf578082604051602001612fa7929190615cad565b60405160208183030381529060405292505050612fcd565b612fc884613359565b925050505b919050565b60007f80ac58cd000000000000000000000000000000000000000000000000000000007bffffffffffffffffffffffffffffffffffffffffffffffffffffffff1916827bffffffffffffffffffffffffffffffffffffffffffffffffffffffff1916148061309d57507f5b5e139f000000000000000000000000000000000000000000000000000000007bffffffffffffffffffffffffffffffffffffffffffffffffffffffff1916827bffffffffffffffffffffffffffffffffffffffffffffffffffffffff1916145b806130ad57506130ac826133c1565b5b9050919050565b6130be838361342b565b6130cb60008484846131bb565b61310a576040517f08c379a000000000000000000000000000000000000000000000000000000000815260040161310190615c51565b60405180910390fd5b505050565b60008073ffffffffffffffffffffffffffffffffffffffff1661313183612cbb565b73ffffffffffffffffffffffffffffffffffffffff1614159050919050565b61315c84848484613648565b50505050565b50505050565b613171816137a6565b6000600a6000838152602001908152602001600020805461319190614cae565b9050146131b857600a600082815260200190815260200160002060006131b79190613eb9565b5b50565b60006131dc8473ffffffffffffffffffffffffffffffffffffffff166138f4565b15613335578373ffffffffffffffffffffffffffffffffffffffff1663150b7a02613205612840565b8786866040518563ffffffff1660e01b81526004016132279493929190615d26565b6020604051808303816000875af192505050801561326357506040513d601f19601f820116820180604052508101906132609190615d87565b60015b6132e5573d8060008114613293576040519150601f19603f3d011682016040523d82523d6000602084013e613298565b606091505b5060008151036132dd576040517f08c379a00000000000000000000000000000000000000000000000000000000081526004016132d490615c51565b60405180910390fd5b805181602001fd5b63150b7a0260e01b7bffffffffffffffffffffffffffffffffffffffffffffffffffffffff1916817bffffffffffffffffffffffffffffffffffffffffffffffffffffffff19161491505061333a565b600190505b949350505050565b606060405180602001604052806000815250905090565b6060613364826127f5565b600061336e613342565b9050600081511161338e57604051806020016040528060008152506133b9565b8061339884613917565b6040516020016133a9929190615cad565b6040516020818303038152906040525b915050919050565b60007f01ffc9a7000000000000000000000000000000000000000000000000000000007bffffffffffffffffffffffffffffffffffffffffffffffffffffffff1916827bffffffffffffffffffffffffffffffffffffffffffffffffffffffff1916149050919050565b600073ffffffffffffffffffffffffffffffffffffffff168273ffffffffffffffffffffffffffffffffffffffff160361349a576040517f08c379a000000000000000000000000000000000000000000000000000000000815260040161349190615e00565b60405180910390fd5b6134a38161310f565b156134e3576040517f08c379a00000000000000000000000000000000000000000000000000000000081526004016134da90615e6c565b60405180910390fd5b6134f1600083836001613150565b6134fa8161310f565b1561353a576040517f08c379a000000000000000000000000000000000000000000000000000000000815260040161353190615e6c565b60405180910390fd5b6001600360008473ffffffffffffffffffffffffffffffffffffffff1673ffffffffffffffffffffffffffffffffffffffff16815260200190815260200160002060008282540192505081905550816002600083815260200190815260200160002060006101000a81548173ffffffffffffffffffffffffffffffffffffffff021916908373ffffffffffffffffffffffffffffffffffffffff160217905550808273ffffffffffffffffffffffffffffffffffffffff16600073ffffffffffffffffffffffffffffffffffffffff167fddf252ad1be2c89b69c2b068fc378daa952ba7f163c4a11628f55a4df523b3ef60405160405180910390a4613644600083836001613162565b5050565b613654848484846139e5565b6001811115613698576040517f08c379a000000000000000000000000000000000000000000000000000000000815260040161368f90615efe565b60405180910390fd5b6000829050600073ffffffffffffffffffffffffffffffffffffffff168573ffffffffffffffffffffffffffffffffffffffff16036136df576136da816139eb565b61371e565b8373ffffffffffffffffffffffffffffffffffffffff168573ffffffffffffffffffffffffffffffffffffffff161461371d5761371c8582613a34565b5b5b600073ffffffffffffffffffffffffffffffffffffffff168473ffffffffffffffffffffffffffffffffffffffff16036137605761375b81613ba1565b61379f565b8473ffffffffffffffffffffffffffffffffffffffff168473ffffffffffffffffffffffffffffffffffffffff161461379e5761379d8482613c72565b5b5b5050505050565b60006137b18261180f565b90506137c1816000846001613150565b6137ca8261180f565b90506004600083815260200190815260200160002060006101000a81549073ffffffffffffffffffffffffffffffffffffffff02191690556001600360008373ffffffffffffffffffffffffffffffffffffffff1673ffffffffffffffffffffffffffffffffffffffff168152602001908152602001600020600082825403925050819055506002600083815260200190815260200160002060006101000a81549073ffffffffffffffffffffffffffffffffffffffff021916905581600073ffffffffffffffffffffffffffffffffffffffff168273ffffffffffffffffffffffffffffffffffffffff167fddf252ad1be2c89b69c2b068fc378daa952ba7f163c4a11628f55a4df523b3ef60405160405180910390a46138f0816000846001613162565b5050565b6000808273ffffffffffffffffffffffffffffffffffffffff163b119050919050565b60606000600161392684613cf1565b01905060008167ffffffffffffffff81111561394557613944614137565b5b6040519080825280601f01601f1916602001820160405280156139775781602001600182028036833780820191505090505b509050600082602001820190505b6001156139da578080600190039150507f3031323334353637383961626364656600000000000000000000000000000000600a86061a8153600a85816139ce576139cd615f1e565b5b04945060008503613985575b819350505050919050565b50505050565b6008805490506009600083815260200190815260200160002081905550600881908060018154018082558091505060019003906000526020600020016000909190919091505550565b60006001613a41846119cf565b613a4b9190615f4d565b9050600060076000848152602001908152602001600020549050818114613b30576000600660008673ffffffffffffffffffffffffffffffffffffffff1673ffffffffffffffffffffffffffffffffffffffff168152602001908152602001600020600084815260200190815260200160002054905080600660008773ffffffffffffffffffffffffffffffffffffffff1673ffffffffffffffffffffffffffffffffffffffff168152602001908152602001600020600084815260200190815260200160002081905550816007600083815260200190815260200160002081905550505b6007600084815260200190815260200160002060009055600660008573ffffffffffffffffffffffffffffffffffffffff1673ffffffffffffffffffffffffffffffffffffffff16815260200190815260200160002060008381526020019081526020016000206000905550505050565b60006001600880549050613bb59190615f4d565b9050600060096000848152602001908152602001600020549050600060088381548110613be557613be46153e7565b5b906000526020600020015490508060088381548110613c0757613c066153e7565b5b906000526020600020018190555081600960008381526020019081526020016000208190555060096000858152602001908152602001600020600090556008805480613c5657613c55615f81565b5b6001900381819060005260206000200160009055905550505050565b6000613c7d836119cf565b905081600660008573ffffffffffffffffffffffffffffffffffffffff1673ffffffffffffffffffffffffffffffffffffffff168152602001908152602001600020600083815260200190815260200160002081905550806007600084815260200190815260200160002081905550505050565b600080600090507a184f03e93ff9f4daa797ed6e38ed64bf6a1f0100000000000000008310613d4f577a184f03e93ff9f4daa797ed6e38ed64bf6a1f0100000000000000008381613d4557613d44615f1e565b5b0492506040810190505b6d04ee2d6d415b85acef81000000008310613d8c576d04ee2d6d415b85acef81000000008381613d8257613d81615f1e565b5b0492506020810190505b662386f26fc100008310613dbb57662386f26fc100008381613db157613db0615f1e565b5b0492506010810190505b6305f5e1008310613de4576305f5e1008381613dda57613dd9615f1e565b5b0492506008810190505b6127108310613e09576127108381613dff57613dfe615f1e565b5b0492506004810190505b60648310613e2c5760648381613e2257613e21615f1e565b5b0492506002810190505b600a8310613e3b576001810190505b80915050919050565b5080546000825560050290600052602060002090810190613e659190613ef9565b50565b6040518060a001604052806000815260200160608152602001600073ffffffffffffffffffffffffffffffffffffffff168152602001613ea6613f63565b8152602001613eb3613f84565b81525090565b508054613ec590614cae565b6000825580601f10613ed75750613ef6565b601f016020900490600052602060002090810190613ef59190613f9e565b5b50565b5b80821115613f5f576000808201600090556001820160006101000a81549073ffffffffffffffffffffffffffffffffffffffff0219169055600282016000905560038201600090556004820160006101000a81549060ff021916905550600501613efa565b5090565b60405180606001604052806000815260200160608152602001606081525090565b604051806040016040528060008152602001600081525090565b5b80821115613fb7576000816000905550600101613f9f565b5090565b6000819050919050565b613fce81613fbb565b82525050565b6000602082019050613fe96000830184613fc5565b92915050565b6000604051905090565b600080fd5b600080fd5b60007fffffffff0000000000000000000000000000000000000000000000000000000082169050919050565b61403881614003565b811461404357600080fd5b50565b6000813590506140558161402f565b92915050565b60006020828403121561407157614070613ff9565b5b600061407f84828501614046565b91505092915050565b60008115159050919050565b61409d81614088565b82525050565b60006020820190506140b86000830184614094565b92915050565b600073ffffffffffffffffffffffffffffffffffffffff82169050919050565b60006140e9826140be565b9050919050565b6140f9816140de565b811461410457600080fd5b50565b600081359050614116816140f0565b92915050565b600080fd5b600080fd5b6000601f19601f8301169050919050565b7f4e487b7100000000000000000000000000000000000000000000000000000000600052604160045260246000fd5b61416f82614126565b810181811067ffffffffffffffff8211171561418e5761418d614137565b5b80604052505050565b60006141a1613fef565b90506141ad8282614166565b919050565b600067ffffffffffffffff8211156141cd576141cc614137565b5b6141d682614126565b9050602081019050919050565b82818337600083830152505050565b6000614205614200846141b2565b614197565b90508281526020810184848401111561422157614220614121565b5b61422c8482856141e3565b509392505050565b600082601f8301126142495761424861411c565b5b81356142598482602086016141f2565b91505092915050565b6000806000806080858703121561427c5761427b613ff9565b5b600061428a87828801614107565b945050602085013567ffffffffffffffff8111156142ab576142aa613ffe565b5b6142b787828801614234565b935050604085013567ffffffffffffffff8111156142d8576142d7613ffe565b5b6142e487828801614234565b925050606085013567ffffffffffffffff81111561430557614304613ffe565b5b61431187828801614234565b91505092959194509250565b600081519050919050565b600082825260208201905092915050565b60005b8381101561435757808201518184015260208101905061433c565b60008484015250505050565b600061436e8261431d565b6143788185614328565b9350614388818560208601614339565b61439181614126565b840191505092915050565b600060208201905081810360008301526143b68184614363565b905092915050565b6143c781613fbb565b81146143d257600080fd5b50565b6000813590506143e4816143be565b92915050565b600060208284031215614400576143ff613ff9565b5b600061440e848285016143d5565b91505092915050565b614420816140de565b82525050565b600060208201905061443b6000830184614417565b92915050565b6000806040838503121561445857614457613ff9565b5b600061446685828601614107565b9250506020614477858286016143d5565b9150509250929050565b6000806040838503121561449857614497613ff9565b5b60006144a6858286016143d5565b92505060206144b7858286016143d5565b9150509250929050565b7f4e487b7100000000000000000000000000000000000000000000000000000000600052602160045260246000fd5b60038110614501576145006144c1565b5b50565b6000819050614512826144f0565b919050565b600061452282614504565b9050919050565b61453281614517565b82525050565b600060a08201905061454d6000830188613fc5565b61455a6020830187614417565b6145676040830186613fc5565b6145746060830185613fc5565b6145816080830184614529565b9695505050505050565b6000806000606084860312156145a4576145a3613ff9565b5b60006145b286828701614107565b93505060206145c386828701614107565b92505060406145d4868287016143d5565b9150509250925092565b6000602082840312156145f4576145f3613ff9565b5b600061460284828501614107565b91505092915050565b600081519050919050565b600082825260208201905092915050565b6000819050602082019050919050565b61464081613fbb565b82525050565b61464f816140de565b82525050565b61465e81614517565b82525050565b60a08201600082015161467a6000850182614637565b50602082015161468d6020850182614646565b5060408201516146a06040850182614637565b5060608201516146b36060850182614637565b5060808201516146c66080850182614655565b50505050565b60006146d88383614664565b60a08301905092915050565b6000602082019050919050565b60006146fc8261460b565b6147068185614616565b935061471183614627565b8060005b8381101561474257815161472988826146cc565b9750614734836146e4565b925050600181019050614715565b5085935050505092915050565b6000602082019050818103600083015261476981846146f1565b905092915050565b600081519050919050565b600082825260208201905092915050565b6000819050602082019050919050565b600082825260208201905092915050565b60006147b98261431d565b6147c3818561479d565b93506147d3818560208601614339565b6147dc81614126565b840191505092915050565b60006060830160008301516147ff6000860182614637565b506020830151848203602086015261481782826147ae565b9150506040830151848203604086015261483182826147ae565b9150508091505092915050565b6040820160008201516148546000850182614637565b5060208201516148676020850182614637565b50505050565b600060c0830160008301516148856000860182614637565b506020830151848203602086015261489d82826147ae565b91505060408301516148b26040860182614646565b50606083015184820360608601526148ca82826147e7565b91505060808301516148df608086018261483e565b508091505092915050565b60006148f6838361486d565b905092915050565b6000602082019050919050565b600061491682614771565b614920818561477c565b9350836020820285016149328561478d565b8060005b8581101561496e578484038952815161494f85826148ea565b945061495a836148fe565b925060208a01995050600181019050614936565b50829750879550505050505092915050565b6000602082019050818103600083015261499a818461490b565b905092915050565b60006060820190506149b76000830186613fc5565b81810360208301526149c98185614363565b905081810360408301526149dd8184614363565b9050949350505050565b6149f081614088565b81146149fb57600080fd5b50565b600081359050614a0d816149e7565b92915050565b60008060408385031215614a2a57614a29613ff9565b5b6000614a3885828601614107565b9250506020614a49858286016149fe565b9150509250929050565b600067ffffffffffffffff821115614a6e57614a6d614137565b5b614a7782614126565b9050602081019050919050565b6000614a97614a9284614a53565b614197565b905082815260208101848484011115614ab357614ab2614121565b5b614abe8482856141e3565b509392505050565b600082601f830112614adb57614ada61411c565b5b8135614aeb848260208601614a84565b91505092915050565b60008060008060808587031215614b0e57614b0d613ff9565b5b6000614b1c87828801614107565b9450506020614b2d87828801614107565b9350506040614b3e878288016143d5565b925050606085013567ffffffffffffffff811115614b5f57614b5e613ffe565b5b614b6b87828801614ac6565b91505092959194509250565b6000604082019050614b8c6000830185613fc5565b614b996020830184613fc5565b9392505050565b600060c083016000830151614bb86000860182614637565b5060208301518482036020860152614bd082826147ae565b9150506040830151614be56040860182614646565b5060608301518482036060860152614bfd82826147e7565b9150506080830151614c12608086018261483e565b508091505092915050565b60006020820190508181036000830152614c378184614ba0565b905092915050565b60008060408385031215614c5657614c55613ff9565b5b6000614c6485828601614107565b9250506020614c7585828601614107565b9150509250929050565b7f4e487b7100000000000000000000000000000000000000000000000000000000600052602260045260246000fd5b60006002820490506001821680614cc657607f821691505b602082108103614cd957614cd8614c7f565b5b50919050565b60008190508160005260206000209050919050565b60006020601f8301049050919050565b600082821b905092915050565b600060088302614d417fffffffffffffffffffffffffffffffffffffffffffffffffffffffffffffffff82614d04565b614d4b8683614d04565b95508019841693508086168417925050509392505050565b6000819050919050565b6000614d88614d83614d7e84613fbb565b614d63565b613fbb565b9050919050565b6000819050919050565b614da283614d6d565b614db6614dae82614d8f565b848454614d11565b825550505050565b600090565b614dcb614dbe565b614dd6818484614d99565b505050565b5b81811015614dfa57614def600082614dc3565b600181019050614ddc565b5050565b601f821115614e3f57614e1081614cdf565b614e1984614cf4565b81016020851015614e28578190505b614e3c614e3485614cf4565b830182614ddb565b50505b505050565b600082821c905092915050565b6000614e6260001984600802614e44565b1980831691505092915050565b6000614e7b8383614e51565b9150826002028217905092915050565b614e948261431d565b67ffffffffffffffff811115614ead57614eac614137565b5b614eb78254614cae565b614ec2828285614dfe565b600060209050601f831160018114614ef55760008415614ee3578287015190505b614eed8582614e6f565b865550614f55565b601f198416614f0386614cdf565b60005b82811015614f2b57848901518255600182019150602085019450602081019050614f06565b86831015614f485784890151614f44601f891682614e51565b8355505b6001600288020188555050505b505050505050565b7f4552433732313a20617070726f76616c20746f2063757272656e74206f776e6560008201527f7200000000000000000000000000000000000000000000000000000000000000602082015250565b6000614fb9602183614328565b9150614fc482614f5d565b604082019050919050565b60006020820190508181036000830152614fe881614fac565b9050919050565b7f4552433732313a20617070726f76652063616c6c6572206973206e6f7420746f60008201527f6b656e206f776e6572206f7220617070726f76656420666f7220616c6c000000602082015250565b600061504b603d83614328565b915061505682614fef565b604082019050919050565b6000602082019050818103600083015261507a8161503e565b9050919050565b7f4552433732313a2063616c6c6572206973206e6f7420746f6b656e206f776e6560008201527f72206f7220617070726f76656400000000000000000000000000000000000000602082015250565b60006150dd602d83614328565b91506150e882615081565b604082019050919050565b6000602082019050818103600083015261510c816150d0565b9050919050565b7f596f752063616e6e6f742073656c6c204e465473207468617420796f7520646f60008201527f206e6f74206f776e000000000000000000000000000000000000000000000000602082015250565b600061516f602883614328565b915061517a82615113565b604082019050919050565b6000602082019050818103600083015261519e81615162565b9050919050565b7f5072696365206d7573742062652067726561746572207468616e203000000000600082015250565b60006151db601c83614328565b91506151e6826151a5565b602082019050919050565b6000602082019050818103600083015261520a816151ce565b9050919050565b7f596f752063616e6e6f742062757920796f7572206f776e204e46540000000000600082015250565b6000615247601b83614328565b915061525282615211565b602082019050919050565b600060208201905081810360008301526152768161523a565b9050919050565b7f54686973204e4654206973206e6f7420666f722073616c650000000000000000600082015250565b60006152b3601883614328565b91506152be8261527d565b602082019050919050565b600060208201905081810360008301526152e2816152a6565b9050919050565b7f596f75206d7573742073656e6420656e6f7567682045544820746f206275792060008201527f74686973204e4654000000000000000000000000000000000000000000000000602082015250565b6000615345602883614328565b9150615350826152e9565b604082019050919050565b6000602082019050818103600083015261537481615338565b9050919050565b7f4f66666572206d7573742062652067726561746572207468616e203000000000600082015250565b60006153b1601c83614328565b91506153bc8261537b565b602082019050919050565b600060208201905081810360008301526153e0816153a4565b9050919050565b7f4e487b7100000000000000000000000000000000000000000000000000000000600052603260045260246000fd5b7f596f7520616c7265616479206861766520612070656e64696e6720627579696e60008201527f67207265717565737420666f722074686973204e465400000000000000000000602082015250565b6000615472603683614328565b915061547d82615416565b604082019050919050565b600060208201905081810360008301526154a181615465565b9050919050565b7f4e487b7100000000000000000000000000000000000000000000000000000000600052601160045260246000fd5b60006154e282613fbb565b91507fffffffffffffffffffffffffffffffffffffffffffffffffffffffffffffffff8203615514576155136154a8565b5b600182019050919050565b600061552a82613fbb565b915061553583613fbb565b925082820190508082111561554d5761554c6154a8565b5b92915050565b7f455243373231456e756d657261626c653a206f776e657220696e646578206f7560008201527f74206f6620626f756e6473000000000000000000000000000000000000000000602082015250565b60006155af602b83614328565b91506155ba82615553565b604082019050919050565b600060208201905081810360008301526155de816155a2565b9050919050565b7f455243373231456e756d657261626c653a20676c6f62616c20696e646578206f60008201527f7574206f6620626f756e64730000000000000000000000000000000000000000602082015250565b6000615641602c83614328565b915061564c826155e5565b604082019050919050565b6000602082019050818103600083015261567081615634565b9050919050565b7f4552433732313a20696e76616c696420746f6b656e2049440000000000000000600082015250565b60006156ad601883614328565b91506156b882615677565b602082019050919050565b600060208201905081810360008301526156dc816156a0565b9050919050565b7f4552433732313a2061646472657373207a65726f206973206e6f74206120766160008201527f6c6964206f776e65720000000000000000000000000000000000000000000000602082015250565b600061573f602983614328565b915061574a826156e3565b604082019050919050565b6000602082019050818103600083015261576e81615732565b9050919050565b7f596f752063616e6e6f742061636365707420627579696e67207265717565737460008201527f7320666f72204e465473207468617420796f7520646f206e6f74206f776e0000602082015250565b60006157d1603e83614328565b91506157dc82615775565b604082019050919050565b60006020820190508181036000830152615800816157c4565b9050919050565b7f596f752063616e6e6f742063616e63656c2073656c6c696e67206c697374696e60008201527f677320666f72204e465473207468617420796f7520646f206e6f74206f776e00602082015250565b6000615863603f83614328565b915061586e82615807565b604082019050919050565b6000602082019050818103600083015261589281615856565b9050919050565b7f596f752063616e6e6f742063616e63656c20627579696e67207265717565737460008201527f73207468617420796f7520646964206e6f742063726561746500000000000000602082015250565b60006158f5603983614328565b915061590082615899565b604082019050919050565b60006020820190508181036000830152615924816158e8565b9050919050565b7f596f752063616e6e6f742063616e63656c20627579696e67207265717565737460008201527f73207468617420617265206e6f742070656e64696e6700000000000000000000602082015250565b6000615987603683614328565b91506159928261592b565b604082019050919050565b600060208201905081810360008301526159b68161597a565b9050919050565b7f45524337323155524953746f726167653a2055524920736574206f66206e6f6e60008201527f6578697374656e7420746f6b656e000000000000000000000000000000000000602082015250565b6000615a19602e83614328565b9150615a24826159bd565b604082019050919050565b60006020820190508181036000830152615a4881615a0c565b9050919050565b7f4552433732313a207472616e736665722066726f6d20696e636f72726563742060008201527f6f776e6572000000000000000000000000000000000000000000000000000000602082015250565b6000615aab602583614328565b9150615ab682615a4f565b604082019050919050565b60006020820190508181036000830152615ada81615a9e565b9050919050565b7f4552433732313a207472616e7366657220746f20746865207a65726f2061646460008201527f7265737300000000000000000000000000000000000000000000000000000000602082015250565b6000615b3d602483614328565b9150615b4882615ae1565b604082019050919050565b60006020820190508181036000830152615b6c81615b30565b9050919050565b7f4552433732313a20617070726f766520746f2063616c6c657200000000000000600082015250565b6000615ba9601983614328565b9150615bb482615b73565b602082019050919050565b60006020820190508181036000830152615bd881615b9c565b9050919050565b7f4552433732313a207472616e7366657220746f206e6f6e20455243373231526560008201527f63656976657220696d706c656d656e7465720000000000000000000000000000602082015250565b6000615c3b603283614328565b9150615c4682615bdf565b604082019050919050565b60006020820190508181036000830152615c6a81615c2e565b9050919050565b600081905092915050565b6000615c878261431d565b615c918185615c71565b9350615ca1818560208601614339565b80840191505092915050565b6000615cb98285615c7c565b9150615cc58284615c7c565b91508190509392505050565b600081519050919050565b600082825260208201905092915050565b6000615cf882615cd1565b615d028185615cdc565b9350615d12818560208601614339565b615d1b81614126565b840191505092915050565b6000608082019050615d3b6000830187614417565b615d486020830186614417565b615d556040830185613fc5565b8181036060830152615d678184615ced565b905095945050505050565b600081519050615d818161402f565b92915050565b600060208284031215615d9d57615d9c613ff9565b5b6000615dab84828501615d72565b91505092915050565b7f4552433732313a206d696e7420746f20746865207a65726f2061646472657373600082015250565b6000615dea602083614328565b9150615df582615db4565b602082019050919050565b60006020820190508181036000830152615e1981615ddd565b9050919050565b7f4552433732313a20746f6b656e20616c7265616479206d696e74656400000000600082015250565b6000615e56601c83614328565b9150615e6182615e20565b602082019050919050565b60006020820190508181036000830152615e8581615e49565b9050919050565b7f455243373231456e756d657261626c653a20636f6e736563757469766520747260008201527f616e7366657273206e6f7420737570706f727465640000000000000000000000602082015250565b6000615ee8603583614328565b9150615ef382615e8c565b604082019050919050565b60006020820190508181036000830152615f1781615edb565b9050919050565b7f4e487b7100000000000000000000000000000000000000000000000000000000600052601260045260246000fd5b6000615f5882613fbb565b9150615f6383613fbb565b9250828203905081811115615f7b57615f7a6154a8565b5b92915050565b7f4e487b7100000000000000000000000000000000000000000000000000000000600052603160045260246000fdfea2646970667358221220078d0099372ec98b0231bd4d17ba835f1ad1961f8ae5202c32ab5efd4945127464736f6c63430008130033",
  "linkReferences": {},
  "deployedLinkReferences": {}
}