{
  "_format": "hh-sol-artifact-1",
  "contractName": "Encode",
  "sourceName": "contracts/Encode.sol",
  "abi": [
    {
      "inputs": [],
      "stateMutability": "nonpayable",
      "type": "constructor"
    },
    {
      "anonymous": false,
      "inputs": [
        {
          "indexed": true,
          "internalType": "address",
          "name": "owner",
          "type": "address"
        },
        {
          "indexed": true,
          "internalType": "address",
          "name": "approved",
          "type": "address"
        },
        {
          "indexed": true,
          "internalType": "uint256",
          "name": "tokenId",
          "type": "uint256"
        }
      ],
      "name": "Approval",
      "type": "event"
    },
    {
      "anonymous": false,
      "inputs": [
        {
          "indexed": true,
          "internalType": "address",
          "name": "owner",
          "type": "address"
        },
        {
          "indexed": true,
          "internalType": "address",
          "name": "operator",
          "type": "address"
        },
        {
          "indexed": false,
          "internalType": "bool",
          "name": "approved",
          "type": "bool"
        }
      ],
      "name": "ApprovalForAll",
      "type": "event"
    },
    {
      "anonymous": false,
      "inputs": [
        {
          "indexed": true,
          "internalType": "address",
          "name": "from",
          "type": "address"
        },
        {
          "indexed": true,
          "internalType": "address",
          "name": "to",
          "type": "address"
        },
        {
          "indexed": true,
          "internalType": "uint256",
          "name": "tokenId",
          "type": "uint256"
        }
      ],
      "name": "Transfer",
      "type": "event"
    },
    {
      "inputs": [
        {
          "internalType": "uint256",
          "name": "tokenId",
          "type": "uint256"
        },
        {
          "internalType": "uint256",
          "name": "requestId",
          "type": "uint256"
        }
      ],
      "name": "acceptBuyingRequest",
      "outputs": [],
      "stateMutability": "nonpayable",
      "type": "function"
    },
    {
      "inputs": [
        {
          "internalType": "address",
          "name": "to",
          "type": "address"
        },
        {
          "internalType": "uint256",
          "name": "tokenId",
          "type": "uint256"
        }
      ],
      "name": "approve",
      "outputs": [],
      "stateMutability": "nonpayable",
      "type": "function"
    },
    {
      "inputs": [
        {
          "internalType": "address",
          "name": "owner",
          "type": "address"
        }
      ],
      "name": "balanceOf",
      "outputs": [
        {
          "internalType": "uint256",
          "name": "",
          "type": "uint256"
        }
      ],
      "stateMutability": "view",
      "type": "function"
    },
    {
      "inputs": [
        {
          "internalType": "uint256",
          "name": "tokenId",
          "type": "uint256"
        }
      ],
      "name": "burn",
      "outputs": [],
      "stateMutability": "nonpayable",
      "type": "function"
    },
    {
      "inputs": [
        {
          "internalType": "uint256",
          "name": "tokenId",
          "type": "uint256"
        }
      ],
      "name": "buyToken",
      "outputs": [],
      "stateMutability": "payable",
      "type": "function"
    },
    {
      "inputs": [
        {
          "internalType": "uint256",
          "name": "",
          "type": "uint256"
        },
        {
          "internalType": "uint256",
          "name": "",
          "type": "uint256"
        }
      ],
      "name": "buyingRequests",
      "outputs": [
        {
          "internalType": "uint256",
          "name": "id",
          "type": "uint256"
        },
        {
          "internalType": "address",
          "name": "buyer",
          "type": "address"
        },
        {
          "internalType": "uint256",
          "name": "offer",
          "type": "uint256"
        },
        {
          "internalType": "uint256",
          "name": "timestamp",
          "type": "uint256"
        },
        {
          "internalType": "enum Encode.BuyingRequestStatus",
          "name": "status",
          "type": "uint8"
        }
      ],
      "stateMutability": "view",
      "type": "function"
    },
    {
      "inputs": [
        {
          "internalType": "uint256",
          "name": "tokenId",
          "type": "uint256"
        },
        {
          "internalType": "uint256",
          "name": "offer",
          "type": "uint256"
        }
      ],
      "name": "createBuyingRequest",
      "outputs": [],
      "stateMutability": "nonpayable",
      "type": "function"
    },
    {
      "inputs": [
        {
          "internalType": "uint256",
          "name": "tokenId",
          "type": "uint256"
        },
        {
          "internalType": "uint256",
          "name": "price",
          "type": "uint256"
        }
      ],
      "name": "createSellingListing",
      "outputs": [],
      "stateMutability": "nonpayable",
      "type": "function"
    },
    {
      "inputs": [
        {
          "internalType": "uint256",
          "name": "tokenId",
          "type": "uint256"
        }
      ],
      "name": "getApproved",
      "outputs": [
        {
          "internalType": "address",
          "name": "",
          "type": "address"
        }
      ],
      "stateMutability": "view",
      "type": "function"
    },
    {
      "inputs": [
        {
          "internalType": "uint256",
          "name": "tokenId",
          "type": "uint256"
        }
      ],
      "name": "getBuyingRequests",
      "outputs": [
        {
          "components": [
            {
              "internalType": "uint256",
              "name": "id",
              "type": "uint256"
            },
            {
              "internalType": "address",
              "name": "buyer",
              "type": "address"
            },
            {
              "internalType": "uint256",
              "name": "offer",
              "type": "uint256"
            },
            {
              "internalType": "uint256",
              "name": "timestamp",
              "type": "uint256"
            },
            {
              "internalType": "enum Encode.BuyingRequestStatus",
              "name": "status",
              "type": "uint8"
            }
          ],
          "internalType": "struct Encode.BuyingRequest[]",
          "name": "",
          "type": "tuple[]"
        }
      ],
      "stateMutability": "view",
      "type": "function"
    },
    {
      "inputs": [
        {
          "internalType": "uint256",
          "name": "tokenId",
          "type": "uint256"
        }
      ],
      "name": "getSellingListings",
      "outputs": [
        {
          "components": [
            {
              "internalType": "uint256",
              "name": "price",
              "type": "uint256"
            },
            {
              "internalType": "uint256",
              "name": "timestamp",
              "type": "uint256"
            }
          ],
          "internalType": "struct Encode.SellingListing",
          "name": "",
          "type": "tuple"
        }
      ],
      "stateMutability": "view",
      "type": "function"
    },
    {
      "inputs": [
        {
          "internalType": "uint256",
          "name": "tokenId",
          "type": "uint256"
        }
      ],
      "name": "getToken",
      "outputs": [
        {
          "components": [
            {
              "internalType": "uint256",
              "name": "id",
              "type": "uint256"
            },
            {
              "internalType": "string",
              "name": "uri",
              "type": "string"
            },
            {
              "internalType": "address",
              "name": "owner",
              "type": "address"
            },
            {
              "components": [
                {
                  "internalType": "uint256",
                  "name": "creationDate",
                  "type": "uint256"
                },
                {
                  "internalType": "string",
                  "name": "title",
                  "type": "string"
                },
                {
                  "internalType": "string",
                  "name": "description",
                  "type": "string"
                }
              ],
              "internalType": "struct Encode.TokenMetadata",
              "name": "metadata",
              "type": "tuple"
            }
          ],
          "internalType": "struct Encode.TokenInfo",
          "name": "",
          "type": "tuple"
        }
      ],
      "stateMutability": "view",
      "type": "function"
    },
    {
      "inputs": [
        {
          "internalType": "address",
          "name": "addr",
          "type": "address"
        }
      ],
      "name": "getTokensOfOwner",
      "outputs": [
        {
          "components": [
            {
              "internalType": "uint256",
              "name": "id",
              "type": "uint256"
            },
            {
              "internalType": "string",
              "name": "uri",
              "type": "string"
            },
            {
              "internalType": "address",
              "name": "owner",
              "type": "address"
            },
            {
              "components": [
                {
                  "internalType": "uint256",
                  "name": "creationDate",
                  "type": "uint256"
                },
                {
                  "internalType": "string",
                  "name": "title",
                  "type": "string"
                },
                {
                  "internalType": "string",
                  "name": "description",
                  "type": "string"
                }
              ],
              "internalType": "struct Encode.TokenMetadata",
              "name": "metadata",
              "type": "tuple"
            }
          ],
          "internalType": "struct Encode.TokenInfo[]",
          "name": "",
          "type": "tuple[]"
        }
      ],
      "stateMutability": "view",
      "type": "function"
    },
    {
      "inputs": [
        {
          "internalType": "address",
          "name": "owner",
          "type": "address"
        },
        {
          "internalType": "address",
          "name": "operator",
          "type": "address"
        }
      ],
      "name": "isApprovedForAll",
      "outputs": [
        {
          "internalType": "bool",
          "name": "",
          "type": "bool"
        }
      ],
      "stateMutability": "view",
      "type": "function"
    },
    {
      "inputs": [],
      "name": "listTokens",
      "outputs": [
        {
          "components": [
            {
              "internalType": "uint256",
              "name": "id",
              "type": "uint256"
            },
            {
              "internalType": "string",
              "name": "uri",
              "type": "string"
            },
            {
              "internalType": "address",
              "name": "owner",
              "type": "address"
            },
            {
              "components": [
                {
                  "internalType": "uint256",
                  "name": "creationDate",
                  "type": "uint256"
                },
                {
                  "internalType": "string",
                  "name": "title",
                  "type": "string"
                },
                {
                  "internalType": "string",
                  "name": "description",
                  "type": "string"
                }
              ],
              "internalType": "struct Encode.TokenMetadata",
              "name": "metadata",
              "type": "tuple"
            }
          ],
          "internalType": "struct Encode.TokenInfo[]",
          "name": "",
          "type": "tuple[]"
        }
      ],
      "stateMutability": "view",
      "type": "function"
    },
    {
      "inputs": [],
      "name": "name",
      "outputs": [
        {
          "internalType": "string",
          "name": "",
          "type": "string"
        }
      ],
      "stateMutability": "view",
      "type": "function"
    },
    {
      "inputs": [
        {
          "internalType": "uint256",
          "name": "tokenId",
          "type": "uint256"
        }
      ],
      "name": "ownerOf",
      "outputs": [
        {
          "internalType": "address",
          "name": "",
          "type": "address"
        }
      ],
      "stateMutability": "view",
      "type": "function"
    },
    {
      "inputs": [
        {
          "internalType": "address",
          "name": "to",
          "type": "address"
        },
        {
          "internalType": "string",
          "name": "uri",
          "type": "string"
        },
        {
          "internalType": "string",
          "name": "title",
          "type": "string"
        },
        {
          "internalType": "string",
          "name": "description",
          "type": "string"
        }
      ],
      "name": "safeMint",
      "outputs": [],
      "stateMutability": "nonpayable",
      "type": "function"
    },
    {
      "inputs": [
        {
          "internalType": "address",
          "name": "from",
          "type": "address"
        },
        {
          "internalType": "address",
          "name": "to",
          "type": "address"
        },
        {
          "internalType": "uint256",
          "name": "tokenId",
          "type": "uint256"
        }
      ],
      "name": "safeTransferFrom",
      "outputs": [],
      "stateMutability": "nonpayable",
      "type": "function"
    },
    {
      "inputs": [
        {
          "internalType": "address",
          "name": "from",
          "type": "address"
        },
        {
          "internalType": "address",
          "name": "to",
          "type": "address"
        },
        {
          "internalType": "uint256",
          "name": "tokenId",
          "type": "uint256"
        },
        {
          "internalType": "bytes",
          "name": "data",
          "type": "bytes"
        }
      ],
      "name": "safeTransferFrom",
      "outputs": [],
      "stateMutability": "nonpayable",
      "type": "function"
    },
    {
      "inputs": [
        {
          "internalType": "uint256",
          "name": "",
          "type": "uint256"
        }
      ],
      "name": "sellingListing",
      "outputs": [
        {
          "internalType": "uint256",
          "name": "price",
          "type": "uint256"
        },
        {
          "internalType": "uint256",
          "name": "timestamp",
          "type": "uint256"
        }
      ],
      "stateMutability": "view",
      "type": "function"
    },
    {
      "inputs": [
        {
          "internalType": "address",
          "name": "operator",
          "type": "address"
        },
        {
          "internalType": "bool",
          "name": "approved",
          "type": "bool"
        }
      ],
      "name": "setApprovalForAll",
      "outputs": [],
      "stateMutability": "nonpayable",
      "type": "function"
    },
    {
      "inputs": [
        {
          "internalType": "bytes4",
          "name": "interfaceId",
          "type": "bytes4"
        }
      ],
      "name": "supportsInterface",
      "outputs": [
        {
          "internalType": "bool",
          "name": "",
          "type": "bool"
        }
      ],
      "stateMutability": "view",
      "type": "function"
    },
    {
      "inputs": [],
      "name": "symbol",
      "outputs": [
        {
          "internalType": "string",
          "name": "",
          "type": "string"
        }
      ],
      "stateMutability": "view",
      "type": "function"
    },
    {
      "inputs": [
        {
          "internalType": "uint256",
          "name": "index",
          "type": "uint256"
        }
      ],
      "name": "tokenByIndex",
      "outputs": [
        {
          "internalType": "uint256",
          "name": "",
          "type": "uint256"
        }
      ],
      "stateMutability": "view",
      "type": "function"
    },
    {
      "inputs": [
        {
          "internalType": "uint256",
          "name": "",
          "type": "uint256"
        }
      ],
      "name": "tokenMetadata",
      "outputs": [
        {
          "internalType": "uint256",
          "name": "creationDate",
          "type": "uint256"
        },
        {
          "internalType": "string",
          "name": "title",
          "type": "string"
        },
        {
          "internalType": "string",
          "name": "description",
          "type": "string"
        }
      ],
      "stateMutability": "view",
      "type": "function"
    },
    {
      "inputs": [
        {
          "internalType": "address",
          "name": "owner",
          "type": "address"
        },
        {
          "internalType": "uint256",
          "name": "index",
          "type": "uint256"
        }
      ],
      "name": "tokenOfOwnerByIndex",
      "outputs": [
        {
          "internalType": "uint256",
          "name": "",
          "type": "uint256"
        }
      ],
      "stateMutability": "view",
      "type": "function"
    },
    {
      "inputs": [
        {
          "internalType": "uint256",
          "name": "tokenId",
          "type": "uint256"
        }
      ],
      "name": "tokenURI",
      "outputs": [
        {
          "internalType": "string",
          "name": "",
          "type": "string"
        }
      ],
      "stateMutability": "view",
      "type": "function"
    },
    {
      "inputs": [],
      "name": "totalSupply",
      "outputs": [
        {
          "internalType": "uint256",
          "name": "",
          "type": "uint256"
        }
      ],
      "stateMutability": "view",
      "type": "function"
    },
    {
      "inputs": [
        {
          "internalType": "address",
          "name": "from",
          "type": "address"
        },
        {
          "internalType": "address",
          "name": "to",
          "type": "address"
        },
        {
          "internalType": "uint256",
          "name": "tokenId",
          "type": "uint256"
        }
      ],
      "name": "transferFrom",
      "outputs": [],
      "stateMutability": "nonpayable",
      "type": "function"
    }
  ],
  "bytecode": "0x60806040523480156200001157600080fd5b506040518060400160405280600681526020017f456e636f646500000000000000000000000000000000000000000000000000008152506040518060400160405280600381526020017f454e43000000000000000000000000000000000000000000000000000000000081525081600090816200008f919062000324565b508060019081620000a1919062000324565b5050506200040b565b600081519050919050565b7f4e487b7100000000000000000000000000000000000000000000000000000000600052604160045260246000fd5b7f4e487b7100000000000000000000000000000000000000000000000000000000600052602260045260246000fd5b600060028204905060018216806200012c57607f821691505b602082108103620001425762000141620000e4565b5b50919050565b60008190508160005260206000209050919050565b60006020601f8301049050919050565b600082821b905092915050565b600060088302620001ac7fffffffffffffffffffffffffffffffffffffffffffffffffffffffffffffffff826200016d565b620001b886836200016d565b95508019841693508086168417925050509392505050565b6000819050919050565b6000819050919050565b600062000205620001ff620001f984620001d0565b620001da565b620001d0565b9050919050565b6000819050919050565b6200022183620001e4565b6200023962000230826200020c565b8484546200017a565b825550505050565b600090565b6200025062000241565b6200025d81848462000216565b505050565b5b8181101562000285576200027960008262000246565b60018101905062000263565b5050565b601f821115620002d4576200029e8162000148565b620002a9846200015d565b81016020851015620002b9578190505b620002d1620002c8856200015d565b83018262000262565b50505b505050565b600082821c905092915050565b6000620002f960001984600802620002d9565b1980831691505092915050565b6000620003148383620002e6565b9150826002028217905092915050565b6200032f82620000aa565b67ffffffffffffffff8111156200034b576200034a620000b5565b5b62000357825462000113565b6200036482828562000289565b600060209050601f8311600181146200039c576000841562000387578287015190505b62000393858262000306565b86555062000403565b601f198416620003ac8662000148565b60005b82811015620003d657848901518255600182019150602085019450602081019050620003af565b86831015620003f65784890151620003f2601f891682620002e6565b8355505b6001600288020188555050505b505050505050565b615580806200041b6000396000f3fe6080604052600436106101cd5760003560e01c80635de6dc55116100f7578063a22cb46511610095578063d1b3405211610064578063d1b34052146106d9578063e4b50cb814610717578063e6f80ae614610754578063e985e9c514610791576101cd565b8063a22cb46514610621578063a9286ebc1461064a578063b88d4fde14610673578063c87b56dd1461069c576101cd565b806370a08231116100d157806370a08231146105655780637488ff76146105a25780638f747dd0146105cd57806395d89b41146105f6576101cd565b80635de6dc55146104ac5780636352211e146104e95780636914db6014610526576101cd565b806323b872dd1161016f57806342842e0e1161013e57806342842e0e146103e057806342966c68146104095780634f6ccce714610432578063596fbfb01461046f576101cd565b806323b872dd1461033557806324f763d91461035e5780632d296bf1146103875780632f745c59146103a3576101cd565b8063081812fc116101ab578063081812fc14610263578063095ea7b3146102a057806318160ddd146102c95780631f8276b8146102f4576101cd565b806301ffc9a7146101d257806303a80dfb1461020f57806306fdde0314610238575b600080fd5b3480156101de57600080fd5b506101f960048036038101906101f49190613848565b6107ce565b6040516102069190613890565b60405180910390f35b34801561021b57600080fd5b5061023660048036038101906102319190613a4f565b6107e0565b005b34801561024457600080fd5b5061024d610876565b60405161025a9190613b89565b60405180910390f35b34801561026f57600080fd5b5061028a60048036038101906102859190613be1565b610908565b6040516102979190613c1d565b60405180910390f35b3480156102ac57600080fd5b506102c760048036038101906102c29190613c38565b61094e565b005b3480156102d557600080fd5b506102de610a65565b6040516102eb9190613c87565b60405180910390f35b34801561030057600080fd5b5061031b60048036038101906103169190613ca2565b610a72565b60405161032c959493929190613d59565b60405180910390f35b34801561034157600080fd5b5061035c60048036038101906103579190613dac565b610af2565b005b34801561036a57600080fd5b5061038560048036038101906103809190613ca2565b610b52565b005b6103a1600480360381019061039c9190613be1565b610c58565b005b3480156103af57600080fd5b506103ca60048036038101906103c59190613c38565b610de9565b6040516103d79190613c87565b60405180910390f35b3480156103ec57600080fd5b5061040760048036038101906104029190613dac565b610e8e565b005b34801561041557600080fd5b50610430600480360381019061042b9190613be1565b610eae565b005b34801561043e57600080fd5b5061045960048036038101906104549190613be1565b610f0a565b6040516104669190613c87565b60405180910390f35b34801561047b57600080fd5b5061049660048036038101906104919190613be1565b610f7b565b6040516104a39190613f43565b60405180910390f35b3480156104b857600080fd5b506104d360048036038101906104ce9190613f65565b61109c565b6040516104e0919061415f565b60405180910390f35b3480156104f557600080fd5b50610510600480360381019061050b9190613be1565b6112f1565b60405161051d9190613c1d565b60405180910390f35b34801561053257600080fd5b5061054d60048036038101906105489190613be1565b611377565b60405161055c93929190614181565b60405180910390f35b34801561057157600080fd5b5061058c60048036038101906105879190613f65565b6114b1565b6040516105999190613c87565b60405180910390f35b3480156105ae57600080fd5b506105b7611568565b6040516105c4919061415f565b60405180910390f35b3480156105d957600080fd5b506105f460048036038101906105ef9190613ca2565b6117b9565b005b34801561060257600080fd5b5061060b6119b2565b6040516106189190613b89565b60405180910390f35b34801561062d57600080fd5b50610648600480360381019061064391906141f2565b611a44565b005b34801561065657600080fd5b50610671600480360381019061066c9190613ca2565b611a5a565b005b34801561067f57600080fd5b5061069a600480360381019061069591906142d3565b611c94565b005b3480156106a857600080fd5b506106c360048036038101906106be9190613be1565b611cf6565b6040516106d09190613b89565b60405180910390f35b3480156106e557600080fd5b5061070060048036038101906106fb9190613be1565b611d08565b60405161070e929190614356565b60405180910390f35b34801561072357600080fd5b5061073e60048036038101906107399190613be1565b611d2c565b60405161074b91906143e9565b60405180910390f35b34801561076057600080fd5b5061077b60048036038101906107769190613be1565b611ed3565b604051610788919061443a565b60405180910390f35b34801561079d57600080fd5b506107b860048036038101906107b39190614455565b611f14565b6040516107c59190613890565b60405180910390f35b60006107d982611fa8565b9050919050565b60006107ec600b612022565b90506107f8600b612030565b6108028582612046565b61080c8185612064565b42600f60008381526020019081526020016000206000018190555082600f6000838152602001908152602001600020600101908161084a91906146a1565b5081600f6000838152602001908152602001600020600201908161086e91906146a1565b505050505050565b606060008054610885906144c4565b80601f01602080910402602001604051908101604052809291908181526020018280546108b1906144c4565b80156108fe5780601f106108d3576101008083540402835291602001916108fe565b820191906000526020600020905b8154815290600101906020018083116108e157829003601f168201915b5050505050905090565b6000610913826120d1565b6004600083815260200190815260200160002060009054906101000a900473ffffffffffffffffffffffffffffffffffffffff169050919050565b6000610959826112f1565b90508073ffffffffffffffffffffffffffffffffffffffff168373ffffffffffffffffffffffffffffffffffffffff16036109c9576040517f08c379a00000000000000000000000000000000000000000000000000000000081526004016109c0906147e5565b60405180910390fd5b8073ffffffffffffffffffffffffffffffffffffffff166109e861211c565b73ffffffffffffffffffffffffffffffffffffffff161480610a175750610a1681610a1161211c565b611f14565b5b610a56576040517f08c379a0000000000000000000000000000000000000000000000000000000008152600401610a4d90614877565b60405180910390fd5b610a608383612124565b505050565b6000600880549050905090565b600d6020528160005260406000208181548110610a8e57600080fd5b9060005260206000209060050201600091509150508060000154908060010160009054906101000a900473ffffffffffffffffffffffffffffffffffffffff16908060020154908060030154908060040160009054906101000a900460ff16905085565b610b03610afd61211c565b826121dd565b610b42576040517f08c379a0000000000000000000000000000000000000000000000000000000008152600401610b3990614909565b60405180910390fd5b610b4d838383612272565b505050565b3373ffffffffffffffffffffffffffffffffffffffff16610b72836112f1565b73ffffffffffffffffffffffffffffffffffffffff1614610bc8576040517f08c379a0000000000000000000000000000000000000000000000000000000008152600401610bbf9061499b565b60405180910390fd5b60008111610c0b576040517f08c379a0000000000000000000000000000000000000000000000000000000008152600401610c0290614a07565b60405180910390fd5b610c15308361094e565b604051806040016040528082815260200142815250600e600084815260200190815260200160002060008201518160000155602082015181600101559050505050565b3373ffffffffffffffffffffffffffffffffffffffff16610c78826112f1565b73ffffffffffffffffffffffffffffffffffffffff1603610cce576040517f08c379a0000000000000000000000000000000000000000000000000000000008152600401610cc590614a73565b60405180910390fd5b6000600e60008381526020019081526020016000206000015411610d27576040517f08c379a0000000000000000000000000000000000000000000000000000000008152600401610d1e90614adf565b60405180910390fd5b600e600082815260200190815260200160002060000154341015610d80576040517f08c379a0000000000000000000000000000000000000000000000000000000008152600401610d7790614b71565b60405180910390fd5b6000610d8b826112f1565b90506000339050610d9d828285610e8e565b8173ffffffffffffffffffffffffffffffffffffffff166108fc349081150290604051600060405180830381858888f19350505050158015610de3573d6000803e3d6000fd5b50505050565b6000610df4836114b1565b8210610e35576040517f08c379a0000000000000000000000000000000000000000000000000000000008152600401610e2c90614c03565b60405180910390fd5b600660008473ffffffffffffffffffffffffffffffffffffffff1673ffffffffffffffffffffffffffffffffffffffff168152602001908152602001600020600083815260200190815260200160002054905092915050565b610ea983838360405180602001604052806000815250611c94565b505050565b610ebf610eb961211c565b826121dd565b610efe576040517f08c379a0000000000000000000000000000000000000000000000000000000008152600401610ef590614909565b60405180910390fd5b610f078161256b565b50565b6000610f14610a65565b8210610f55576040517f08c379a0000000000000000000000000000000000000000000000000000000008152600401610f4c90614c95565b60405180910390fd5b60088281548110610f6957610f68614cb5565b5b90600052602060002001549050919050565b6060600d6000838152602001908152602001600020805480602002602001604051908101604052809291908181526020016000905b8282101561109157838290600052602060002090600502016040518060a0016040529081600082015481526020016001820160009054906101000a900473ffffffffffffffffffffffffffffffffffffffff1673ffffffffffffffffffffffffffffffffffffffff1673ffffffffffffffffffffffffffffffffffffffff16815260200160028201548152602001600382015481526020016004820160009054906101000a900460ff16600281111561106c5761106b613ce2565b5b600281111561107e5761107d613ce2565b5b8152505081526020019060010190610fb0565b505050509050919050565b606060006110a9836114b1565b905060008167ffffffffffffffff8111156110c7576110c6613924565b5b60405190808252806020026020018201604052801561110057816020015b6110ed613700565b8152602001906001900390816110e55790505b50905060005b828110156112e657600061111a8683610de9565b90506000600f600083815260200190815260200160002060405180606001604052908160008201548152602001600182018054611156906144c4565b80601f0160208091040260200160405190810160405280929190818152602001828054611182906144c4565b80156111cf5780601f106111a4576101008083540402835291602001916111cf565b820191906000526020600020905b8154815290600101906020018083116111b257829003601f168201915b505050505081526020016002820180546111e8906144c4565b80601f0160208091040260200160405190810160405280929190818152602001828054611214906144c4565b80156112615780601f1061123657610100808354040283529160200191611261565b820191906000526020600020905b81548152906001019060200180831161124457829003601f168201915b5050505050815250509050604051806080016040528083815260200161128684611cf6565b8152602001611294846112f1565b73ffffffffffffffffffffffffffffffffffffffff168152602001828152508484815181106112c6576112c5614cb5565b5b6020026020010181905250505080806112de90614d13565b915050611106565b508092505050919050565b6000806112fd83612577565b9050600073ffffffffffffffffffffffffffffffffffffffff168173ffffffffffffffffffffffffffffffffffffffff160361136e576040517f08c379a000000000000000000000000000000000000000000000000000000000815260040161136590614da7565b60405180910390fd5b80915050919050565b600f6020528060005260406000206000915090508060000154908060010180546113a0906144c4565b80601f01602080910402602001604051908101604052809291908181526020018280546113cc906144c4565b80156114195780601f106113ee57610100808354040283529160200191611419565b820191906000526020600020905b8154815290600101906020018083116113fc57829003601f168201915b50505050509080600201805461142e906144c4565b80601f016020809104026020016040519081016040528092919081815260200182805461145a906144c4565b80156114a75780601f1061147c576101008083540402835291602001916114a7565b820191906000526020600020905b81548152906001019060200180831161148a57829003601f168201915b5050505050905083565b60008073ffffffffffffffffffffffffffffffffffffffff168273ffffffffffffffffffffffffffffffffffffffff1603611521576040517f08c379a000000000000000000000000000000000000000000000000000000000815260040161151890614e39565b60405180910390fd5b600360008373ffffffffffffffffffffffffffffffffffffffff1673ffffffffffffffffffffffffffffffffffffffff168152602001908152602001600020549050919050565b60606000611574610a65565b905060008167ffffffffffffffff81111561159257611591613924565b5b6040519080825280602002602001820160405280156115cb57816020015b6115b8613700565b8152602001906001900390816115b05790505b50905060005b828110156117b05760006115e482610f0a565b90506000600f600083815260200190815260200160002060405180606001604052908160008201548152602001600182018054611620906144c4565b80601f016020809104026020016040519081016040528092919081815260200182805461164c906144c4565b80156116995780601f1061166e57610100808354040283529160200191611699565b820191906000526020600020905b81548152906001019060200180831161167c57829003601f168201915b505050505081526020016002820180546116b2906144c4565b80601f01602080910402602001604051908101604052809291908181526020018280546116de906144c4565b801561172b5780601f106117005761010080835404028352916020019161172b565b820191906000526020600020905b81548152906001019060200180831161170e57829003601f168201915b5050505050815250509050604051806080016040528083815260200161175084611cf6565b815260200161175e846112f1565b73ffffffffffffffffffffffffffffffffffffffff168152602001828152508484815181106117905761178f614cb5565b5b6020026020010181905250505080806117a890614d13565b9150506115d1565b50809250505090565b3373ffffffffffffffffffffffffffffffffffffffff166117d9836112f1565b73ffffffffffffffffffffffffffffffffffffffff160361182f576040517f08c379a000000000000000000000000000000000000000000000000000000000815260040161182690614a73565b60405180910390fd5b60008111611872576040517f08c379a000000000000000000000000000000000000000000000000000000000815260040161186990614ea5565b60405180910390fd5b600061187e600c612022565b905061188a600c612030565b600d60008481526020019081526020016000206040518060a001604052808381526020013373ffffffffffffffffffffffffffffffffffffffff168152602001848152602001428152602001600060028111156118ea576118e9613ce2565b5b81525090806001815401808255809150506001900390600052602060002090600502016000909190919091506000820151816000015560208201518160010160006101000a81548173ffffffffffffffffffffffffffffffffffffffff021916908373ffffffffffffffffffffffffffffffffffffffff160217905550604082015181600201556060820151816003015560808201518160040160006101000a81548160ff021916908360028111156119a6576119a5613ce2565b5b02179055505050505050565b6060600180546119c1906144c4565b80601f01602080910402602001604051908101604052809291908181526020018280546119ed906144c4565b8015611a3a5780601f10611a0f57610100808354040283529160200191611a3a565b820191906000526020600020905b815481529060010190602001808311611a1d57829003601f168201915b5050505050905090565b611a56611a4f61211c565b83836125b4565b5050565b3373ffffffffffffffffffffffffffffffffffffffff16611a7a836112f1565b73ffffffffffffffffffffffffffffffffffffffff1614611ad0576040517f08c379a0000000000000000000000000000000000000000000000000000000008152600401611ac790614f37565b60405180910390fd5b6000600d6000848152602001908152602001600020905060005b8180549050811015611c8e5782828281548110611b0a57611b09614cb5565b5b90600052602060002090600502016000015403611c2d576001828281548110611b3657611b35614cb5565b5b906000526020600020906005020160040160006101000a81548160ff02191690836002811115611b6957611b68613ce2565b5b0217905550611bbd33838381548110611b8557611b84614cb5565b5b906000526020600020906005020160010160009054906101000a900473ffffffffffffffffffffffffffffffffffffffff1686610e8e565b3373ffffffffffffffffffffffffffffffffffffffff166108fc838381548110611bea57611be9614cb5565b5b9060005260206000209060050201600201549081150290604051600060405180830381858888f19350505050158015611c27573d6000803e3d6000fd5b50611c7b565b6002828281548110611c4257611c41614cb5565b5b906000526020600020906005020160040160006101000a81548160ff02191690836002811115611c7557611c74613ce2565b5b02179055505b8080611c8690614d13565b915050611aea565b50505050565b611ca5611c9f61211c565b836121dd565b611ce4576040517f08c379a0000000000000000000000000000000000000000000000000000000008152600401611cdb90614909565b60405180910390fd5b611cf084848484612720565b50505050565b6060611d018261277c565b9050919050565b600e6020528060005260406000206000915090508060000154908060010154905082565b611d34613700565b6000600f600084815260200190815260200160002060405180606001604052908160008201548152602001600182018054611d6e906144c4565b80601f0160208091040260200160405190810160405280929190818152602001828054611d9a906144c4565b8015611de75780601f10611dbc57610100808354040283529160200191611de7565b820191906000526020600020905b815481529060010190602001808311611dca57829003601f168201915b50505050508152602001600282018054611e00906144c4565b80601f0160208091040260200160405190810160405280929190818152602001828054611e2c906144c4565b8015611e795780601f10611e4e57610100808354040283529160200191611e79565b820191906000526020600020905b815481529060010190602001808311611e5c57829003601f168201915b50505050508152505090506040518060800160405280848152602001611e9e85611cf6565b8152602001611eac856112f1565b73ffffffffffffffffffffffffffffffffffffffff16815260200182815250915050919050565b611edb613744565b600e6000838152602001908152602001600020604051806040016040529081600082015481526020016001820154815250509050919050565b6000600560008473ffffffffffffffffffffffffffffffffffffffff1673ffffffffffffffffffffffffffffffffffffffff16815260200190815260200160002060008373ffffffffffffffffffffffffffffffffffffffff1673ffffffffffffffffffffffffffffffffffffffff16815260200190815260200160002060009054906101000a900460ff16905092915050565b60007f780e9d63000000000000000000000000000000000000000000000000000000007bffffffffffffffffffffffffffffffffffffffffffffffffffffffff1916827bffffffffffffffffffffffffffffffffffffffffffffffffffffffff1916148061201b575061201a8261288e565b5b9050919050565b600081600001549050919050565b6001816000016000828254019250508190555050565b612060828260405180602001604052806000815250612970565b5050565b61206d826129cb565b6120ac576040517f08c379a00000000000000000000000000000000000000000000000000000000081526004016120a390614fc9565b60405180910390fd5b80600a600084815260200190815260200160002090816120cc91906146a1565b505050565b6120da816129cb565b612119576040517f08c379a000000000000000000000000000000000000000000000000000000000815260040161211090614da7565b60405180910390fd5b50565b600033905090565b816004600083815260200190815260200160002060006101000a81548173ffffffffffffffffffffffffffffffffffffffff021916908373ffffffffffffffffffffffffffffffffffffffff160217905550808273ffffffffffffffffffffffffffffffffffffffff16612197836112f1565b73ffffffffffffffffffffffffffffffffffffffff167f8c5be1e5ebec7d5bd14f71427d1e84f3dd0314c0f7b2291e5b200ac8c7c3b92560405160405180910390a45050565b6000806121e9836112f1565b90508073ffffffffffffffffffffffffffffffffffffffff168473ffffffffffffffffffffffffffffffffffffffff16148061222b575061222a8185611f14565b5b8061226957508373ffffffffffffffffffffffffffffffffffffffff1661225184610908565b73ffffffffffffffffffffffffffffffffffffffff16145b91505092915050565b8273ffffffffffffffffffffffffffffffffffffffff16612292826112f1565b73ffffffffffffffffffffffffffffffffffffffff16146122e8576040517f08c379a00000000000000000000000000000000000000000000000000000000081526004016122df9061505b565b60405180910390fd5b600073ffffffffffffffffffffffffffffffffffffffff168273ffffffffffffffffffffffffffffffffffffffff1603612357576040517f08c379a000000000000000000000000000000000000000000000000000000000815260040161234e906150ed565b60405180910390fd5b6123648383836001612a0c565b8273ffffffffffffffffffffffffffffffffffffffff16612384826112f1565b73ffffffffffffffffffffffffffffffffffffffff16146123da576040517f08c379a00000000000000000000000000000000000000000000000000000000081526004016123d19061505b565b60405180910390fd5b6004600082815260200190815260200160002060006101000a81549073ffffffffffffffffffffffffffffffffffffffff02191690556001600360008573ffffffffffffffffffffffffffffffffffffffff1673ffffffffffffffffffffffffffffffffffffffff168152602001908152602001600020600082825403925050819055506001600360008473ffffffffffffffffffffffffffffffffffffffff1673ffffffffffffffffffffffffffffffffffffffff16815260200190815260200160002060008282540192505081905550816002600083815260200190815260200160002060006101000a81548173ffffffffffffffffffffffffffffffffffffffff021916908373ffffffffffffffffffffffffffffffffffffffff160217905550808273ffffffffffffffffffffffffffffffffffffffff168473ffffffffffffffffffffffffffffffffffffffff167fddf252ad1be2c89b69c2b068fc378daa952ba7f163c4a11628f55a4df523b3ef60405160405180910390a46125668383836001612a1e565b505050565b61257481612a24565b50565b60006002600083815260200190815260200160002060009054906101000a900473ffffffffffffffffffffffffffffffffffffffff169050919050565b8173ffffffffffffffffffffffffffffffffffffffff168373ffffffffffffffffffffffffffffffffffffffff1603612622576040517f08c379a000000000000000000000000000000000000000000000000000000000815260040161261990615159565b60405180910390fd5b80600560008573ffffffffffffffffffffffffffffffffffffffff1673ffffffffffffffffffffffffffffffffffffffff16815260200190815260200160002060008473ffffffffffffffffffffffffffffffffffffffff1673ffffffffffffffffffffffffffffffffffffffff16815260200190815260200160002060006101000a81548160ff0219169083151502179055508173ffffffffffffffffffffffffffffffffffffffff168373ffffffffffffffffffffffffffffffffffffffff167f17307eab39ab6107e8899845ad3d59bd9653f200f220920489ca2b5937696c31836040516127139190613890565b60405180910390a3505050565b61272b848484612272565b61273784848484612a77565b612776576040517f08c379a000000000000000000000000000000000000000000000000000000000815260040161276d906151eb565b60405180910390fd5b50505050565b6060612787826120d1565b6000600a600084815260200190815260200160002080546127a7906144c4565b80601f01602080910402602001604051908101604052809291908181526020018280546127d3906144c4565b80156128205780601f106127f557610100808354040283529160200191612820565b820191906000526020600020905b81548152906001019060200180831161280357829003601f168201915b505050505090506000612831612bfe565b90506000815103612846578192505050612889565b60008251111561287b578082604051602001612863929190615247565b60405160208183030381529060405292505050612889565b61288484612c15565b925050505b919050565b60007f80ac58cd000000000000000000000000000000000000000000000000000000007bffffffffffffffffffffffffffffffffffffffffffffffffffffffff1916827bffffffffffffffffffffffffffffffffffffffffffffffffffffffff1916148061295957507f5b5e139f000000000000000000000000000000000000000000000000000000007bffffffffffffffffffffffffffffffffffffffffffffffffffffffff1916827bffffffffffffffffffffffffffffffffffffffffffffffffffffffff1916145b80612969575061296882612c7d565b5b9050919050565b61297a8383612ce7565b6129876000848484612a77565b6129c6576040517f08c379a00000000000000000000000000000000000000000000000000000000081526004016129bd906151eb565b60405180910390fd5b505050565b60008073ffffffffffffffffffffffffffffffffffffffff166129ed83612577565b73ffffffffffffffffffffffffffffffffffffffff1614159050919050565b612a1884848484612f04565b50505050565b50505050565b612a2d81613062565b6000600a60008381526020019081526020016000208054612a4d906144c4565b905014612a7457600a60008281526020019081526020016000206000612a73919061375e565b5b50565b6000612a988473ffffffffffffffffffffffffffffffffffffffff166131b0565b15612bf1578373ffffffffffffffffffffffffffffffffffffffff1663150b7a02612ac161211c565b8786866040518563ffffffff1660e01b8152600401612ae394939291906152c0565b6020604051808303816000875af1925050508015612b1f57506040513d601f19601f82011682018060405250810190612b1c9190615321565b60015b612ba1573d8060008114612b4f576040519150601f19603f3d011682016040523d82523d6000602084013e612b54565b606091505b506000815103612b99576040517f08c379a0000000000000000000000000000000000000000000000000000000008152600401612b90906151eb565b60405180910390fd5b805181602001fd5b63150b7a0260e01b7bffffffffffffffffffffffffffffffffffffffffffffffffffffffff1916817bffffffffffffffffffffffffffffffffffffffffffffffffffffffff191614915050612bf6565b600190505b949350505050565b606060405180602001604052806000815250905090565b6060612c20826120d1565b6000612c2a612bfe565b90506000815111612c4a5760405180602001604052806000815250612c75565b80612c54846131d3565b604051602001612c65929190615247565b6040516020818303038152906040525b915050919050565b60007f01ffc9a7000000000000000000000000000000000000000000000000000000007bffffffffffffffffffffffffffffffffffffffffffffffffffffffff1916827bffffffffffffffffffffffffffffffffffffffffffffffffffffffff1916149050919050565b600073ffffffffffffffffffffffffffffffffffffffff168273ffffffffffffffffffffffffffffffffffffffff1603612d56576040517f08c379a0000000000000000000000000000000000000000000000000000000008152600401612d4d9061539a565b60405180910390fd5b612d5f816129cb565b15612d9f576040517f08c379a0000000000000000000000000000000000000000000000000000000008152600401612d9690615406565b60405180910390fd5b612dad600083836001612a0c565b612db6816129cb565b15612df6576040517f08c379a0000000000000000000000000000000000000000000000000000000008152600401612ded90615406565b60405180910390fd5b6001600360008473ffffffffffffffffffffffffffffffffffffffff1673ffffffffffffffffffffffffffffffffffffffff16815260200190815260200160002060008282540192505081905550816002600083815260200190815260200160002060006101000a81548173ffffffffffffffffffffffffffffffffffffffff021916908373ffffffffffffffffffffffffffffffffffffffff160217905550808273ffffffffffffffffffffffffffffffffffffffff16600073ffffffffffffffffffffffffffffffffffffffff167fddf252ad1be2c89b69c2b068fc378daa952ba7f163c4a11628f55a4df523b3ef60405160405180910390a4612f00600083836001612a1e565b5050565b612f10848484846132a1565b6001811115612f54576040517f08c379a0000000000000000000000000000000000000000000000000000000008152600401612f4b90615498565b60405180910390fd5b6000829050600073ffffffffffffffffffffffffffffffffffffffff168573ffffffffffffffffffffffffffffffffffffffff1603612f9b57612f96816132a7565b612fda565b8373ffffffffffffffffffffffffffffffffffffffff168573ffffffffffffffffffffffffffffffffffffffff1614612fd957612fd885826132f0565b5b5b600073ffffffffffffffffffffffffffffffffffffffff168473ffffffffffffffffffffffffffffffffffffffff160361301c576130178161345d565b61305b565b8473ffffffffffffffffffffffffffffffffffffffff168473ffffffffffffffffffffffffffffffffffffffff161461305a57613059848261352e565b5b5b5050505050565b600061306d826112f1565b905061307d816000846001612a0c565b613086826112f1565b90506004600083815260200190815260200160002060006101000a81549073ffffffffffffffffffffffffffffffffffffffff02191690556001600360008373ffffffffffffffffffffffffffffffffffffffff1673ffffffffffffffffffffffffffffffffffffffff168152602001908152602001600020600082825403925050819055506002600083815260200190815260200160002060006101000a81549073ffffffffffffffffffffffffffffffffffffffff021916905581600073ffffffffffffffffffffffffffffffffffffffff168273ffffffffffffffffffffffffffffffffffffffff167fddf252ad1be2c89b69c2b068fc378daa952ba7f163c4a11628f55a4df523b3ef60405160405180910390a46131ac816000846001612a1e565b5050565b6000808273ffffffffffffffffffffffffffffffffffffffff163b119050919050565b6060600060016131e2846135ad565b01905060008167ffffffffffffffff81111561320157613200613924565b5b6040519080825280601f01601f1916602001820160405280156132335781602001600182028036833780820191505090505b509050600082602001820190505b600115613296578080600190039150507f3031323334353637383961626364656600000000000000000000000000000000600a86061a8153600a858161328a576132896154b8565b5b04945060008503613241575b819350505050919050565b50505050565b6008805490506009600083815260200190815260200160002081905550600881908060018154018082558091505060019003906000526020600020016000909190919091505550565b600060016132fd846114b1565b61330791906154e7565b90506000600760008481526020019081526020016000205490508181146133ec576000600660008673ffffffffffffffffffffffffffffffffffffffff1673ffffffffffffffffffffffffffffffffffffffff168152602001908152602001600020600084815260200190815260200160002054905080600660008773ffffffffffffffffffffffffffffffffffffffff1673ffffffffffffffffffffffffffffffffffffffff168152602001908152602001600020600084815260200190815260200160002081905550816007600083815260200190815260200160002081905550505b6007600084815260200190815260200160002060009055600660008573ffffffffffffffffffffffffffffffffffffffff1673ffffffffffffffffffffffffffffffffffffffff16815260200190815260200160002060008381526020019081526020016000206000905550505050565b6000600160088054905061347191906154e7565b90506000600960008481526020019081526020016000205490506000600883815481106134a1576134a0614cb5565b5b9060005260206000200154905080600883815481106134c3576134c2614cb5565b5b9060005260206000200181905550816009600083815260200190815260200160002081905550600960008581526020019081526020016000206000905560088054806135125761351161551b565b5b6001900381819060005260206000200160009055905550505050565b6000613539836114b1565b905081600660008573ffffffffffffffffffffffffffffffffffffffff1673ffffffffffffffffffffffffffffffffffffffff168152602001908152602001600020600083815260200190815260200160002081905550806007600084815260200190815260200160002081905550505050565b600080600090507a184f03e93ff9f4daa797ed6e38ed64bf6a1f010000000000000000831061360b577a184f03e93ff9f4daa797ed6e38ed64bf6a1f0100000000000000008381613601576136006154b8565b5b0492506040810190505b6d04ee2d6d415b85acef81000000008310613648576d04ee2d6d415b85acef8100000000838161363e5761363d6154b8565b5b0492506020810190505b662386f26fc10000831061367757662386f26fc10000838161366d5761366c6154b8565b5b0492506010810190505b6305f5e10083106136a0576305f5e1008381613696576136956154b8565b5b0492506008810190505b61271083106136c55761271083816136bb576136ba6154b8565b5b0492506004810190505b606483106136e857606483816136de576136dd6154b8565b5b0492506002810190505b600a83106136f7576001810190505b80915050919050565b60405180608001604052806000815260200160608152602001600073ffffffffffffffffffffffffffffffffffffffff16815260200161373e61379e565b81525090565b604051806040016040528060008152602001600081525090565b50805461376a906144c4565b6000825580601f1061377c575061379b565b601f01602090049060005260206000209081019061379a91906137bf565b5b50565b60405180606001604052806000815260200160608152602001606081525090565b5b808211156137d85760008160009055506001016137c0565b5090565b6000604051905090565b600080fd5b600080fd5b60007fffffffff0000000000000000000000000000000000000000000000000000000082169050919050565b613825816137f0565b811461383057600080fd5b50565b6000813590506138428161381c565b92915050565b60006020828403121561385e5761385d6137e6565b5b600061386c84828501613833565b91505092915050565b60008115159050919050565b61388a81613875565b82525050565b60006020820190506138a56000830184613881565b92915050565b600073ffffffffffffffffffffffffffffffffffffffff82169050919050565b60006138d6826138ab565b9050919050565b6138e6816138cb565b81146138f157600080fd5b50565b600081359050613903816138dd565b92915050565b600080fd5b600080fd5b6000601f19601f8301169050919050565b7f4e487b7100000000000000000000000000000000000000000000000000000000600052604160045260246000fd5b61395c82613913565b810181811067ffffffffffffffff8211171561397b5761397a613924565b5b80604052505050565b600061398e6137dc565b905061399a8282613953565b919050565b600067ffffffffffffffff8211156139ba576139b9613924565b5b6139c382613913565b9050602081019050919050565b82818337600083830152505050565b60006139f26139ed8461399f565b613984565b905082815260208101848484011115613a0e57613a0d61390e565b5b613a198482856139d0565b509392505050565b600082601f830112613a3657613a35613909565b5b8135613a468482602086016139df565b91505092915050565b60008060008060808587031215613a6957613a686137e6565b5b6000613a77878288016138f4565b945050602085013567ffffffffffffffff811115613a9857613a976137eb565b5b613aa487828801613a21565b935050604085013567ffffffffffffffff811115613ac557613ac46137eb565b5b613ad187828801613a21565b925050606085013567ffffffffffffffff811115613af257613af16137eb565b5b613afe87828801613a21565b91505092959194509250565b600081519050919050565b600082825260208201905092915050565b60005b83811015613b44578082015181840152602081019050613b29565b60008484015250505050565b6000613b5b82613b0a565b613b658185613b15565b9350613b75818560208601613b26565b613b7e81613913565b840191505092915050565b60006020820190508181036000830152613ba38184613b50565b905092915050565b6000819050919050565b613bbe81613bab565b8114613bc957600080fd5b50565b600081359050613bdb81613bb5565b92915050565b600060208284031215613bf757613bf66137e6565b5b6000613c0584828501613bcc565b91505092915050565b613c17816138cb565b82525050565b6000602082019050613c326000830184613c0e565b92915050565b60008060408385031215613c4f57613c4e6137e6565b5b6000613c5d858286016138f4565b9250506020613c6e85828601613bcc565b9150509250929050565b613c8181613bab565b82525050565b6000602082019050613c9c6000830184613c78565b92915050565b60008060408385031215613cb957613cb86137e6565b5b6000613cc785828601613bcc565b9250506020613cd885828601613bcc565b9150509250929050565b7f4e487b7100000000000000000000000000000000000000000000000000000000600052602160045260246000fd5b60038110613d2257613d21613ce2565b5b50565b6000819050613d3382613d11565b919050565b6000613d4382613d25565b9050919050565b613d5381613d38565b82525050565b600060a082019050613d6e6000830188613c78565b613d7b6020830187613c0e565b613d886040830186613c78565b613d956060830185613c78565b613da26080830184613d4a565b9695505050505050565b600080600060608486031215613dc557613dc46137e6565b5b6000613dd3868287016138f4565b9350506020613de4868287016138f4565b9250506040613df586828701613bcc565b9150509250925092565b600081519050919050565b600082825260208201905092915050565b6000819050602082019050919050565b613e3481613bab565b82525050565b613e43816138cb565b82525050565b613e5281613d38565b82525050565b60a082016000820151613e6e6000850182613e2b565b506020820151613e816020850182613e3a565b506040820151613e946040850182613e2b565b506060820151613ea76060850182613e2b565b506080820151613eba6080850182613e49565b50505050565b6000613ecc8383613e58565b60a08301905092915050565b6000602082019050919050565b6000613ef082613dff565b613efa8185613e0a565b9350613f0583613e1b565b8060005b83811015613f36578151613f1d8882613ec0565b9750613f2883613ed8565b925050600181019050613f09565b5085935050505092915050565b60006020820190508181036000830152613f5d8184613ee5565b905092915050565b600060208284031215613f7b57613f7a6137e6565b5b6000613f89848285016138f4565b91505092915050565b600081519050919050565b600082825260208201905092915050565b6000819050602082019050919050565b600082825260208201905092915050565b6000613fda82613b0a565b613fe48185613fbe565b9350613ff4818560208601613b26565b613ffd81613913565b840191505092915050565b60006060830160008301516140206000860182613e2b565b50602083015184820360208601526140388282613fcf565b915050604083015184820360408601526140528282613fcf565b9150508091505092915050565b60006080830160008301516140776000860182613e2b565b506020830151848203602086015261408f8282613fcf565b91505060408301516140a46040860182613e3a565b50606083015184820360608601526140bc8282614008565b9150508091505092915050565b60006140d5838361405f565b905092915050565b6000602082019050919050565b60006140f582613f92565b6140ff8185613f9d565b93508360208202850161411185613fae565b8060005b8581101561414d578484038952815161412e85826140c9565b9450614139836140dd565b925060208a01995050600181019050614115565b50829750879550505050505092915050565b6000602082019050818103600083015261417981846140ea565b905092915050565b60006060820190506141966000830186613c78565b81810360208301526141a88185613b50565b905081810360408301526141bc8184613b50565b9050949350505050565b6141cf81613875565b81146141da57600080fd5b50565b6000813590506141ec816141c6565b92915050565b60008060408385031215614209576142086137e6565b5b6000614217858286016138f4565b9250506020614228858286016141dd565b9150509250929050565b600067ffffffffffffffff82111561424d5761424c613924565b5b61425682613913565b9050602081019050919050565b600061427661427184614232565b613984565b9050828152602081018484840111156142925761429161390e565b5b61429d8482856139d0565b509392505050565b600082601f8301126142ba576142b9613909565b5b81356142ca848260208601614263565b91505092915050565b600080600080608085870312156142ed576142ec6137e6565b5b60006142fb878288016138f4565b945050602061430c878288016138f4565b935050604061431d87828801613bcc565b925050606085013567ffffffffffffffff81111561433e5761433d6137eb565b5b61434a878288016142a5565b91505092959194509250565b600060408201905061436b6000830185613c78565b6143786020830184613c78565b9392505050565b60006080830160008301516143976000860182613e2b565b50602083015184820360208601526143af8282613fcf565b91505060408301516143c46040860182613e3a565b50606083015184820360608601526143dc8282614008565b9150508091505092915050565b60006020820190508181036000830152614403818461437f565b905092915050565b6040820160008201516144216000850182613e2b565b5060208201516144346020850182613e2b565b50505050565b600060408201905061444f600083018461440b565b92915050565b6000806040838503121561446c5761446b6137e6565b5b600061447a858286016138f4565b925050602061448b858286016138f4565b9150509250929050565b7f4e487b7100000000000000000000000000000000000000000000000000000000600052602260045260246000fd5b600060028204905060018216806144dc57607f821691505b6020821081036144ef576144ee614495565b5b50919050565b60008190508160005260206000209050919050565b60006020601f8301049050919050565b600082821b905092915050565b6000600883026145577fffffffffffffffffffffffffffffffffffffffffffffffffffffffffffffffff8261451a565b614561868361451a565b95508019841693508086168417925050509392505050565b6000819050919050565b600061459e61459961459484613bab565b614579565b613bab565b9050919050565b6000819050919050565b6145b883614583565b6145cc6145c4826145a5565b848454614527565b825550505050565b600090565b6145e16145d4565b6145ec8184846145af565b505050565b5b81811015614610576146056000826145d9565b6001810190506145f2565b5050565b601f82111561465557614626816144f5565b61462f8461450a565b8101602085101561463e578190505b61465261464a8561450a565b8301826145f1565b50505b505050565b600082821c905092915050565b60006146786000198460080261465a565b1980831691505092915050565b60006146918383614667565b9150826002028217905092915050565b6146aa82613b0a565b67ffffffffffffffff8111156146c3576146c2613924565b5b6146cd82546144c4565b6146d8828285614614565b600060209050601f83116001811461470b57600084156146f9578287015190505b6147038582614685565b86555061476b565b601f198416614719866144f5565b60005b828110156147415784890151825560018201915060208501945060208101905061471c565b8683101561475e578489015161475a601f891682614667565b8355505b6001600288020188555050505b505050505050565b7f4552433732313a20617070726f76616c20746f2063757272656e74206f776e6560008201527f7200000000000000000000000000000000000000000000000000000000000000602082015250565b60006147cf602183613b15565b91506147da82614773565b604082019050919050565b600060208201905081810360008301526147fe816147c2565b9050919050565b7f4552433732313a20617070726f76652063616c6c6572206973206e6f7420746f60008201527f6b656e206f776e6572206f7220617070726f76656420666f7220616c6c000000602082015250565b6000614861603d83613b15565b915061486c82614805565b604082019050919050565b6000602082019050818103600083015261489081614854565b9050919050565b7f4552433732313a2063616c6c6572206973206e6f7420746f6b656e206f776e6560008201527f72206f7220617070726f76656400000000000000000000000000000000000000602082015250565b60006148f3602d83613b15565b91506148fe82614897565b604082019050919050565b60006020820190508181036000830152614922816148e6565b9050919050565b7f596f752063616e6e6f742073656c6c204e465473207468617420796f7520646f60008201527f206e6f74206f776e000000000000000000000000000000000000000000000000602082015250565b6000614985602883613b15565b915061499082614929565b604082019050919050565b600060208201905081810360008301526149b481614978565b9050919050565b7f5072696365206d7573742062652067726561746572207468616e203000000000600082015250565b60006149f1601c83613b15565b91506149fc826149bb565b602082019050919050565b60006020820190508181036000830152614a20816149e4565b9050919050565b7f596f752063616e6e6f742062757920796f7572206f776e204e46540000000000600082015250565b6000614a5d601b83613b15565b9150614a6882614a27565b602082019050919050565b60006020820190508181036000830152614a8c81614a50565b9050919050565b7f54686973204e4654206973206e6f7420666f722073616c650000000000000000600082015250565b6000614ac9601883613b15565b9150614ad482614a93565b602082019050919050565b60006020820190508181036000830152614af881614abc565b9050919050565b7f596f75206d7573742073656e6420656e6f7567682045544820746f206275792060008201527f74686973204e4654000000000000000000000000000000000000000000000000602082015250565b6000614b5b602883613b15565b9150614b6682614aff565b604082019050919050565b60006020820190508181036000830152614b8a81614b4e565b9050919050565b7f455243373231456e756d657261626c653a206f776e657220696e646578206f7560008201527f74206f6620626f756e6473000000000000000000000000000000000000000000602082015250565b6000614bed602b83613b15565b9150614bf882614b91565b604082019050919050565b60006020820190508181036000830152614c1c81614be0565b9050919050565b7f455243373231456e756d657261626c653a20676c6f62616c20696e646578206f60008201527f7574206f6620626f756e64730000000000000000000000000000000000000000602082015250565b6000614c7f602c83613b15565b9150614c8a82614c23565b604082019050919050565b60006020820190508181036000830152614cae81614c72565b9050919050565b7f4e487b7100000000000000000000000000000000000000000000000000000000600052603260045260246000fd5b7f4e487b7100000000000000000000000000000000000000000000000000000000600052601160045260246000fd5b6000614d1e82613bab565b91507fffffffffffffffffffffffffffffffffffffffffffffffffffffffffffffffff8203614d5057614d4f614ce4565b5b600182019050919050565b7f4552433732313a20696e76616c696420746f6b656e2049440000000000000000600082015250565b6000614d91601883613b15565b9150614d9c82614d5b565b602082019050919050565b60006020820190508181036000830152614dc081614d84565b9050919050565b7f4552433732313a2061646472657373207a65726f206973206e6f74206120766160008201527f6c6964206f776e65720000000000000000000000000000000000000000000000602082015250565b6000614e23602983613b15565b9150614e2e82614dc7565b604082019050919050565b60006020820190508181036000830152614e5281614e16565b9050919050565b7f4f66666572206d7573742062652067726561746572207468616e203000000000600082015250565b6000614e8f601c83613b15565b9150614e9a82614e59565b602082019050919050565b60006020820190508181036000830152614ebe81614e82565b9050919050565b7f596f752063616e6e6f742061636365707420627579696e67207265717565737460008201527f7320666f72204e465473207468617420796f7520646f206e6f74206f776e0000602082015250565b6000614f21603e83613b15565b9150614f2c82614ec5565b604082019050919050565b60006020820190508181036000830152614f5081614f14565b9050919050565b7f45524337323155524953746f726167653a2055524920736574206f66206e6f6e60008201527f6578697374656e7420746f6b656e000000000000000000000000000000000000602082015250565b6000614fb3602e83613b15565b9150614fbe82614f57565b604082019050919050565b60006020820190508181036000830152614fe281614fa6565b9050919050565b7f4552433732313a207472616e736665722066726f6d20696e636f72726563742060008201527f6f776e6572000000000000000000000000000000000000000000000000000000602082015250565b6000615045602583613b15565b915061505082614fe9565b604082019050919050565b6000602082019050818103600083015261507481615038565b9050919050565b7f4552433732313a207472616e7366657220746f20746865207a65726f2061646460008201527f7265737300000000000000000000000000000000000000000000000000000000602082015250565b60006150d7602483613b15565b91506150e28261507b565b604082019050919050565b60006020820190508181036000830152615106816150ca565b9050919050565b7f4552433732313a20617070726f766520746f2063616c6c657200000000000000600082015250565b6000615143601983613b15565b915061514e8261510d565b602082019050919050565b6000602082019050818103600083015261517281615136565b9050919050565b7f4552433732313a207472616e7366657220746f206e6f6e20455243373231526560008201527f63656976657220696d706c656d656e7465720000000000000000000000000000602082015250565b60006151d5603283613b15565b91506151e082615179565b604082019050919050565b60006020820190508181036000830152615204816151c8565b9050919050565b600081905092915050565b600061522182613b0a565b61522b818561520b565b935061523b818560208601613b26565b80840191505092915050565b60006152538285615216565b915061525f8284615216565b91508190509392505050565b600081519050919050565b600082825260208201905092915050565b60006152928261526b565b61529c8185615276565b93506152ac818560208601613b26565b6152b581613913565b840191505092915050565b60006080820190506152d56000830187613c0e565b6152e26020830186613c0e565b6152ef6040830185613c78565b81810360608301526153018184615287565b905095945050505050565b60008151905061531b8161381c565b92915050565b600060208284031215615337576153366137e6565b5b60006153458482850161530c565b91505092915050565b7f4552433732313a206d696e7420746f20746865207a65726f2061646472657373600082015250565b6000615384602083613b15565b915061538f8261534e565b602082019050919050565b600060208201905081810360008301526153b381615377565b9050919050565b7f4552433732313a20746f6b656e20616c7265616479206d696e74656400000000600082015250565b60006153f0601c83613b15565b91506153fb826153ba565b602082019050919050565b6000602082019050818103600083015261541f816153e3565b9050919050565b7f455243373231456e756d657261626c653a20636f6e736563757469766520747260008201527f616e7366657273206e6f7420737570706f727465640000000000000000000000602082015250565b6000615482603583613b15565b915061548d82615426565b604082019050919050565b600060208201905081810360008301526154b181615475565b9050919050565b7f4e487b7100000000000000000000000000000000000000000000000000000000600052601260045260246000fd5b60006154f282613bab565b91506154fd83613bab565b925082820390508181111561551557615514614ce4565b5b92915050565b7f4e487b7100000000000000000000000000000000000000000000000000000000600052603160045260246000fdfea2646970667358221220f6448333b0bc5c0e8e382458f9d3c30c5b3acf59c0a7ae784ad95bc76f59c47c64736f6c63430008130033",
  "linkReferences": {},
  "deployedLinkReferences": {}
}