{
  "_format": "hh-sol-artifact-1",
  "contractName": "Encode",
  "sourceName": "contracts/Encode.sol",
  "abi": [
    {
      "inputs": [],
      "stateMutability": "nonpayable",
      "type": "constructor"
    },
    {
      "anonymous": false,
      "inputs": [
        {
          "indexed": true,
          "internalType": "address",
          "name": "owner",
          "type": "address"
        },
        {
          "indexed": true,
          "internalType": "address",
          "name": "approved",
          "type": "address"
        },
        {
          "indexed": true,
          "internalType": "uint256",
          "name": "tokenId",
          "type": "uint256"
        }
      ],
      "name": "Approval",
      "type": "event"
    },
    {
      "anonymous": false,
      "inputs": [
        {
          "indexed": true,
          "internalType": "address",
          "name": "owner",
          "type": "address"
        },
        {
          "indexed": true,
          "internalType": "address",
          "name": "operator",
          "type": "address"
        },
        {
          "indexed": false,
          "internalType": "bool",
          "name": "approved",
          "type": "bool"
        }
      ],
      "name": "ApprovalForAll",
      "type": "event"
    },
    {
      "anonymous": false,
      "inputs": [
        {
          "indexed": true,
          "internalType": "address",
          "name": "from",
          "type": "address"
        },
        {
          "indexed": true,
          "internalType": "address",
          "name": "to",
          "type": "address"
        },
        {
          "indexed": true,
          "internalType": "uint256",
          "name": "tokenId",
          "type": "uint256"
        }
      ],
      "name": "Transfer",
      "type": "event"
    },
    {
      "inputs": [
        {
          "internalType": "uint256",
          "name": "tokenId",
          "type": "uint256"
        },
        {
          "internalType": "uint256",
          "name": "requestId",
          "type": "uint256"
        }
      ],
      "name": "acceptBuyingRequest",
      "outputs": [],
      "stateMutability": "nonpayable",
      "type": "function"
    },
    {
      "inputs": [
        {
          "internalType": "address",
          "name": "to",
          "type": "address"
        },
        {
          "internalType": "uint256",
          "name": "tokenId",
          "type": "uint256"
        }
      ],
      "name": "approve",
      "outputs": [],
      "stateMutability": "nonpayable",
      "type": "function"
    },
    {
      "inputs": [
        {
          "internalType": "address",
          "name": "owner",
          "type": "address"
        }
      ],
      "name": "balanceOf",
      "outputs": [
        {
          "internalType": "uint256",
          "name": "",
          "type": "uint256"
        }
      ],
      "stateMutability": "view",
      "type": "function"
    },
    {
      "inputs": [
        {
          "internalType": "uint256",
          "name": "tokenId",
          "type": "uint256"
        }
      ],
      "name": "burn",
      "outputs": [],
      "stateMutability": "nonpayable",
      "type": "function"
    },
    {
      "inputs": [
        {
          "internalType": "uint256",
          "name": "tokenId",
          "type": "uint256"
        }
      ],
      "name": "buyToken",
      "outputs": [],
      "stateMutability": "payable",
      "type": "function"
    },
    {
      "inputs": [
        {
          "internalType": "uint256",
          "name": "",
          "type": "uint256"
        },
        {
          "internalType": "uint256",
          "name": "",
          "type": "uint256"
        }
      ],
      "name": "buyingRequests",
      "outputs": [
        {
          "internalType": "uint256",
          "name": "id",
          "type": "uint256"
        },
        {
          "internalType": "address",
          "name": "buyer",
          "type": "address"
        },
        {
          "internalType": "uint256",
          "name": "offer",
          "type": "uint256"
        },
        {
          "internalType": "uint256",
          "name": "timestamp",
          "type": "uint256"
        },
        {
          "internalType": "enum Encode.BuyingRequestStatus",
          "name": "status",
          "type": "uint8"
        }
      ],
      "stateMutability": "view",
      "type": "function"
    },
    {
      "inputs": [
        {
          "internalType": "uint256",
          "name": "tokenId",
          "type": "uint256"
        }
      ],
      "name": "createBuyingRequest",
      "outputs": [],
      "stateMutability": "payable",
      "type": "function"
    },
    {
      "inputs": [
        {
          "internalType": "uint256",
          "name": "tokenId",
          "type": "uint256"
        },
        {
          "internalType": "uint256",
          "name": "price",
          "type": "uint256"
        }
      ],
      "name": "createSellingListing",
      "outputs": [],
      "stateMutability": "nonpayable",
      "type": "function"
    },
    {
      "inputs": [
        {
          "internalType": "uint256",
          "name": "tokenId",
          "type": "uint256"
        }
      ],
      "name": "getApproved",
      "outputs": [
        {
          "internalType": "address",
          "name": "",
          "type": "address"
        }
      ],
      "stateMutability": "view",
      "type": "function"
    },
    {
      "inputs": [
        {
          "internalType": "uint256",
          "name": "tokenId",
          "type": "uint256"
        }
      ],
      "name": "getBuyingRequests",
      "outputs": [
        {
          "components": [
            {
              "internalType": "uint256",
              "name": "id",
              "type": "uint256"
            },
            {
              "internalType": "address",
              "name": "buyer",
              "type": "address"
            },
            {
              "internalType": "uint256",
              "name": "offer",
              "type": "uint256"
            },
            {
              "internalType": "uint256",
              "name": "timestamp",
              "type": "uint256"
            },
            {
              "internalType": "enum Encode.BuyingRequestStatus",
              "name": "status",
              "type": "uint8"
            }
          ],
          "internalType": "struct Encode.BuyingRequest[]",
          "name": "",
          "type": "tuple[]"
        }
      ],
      "stateMutability": "view",
      "type": "function"
    },
    {
      "inputs": [
        {
          "internalType": "uint256",
          "name": "tokenId",
          "type": "uint256"
        }
      ],
      "name": "getSellingListings",
      "outputs": [
        {
          "components": [
            {
              "internalType": "uint256",
              "name": "price",
              "type": "uint256"
            },
            {
              "internalType": "uint256",
              "name": "timestamp",
              "type": "uint256"
            }
          ],
          "internalType": "struct Encode.SellingListing",
          "name": "",
          "type": "tuple"
        }
      ],
      "stateMutability": "view",
      "type": "function"
    },
    {
      "inputs": [
        {
          "internalType": "uint256",
          "name": "tokenId",
          "type": "uint256"
        }
      ],
      "name": "getToken",
      "outputs": [
        {
          "components": [
            {
              "internalType": "uint256",
              "name": "id",
              "type": "uint256"
            },
            {
              "internalType": "string",
              "name": "uri",
              "type": "string"
            },
            {
              "internalType": "address",
              "name": "owner",
              "type": "address"
            },
            {
              "components": [
                {
                  "internalType": "uint256",
                  "name": "creationDate",
                  "type": "uint256"
                },
                {
                  "internalType": "string",
                  "name": "title",
                  "type": "string"
                },
                {
                  "internalType": "string",
                  "name": "description",
                  "type": "string"
                }
              ],
              "internalType": "struct Encode.TokenMetadata",
              "name": "metadata",
              "type": "tuple"
            }
          ],
          "internalType": "struct Encode.TokenInfo",
          "name": "",
          "type": "tuple"
        }
      ],
      "stateMutability": "view",
      "type": "function"
    },
    {
      "inputs": [
        {
          "internalType": "address",
          "name": "addr",
          "type": "address"
        }
      ],
      "name": "getTokensOfOwner",
      "outputs": [
        {
          "components": [
            {
              "internalType": "uint256",
              "name": "id",
              "type": "uint256"
            },
            {
              "internalType": "string",
              "name": "uri",
              "type": "string"
            },
            {
              "internalType": "address",
              "name": "owner",
              "type": "address"
            },
            {
              "components": [
                {
                  "internalType": "uint256",
                  "name": "creationDate",
                  "type": "uint256"
                },
                {
                  "internalType": "string",
                  "name": "title",
                  "type": "string"
                },
                {
                  "internalType": "string",
                  "name": "description",
                  "type": "string"
                }
              ],
              "internalType": "struct Encode.TokenMetadata",
              "name": "metadata",
              "type": "tuple"
            }
          ],
          "internalType": "struct Encode.TokenInfo[]",
          "name": "",
          "type": "tuple[]"
        }
      ],
      "stateMutability": "view",
      "type": "function"
    },
    {
      "inputs": [
        {
          "internalType": "address",
          "name": "owner",
          "type": "address"
        },
        {
          "internalType": "address",
          "name": "operator",
          "type": "address"
        }
      ],
      "name": "isApprovedForAll",
      "outputs": [
        {
          "internalType": "bool",
          "name": "",
          "type": "bool"
        }
      ],
      "stateMutability": "view",
      "type": "function"
    },
    {
      "inputs": [],
      "name": "listTokens",
      "outputs": [
        {
          "components": [
            {
              "internalType": "uint256",
              "name": "id",
              "type": "uint256"
            },
            {
              "internalType": "string",
              "name": "uri",
              "type": "string"
            },
            {
              "internalType": "address",
              "name": "owner",
              "type": "address"
            },
            {
              "components": [
                {
                  "internalType": "uint256",
                  "name": "creationDate",
                  "type": "uint256"
                },
                {
                  "internalType": "string",
                  "name": "title",
                  "type": "string"
                },
                {
                  "internalType": "string",
                  "name": "description",
                  "type": "string"
                }
              ],
              "internalType": "struct Encode.TokenMetadata",
              "name": "metadata",
              "type": "tuple"
            }
          ],
          "internalType": "struct Encode.TokenInfo[]",
          "name": "",
          "type": "tuple[]"
        }
      ],
      "stateMutability": "view",
      "type": "function"
    },
    {
      "inputs": [],
      "name": "name",
      "outputs": [
        {
          "internalType": "string",
          "name": "",
          "type": "string"
        }
      ],
      "stateMutability": "view",
      "type": "function"
    },
    {
      "inputs": [
        {
          "internalType": "uint256",
          "name": "tokenId",
          "type": "uint256"
        }
      ],
      "name": "ownerOf",
      "outputs": [
        {
          "internalType": "address",
          "name": "",
          "type": "address"
        }
      ],
      "stateMutability": "view",
      "type": "function"
    },
    {
      "inputs": [
        {
          "internalType": "address",
          "name": "to",
          "type": "address"
        },
        {
          "internalType": "string",
          "name": "uri",
          "type": "string"
        },
        {
          "internalType": "string",
          "name": "title",
          "type": "string"
        },
        {
          "internalType": "string",
          "name": "description",
          "type": "string"
        }
      ],
      "name": "safeMint",
      "outputs": [],
      "stateMutability": "nonpayable",
      "type": "function"
    },
    {
      "inputs": [
        {
          "internalType": "address",
          "name": "from",
          "type": "address"
        },
        {
          "internalType": "address",
          "name": "to",
          "type": "address"
        },
        {
          "internalType": "uint256",
          "name": "tokenId",
          "type": "uint256"
        }
      ],
      "name": "safeTransferFrom",
      "outputs": [],
      "stateMutability": "nonpayable",
      "type": "function"
    },
    {
      "inputs": [
        {
          "internalType": "address",
          "name": "from",
          "type": "address"
        },
        {
          "internalType": "address",
          "name": "to",
          "type": "address"
        },
        {
          "internalType": "uint256",
          "name": "tokenId",
          "type": "uint256"
        },
        {
          "internalType": "bytes",
          "name": "data",
          "type": "bytes"
        }
      ],
      "name": "safeTransferFrom",
      "outputs": [],
      "stateMutability": "nonpayable",
      "type": "function"
    },
    {
      "inputs": [
        {
          "internalType": "uint256",
          "name": "",
          "type": "uint256"
        }
      ],
      "name": "sellingListing",
      "outputs": [
        {
          "internalType": "uint256",
          "name": "price",
          "type": "uint256"
        },
        {
          "internalType": "uint256",
          "name": "timestamp",
          "type": "uint256"
        }
      ],
      "stateMutability": "view",
      "type": "function"
    },
    {
      "inputs": [
        {
          "internalType": "address",
          "name": "operator",
          "type": "address"
        },
        {
          "internalType": "bool",
          "name": "approved",
          "type": "bool"
        }
      ],
      "name": "setApprovalForAll",
      "outputs": [],
      "stateMutability": "nonpayable",
      "type": "function"
    },
    {
      "inputs": [
        {
          "internalType": "bytes4",
          "name": "interfaceId",
          "type": "bytes4"
        }
      ],
      "name": "supportsInterface",
      "outputs": [
        {
          "internalType": "bool",
          "name": "",
          "type": "bool"
        }
      ],
      "stateMutability": "view",
      "type": "function"
    },
    {
      "inputs": [],
      "name": "symbol",
      "outputs": [
        {
          "internalType": "string",
          "name": "",
          "type": "string"
        }
      ],
      "stateMutability": "view",
      "type": "function"
    },
    {
      "inputs": [
        {
          "internalType": "uint256",
          "name": "index",
          "type": "uint256"
        }
      ],
      "name": "tokenByIndex",
      "outputs": [
        {
          "internalType": "uint256",
          "name": "",
          "type": "uint256"
        }
      ],
      "stateMutability": "view",
      "type": "function"
    },
    {
      "inputs": [
        {
          "internalType": "uint256",
          "name": "",
          "type": "uint256"
        }
      ],
      "name": "tokenMetadata",
      "outputs": [
        {
          "internalType": "uint256",
          "name": "creationDate",
          "type": "uint256"
        },
        {
          "internalType": "string",
          "name": "title",
          "type": "string"
        },
        {
          "internalType": "string",
          "name": "description",
          "type": "string"
        }
      ],
      "stateMutability": "view",
      "type": "function"
    },
    {
      "inputs": [
        {
          "internalType": "address",
          "name": "owner",
          "type": "address"
        },
        {
          "internalType": "uint256",
          "name": "index",
          "type": "uint256"
        }
      ],
      "name": "tokenOfOwnerByIndex",
      "outputs": [
        {
          "internalType": "uint256",
          "name": "",
          "type": "uint256"
        }
      ],
      "stateMutability": "view",
      "type": "function"
    },
    {
      "inputs": [
        {
          "internalType": "uint256",
          "name": "tokenId",
          "type": "uint256"
        }
      ],
      "name": "tokenURI",
      "outputs": [
        {
          "internalType": "string",
          "name": "",
          "type": "string"
        }
      ],
      "stateMutability": "view",
      "type": "function"
    },
    {
      "inputs": [],
      "name": "totalSupply",
      "outputs": [
        {
          "internalType": "uint256",
          "name": "",
          "type": "uint256"
        }
      ],
      "stateMutability": "view",
      "type": "function"
    },
    {
      "inputs": [
        {
          "internalType": "address",
          "name": "from",
          "type": "address"
        },
        {
          "internalType": "address",
          "name": "to",
          "type": "address"
        },
        {
          "internalType": "uint256",
          "name": "tokenId",
          "type": "uint256"
        }
      ],
      "name": "transferFrom",
      "outputs": [],
      "stateMutability": "nonpayable",
      "type": "function"
    }
  ],
  "bytecode": "0x60806040523480156200001157600080fd5b506040518060400160405280600681526020017f456e636f646500000000000000000000000000000000000000000000000000008152506040518060400160405280600381526020017f454e43000000000000000000000000000000000000000000000000000000000081525081600090816200008f919062000324565b508060019081620000a1919062000324565b5050506200040b565b600081519050919050565b7f4e487b7100000000000000000000000000000000000000000000000000000000600052604160045260246000fd5b7f4e487b7100000000000000000000000000000000000000000000000000000000600052602260045260246000fd5b600060028204905060018216806200012c57607f821691505b602082108103620001425762000141620000e4565b5b50919050565b60008190508160005260206000209050919050565b60006020601f8301049050919050565b600082821b905092915050565b600060088302620001ac7fffffffffffffffffffffffffffffffffffffffffffffffffffffffffffffffff826200016d565b620001b886836200016d565b95508019841693508086168417925050509392505050565b6000819050919050565b6000819050919050565b600062000205620001ff620001f984620001d0565b620001da565b620001d0565b9050919050565b6000819050919050565b6200022183620001e4565b6200023962000230826200020c565b8484546200017a565b825550505050565b600090565b6200025062000241565b6200025d81848462000216565b505050565b5b8181101562000285576200027960008262000246565b60018101905062000263565b5050565b601f821115620002d4576200029e8162000148565b620002a9846200015d565b81016020851015620002b9578190505b620002d1620002c8856200015d565b83018262000262565b50505b505050565b600082821c905092915050565b6000620002f960001984600802620002d9565b1980831691505092915050565b6000620003148383620002e6565b9150826002028217905092915050565b6200032f82620000aa565b67ffffffffffffffff8111156200034b576200034a620000b5565b5b62000357825462000113565b6200036482828562000289565b600060209050601f8311600181146200039c576000841562000387578287015190505b62000393858262000306565b86555062000403565b601f198416620003ac8662000148565b60005b82811015620003d657848901518255600182019150602085019450602081019050620003af565b86831015620003f65784890151620003f2601f891682620002e6565b8355505b6001600288020188555050505b505050505050565b61572b806200041b6000396000f3fe6080604052600436106101cd5760003560e01c8063596fbfb0116100f7578063a22cb46511610095578063d1b3405211610064578063d1b34052146106cc578063e4b50cb81461070a578063e6f80ae614610747578063e985e9c514610784576101cd565b8063a22cb46514610614578063a9286ebc1461063d578063b88d4fde14610666578063c87b56dd1461068f576101cd565b80636914db60116100d15780636914db601461054257806370a08231146105815780637488ff76146105be57806395d89b41146105e9576101cd565b8063596fbfb01461048b5780635de6dc55146104c85780636352211e14610505576101cd565b806323b872dd1161016f5780632f745c591161013e5780632f745c59146103bf57806342842e0e146103fc57806342966c68146104255780634f6ccce71461044e576101cd565b806323b872dd1461033557806324f763d91461035e5780632d296bf1146103875780632d484953146103a3576101cd565b8063081812fc116101ab578063081812fc14610263578063095ea7b3146102a057806318160ddd146102c95780631f8276b8146102f4576101cd565b806301ffc9a7146101d257806303a80dfb1461020f57806306fdde0314610238575b600080fd5b3480156101de57600080fd5b506101f960048036038101906101f49190613961565b6107c1565b60405161020691906139a9565b60405180910390f35b34801561021b57600080fd5b5061023660048036038101906102319190613b68565b6107d3565b005b34801561024457600080fd5b5061024d610869565b60405161025a9190613ca2565b60405180910390f35b34801561026f57600080fd5b5061028a60048036038101906102859190613cfa565b6108fb565b6040516102979190613d36565b60405180910390f35b3480156102ac57600080fd5b506102c760048036038101906102c29190613d51565b610941565b005b3480156102d557600080fd5b506102de610a58565b6040516102eb9190613da0565b60405180910390f35b34801561030057600080fd5b5061031b60048036038101906103169190613dbb565b610a65565b60405161032c959493929190613e72565b60405180910390f35b34801561034157600080fd5b5061035c60048036038101906103579190613ec5565b610ae5565b005b34801561036a57600080fd5b5061038560048036038101906103809190613dbb565b610b45565b005b6103a1600480360381019061039c9190613cfa565b610c4b565b005b6103bd60048036038101906103b89190613cfa565b610ddc565b005b3480156103cb57600080fd5b506103e660048036038101906103e19190613d51565b611166565b6040516103f39190613da0565b60405180910390f35b34801561040857600080fd5b50610423600480360381019061041e9190613ec5565b61120b565b005b34801561043157600080fd5b5061044c60048036038101906104479190613cfa565b61122b565b005b34801561045a57600080fd5b5061047560048036038101906104709190613cfa565b611287565b6040516104829190613da0565b60405180910390f35b34801561049757600080fd5b506104b260048036038101906104ad9190613cfa565b6112f8565b6040516104bf919061405c565b60405180910390f35b3480156104d457600080fd5b506104ef60048036038101906104ea919061407e565b611419565b6040516104fc9190614278565b60405180910390f35b34801561051157600080fd5b5061052c60048036038101906105279190613cfa565b61166e565b6040516105399190613d36565b60405180910390f35b34801561054e57600080fd5b5061056960048036038101906105649190613cfa565b6116f4565b6040516105789392919061429a565b60405180910390f35b34801561058d57600080fd5b506105a860048036038101906105a3919061407e565b61182e565b6040516105b59190613da0565b60405180910390f35b3480156105ca57600080fd5b506105d36118e5565b6040516105e09190614278565b60405180910390f35b3480156105f557600080fd5b506105fe611b36565b60405161060b9190613ca2565b60405180910390f35b34801561062057600080fd5b5061063b6004803603810190610636919061430b565b611bc8565b005b34801561064957600080fd5b50610664600480360381019061065f9190613dbb565b611bde565b005b34801561067257600080fd5b5061068d600480360381019061068891906143ec565b611dad565b005b34801561069b57600080fd5b506106b660048036038101906106b19190613cfa565b611e0f565b6040516106c39190613ca2565b60405180910390f35b3480156106d857600080fd5b506106f360048036038101906106ee9190613cfa565b611e21565b60405161070192919061446f565b60405180910390f35b34801561071657600080fd5b50610731600480360381019061072c9190613cfa565b611e45565b60405161073e9190614502565b60405180910390f35b34801561075357600080fd5b5061076e60048036038101906107699190613cfa565b611fec565b60405161077b9190614553565b60405180910390f35b34801561079057600080fd5b506107ab60048036038101906107a6919061456e565b61202d565b6040516107b891906139a9565b60405180910390f35b60006107cc826120c1565b9050919050565b60006107df600b61213b565b90506107eb600b612149565b6107f5858261215f565b6107ff818561217d565b42600f60008381526020019081526020016000206000018190555082600f6000838152602001908152602001600020600101908161083d91906147ba565b5081600f6000838152602001908152602001600020600201908161086191906147ba565b505050505050565b606060008054610878906145dd565b80601f01602080910402602001604051908101604052809291908181526020018280546108a4906145dd565b80156108f15780601f106108c6576101008083540402835291602001916108f1565b820191906000526020600020905b8154815290600101906020018083116108d457829003601f168201915b5050505050905090565b6000610906826121ea565b6004600083815260200190815260200160002060009054906101000a900473ffffffffffffffffffffffffffffffffffffffff169050919050565b600061094c8261166e565b90508073ffffffffffffffffffffffffffffffffffffffff168373ffffffffffffffffffffffffffffffffffffffff16036109bc576040517f08c379a00000000000000000000000000000000000000000000000000000000081526004016109b3906148fe565b60405180910390fd5b8073ffffffffffffffffffffffffffffffffffffffff166109db612235565b73ffffffffffffffffffffffffffffffffffffffff161480610a0a5750610a0981610a04612235565b61202d565b5b610a49576040517f08c379a0000000000000000000000000000000000000000000000000000000008152600401610a4090614990565b60405180910390fd5b610a53838361223d565b505050565b6000600880549050905090565b600d6020528160005260406000208181548110610a8157600080fd5b9060005260206000209060050201600091509150508060000154908060010160009054906101000a900473ffffffffffffffffffffffffffffffffffffffff16908060020154908060030154908060040160009054906101000a900460ff16905085565b610af6610af0612235565b826122f6565b610b35576040517f08c379a0000000000000000000000000000000000000000000000000000000008152600401610b2c90614a22565b60405180910390fd5b610b4083838361238b565b505050565b3373ffffffffffffffffffffffffffffffffffffffff16610b658361166e565b73ffffffffffffffffffffffffffffffffffffffff1614610bbb576040517f08c379a0000000000000000000000000000000000000000000000000000000008152600401610bb290614ab4565b60405180910390fd5b60008111610bfe576040517f08c379a0000000000000000000000000000000000000000000000000000000008152600401610bf590614b20565b60405180910390fd5b610c083083610941565b604051806040016040528082815260200142815250600e600084815260200190815260200160002060008201518160000155602082015181600101559050505050565b3373ffffffffffffffffffffffffffffffffffffffff16610c6b8261166e565b73ffffffffffffffffffffffffffffffffffffffff1603610cc1576040517f08c379a0000000000000000000000000000000000000000000000000000000008152600401610cb890614b8c565b60405180910390fd5b6000600e60008381526020019081526020016000206000015411610d1a576040517f08c379a0000000000000000000000000000000000000000000000000000000008152600401610d1190614bf8565b60405180910390fd5b600e600082815260200190815260200160002060000154341015610d73576040517f08c379a0000000000000000000000000000000000000000000000000000000008152600401610d6a90614c8a565b60405180910390fd5b6000610d7e8261166e565b90506000339050610d9082828561120b565b8173ffffffffffffffffffffffffffffffffffffffff166108fc349081150290604051600060405180830381858888f19350505050158015610dd6573d6000803e3d6000fd5b50505050565b3373ffffffffffffffffffffffffffffffffffffffff16610dfc8261166e565b73ffffffffffffffffffffffffffffffffffffffff1603610e52576040517f08c379a0000000000000000000000000000000000000000000000000000000008152600401610e4990614b8c565b60405180910390fd5b60003411610e95576040517f08c379a0000000000000000000000000000000000000000000000000000000008152600401610e8c90614cf6565b60405180910390fd5b6000600d6000838152602001908152602001600020905060005b8180549050811015610fde573373ffffffffffffffffffffffffffffffffffffffff16828281548110610ee557610ee4614d16565b5b906000526020600020906005020160010160009054906101000a900473ffffffffffffffffffffffffffffffffffffffff1673ffffffffffffffffffffffffffffffffffffffff1603610fcb5760006002811115610f4657610f45613dfb565b5b828281548110610f5957610f58614d16565b5b906000526020600020906005020160040160009054906101000a900460ff166002811115610f8a57610f89613dfb565b5b03610fca576040517f08c379a0000000000000000000000000000000000000000000000000000000008152600401610fc190614db7565b60405180910390fd5b5b8080610fd690614e06565b915050610eaf565b503073ffffffffffffffffffffffffffffffffffffffff166108fc349081150290604051600060405180830381858888f19350505050158015611025573d6000803e3d6000fd5b506000611032600c61213b565b905061103e600c612149565b600d60008481526020019081526020016000206040518060a001604052808381526020013373ffffffffffffffffffffffffffffffffffffffff1681526020013481526020014281526020016000600281111561109e5761109d613dfb565b5b81525090806001815401808255809150506001900390600052602060002090600502016000909190919091506000820151816000015560208201518160010160006101000a81548173ffffffffffffffffffffffffffffffffffffffff021916908373ffffffffffffffffffffffffffffffffffffffff160217905550604082015181600201556060820151816003015560808201518160040160006101000a81548160ff0219169083600281111561115a57611159613dfb565b5b02179055505050505050565b60006111718361182e565b82106111b2576040517f08c379a00000000000000000000000000000000000000000000000000000000081526004016111a990614ec0565b60405180910390fd5b600660008473ffffffffffffffffffffffffffffffffffffffff1673ffffffffffffffffffffffffffffffffffffffff168152602001908152602001600020600083815260200190815260200160002054905092915050565b61122683838360405180602001604052806000815250611dad565b505050565b61123c611236612235565b826122f6565b61127b576040517f08c379a000000000000000000000000000000000000000000000000000000000815260040161127290614a22565b60405180910390fd5b61128481612684565b50565b6000611291610a58565b82106112d2576040517f08c379a00000000000000000000000000000000000000000000000000000000081526004016112c990614f52565b60405180910390fd5b600882815481106112e6576112e5614d16565b5b90600052602060002001549050919050565b6060600d6000838152602001908152602001600020805480602002602001604051908101604052809291908181526020016000905b8282101561140e57838290600052602060002090600502016040518060a0016040529081600082015481526020016001820160009054906101000a900473ffffffffffffffffffffffffffffffffffffffff1673ffffffffffffffffffffffffffffffffffffffff1673ffffffffffffffffffffffffffffffffffffffff16815260200160028201548152602001600382015481526020016004820160009054906101000a900460ff1660028111156113e9576113e8613dfb565b5b60028111156113fb576113fa613dfb565b5b815250508152602001906001019061132d565b505050509050919050565b606060006114268361182e565b905060008167ffffffffffffffff81111561144457611443613a3d565b5b60405190808252806020026020018201604052801561147d57816020015b61146a613819565b8152602001906001900390816114625790505b50905060005b828110156116635760006114978683611166565b90506000600f6000838152602001908152602001600020604051806060016040529081600082015481526020016001820180546114d3906145dd565b80601f01602080910402602001604051908101604052809291908181526020018280546114ff906145dd565b801561154c5780601f106115215761010080835404028352916020019161154c565b820191906000526020600020905b81548152906001019060200180831161152f57829003601f168201915b50505050508152602001600282018054611565906145dd565b80601f0160208091040260200160405190810160405280929190818152602001828054611591906145dd565b80156115de5780601f106115b3576101008083540402835291602001916115de565b820191906000526020600020905b8154815290600101906020018083116115c157829003601f168201915b5050505050815250509050604051806080016040528083815260200161160384611e0f565b81526020016116118461166e565b73ffffffffffffffffffffffffffffffffffffffff1681526020018281525084848151811061164357611642614d16565b5b60200260200101819052505050808061165b90614e06565b915050611483565b508092505050919050565b60008061167a83612690565b9050600073ffffffffffffffffffffffffffffffffffffffff168173ffffffffffffffffffffffffffffffffffffffff16036116eb576040517f08c379a00000000000000000000000000000000000000000000000000000000081526004016116e290614fbe565b60405180910390fd5b80915050919050565b600f60205280600052604060002060009150905080600001549080600101805461171d906145dd565b80601f0160208091040260200160405190810160405280929190818152602001828054611749906145dd565b80156117965780601f1061176b57610100808354040283529160200191611796565b820191906000526020600020905b81548152906001019060200180831161177957829003601f168201915b5050505050908060020180546117ab906145dd565b80601f01602080910402602001604051908101604052809291908181526020018280546117d7906145dd565b80156118245780601f106117f957610100808354040283529160200191611824565b820191906000526020600020905b81548152906001019060200180831161180757829003601f168201915b5050505050905083565b60008073ffffffffffffffffffffffffffffffffffffffff168273ffffffffffffffffffffffffffffffffffffffff160361189e576040517f08c379a000000000000000000000000000000000000000000000000000000000815260040161189590615050565b60405180910390fd5b600360008373ffffffffffffffffffffffffffffffffffffffff1673ffffffffffffffffffffffffffffffffffffffff168152602001908152602001600020549050919050565b606060006118f1610a58565b905060008167ffffffffffffffff81111561190f5761190e613a3d565b5b60405190808252806020026020018201604052801561194857816020015b611935613819565b81526020019060019003908161192d5790505b50905060005b82811015611b2d57600061196182611287565b90506000600f60008381526020019081526020016000206040518060600160405290816000820154815260200160018201805461199d906145dd565b80601f01602080910402602001604051908101604052809291908181526020018280546119c9906145dd565b8015611a165780601f106119eb57610100808354040283529160200191611a16565b820191906000526020600020905b8154815290600101906020018083116119f957829003601f168201915b50505050508152602001600282018054611a2f906145dd565b80601f0160208091040260200160405190810160405280929190818152602001828054611a5b906145dd565b8015611aa85780601f10611a7d57610100808354040283529160200191611aa8565b820191906000526020600020905b815481529060010190602001808311611a8b57829003601f168201915b50505050508152505090506040518060800160405280838152602001611acd84611e0f565b8152602001611adb8461166e565b73ffffffffffffffffffffffffffffffffffffffff16815260200182815250848481518110611b0d57611b0c614d16565b5b602002602001018190525050508080611b2590614e06565b91505061194e565b50809250505090565b606060018054611b45906145dd565b80601f0160208091040260200160405190810160405280929190818152602001828054611b71906145dd565b8015611bbe5780601f10611b9357610100808354040283529160200191611bbe565b820191906000526020600020905b815481529060010190602001808311611ba157829003601f168201915b5050505050905090565b611bda611bd3612235565b83836126cd565b5050565b3373ffffffffffffffffffffffffffffffffffffffff16611bfe8361166e565b73ffffffffffffffffffffffffffffffffffffffff1614611c54576040517f08c379a0000000000000000000000000000000000000000000000000000000008152600401611c4b906150e2565b60405180910390fd5b6000600d6000848152602001908152602001600020905060005b8180549050811015611da75782828281548110611c8e57611c8d614d16565b5b90600052602060002090600502016000015403611d46576001828281548110611cba57611cb9614d16565b5b906000526020600020906005020160040160006101000a81548160ff02191690836002811115611ced57611cec613dfb565b5b0217905550611d4133838381548110611d0957611d08614d16565b5b906000526020600020906005020160010160009054906101000a900473ffffffffffffffffffffffffffffffffffffffff168661120b565b611d94565b6002828281548110611d5b57611d5a614d16565b5b906000526020600020906005020160040160006101000a81548160ff02191690836002811115611d8e57611d8d613dfb565b5b02179055505b8080611d9f90614e06565b915050611c6e565b50505050565b611dbe611db8612235565b836122f6565b611dfd576040517f08c379a0000000000000000000000000000000000000000000000000000000008152600401611df490614a22565b60405180910390fd5b611e0984848484612839565b50505050565b6060611e1a82612895565b9050919050565b600e6020528060005260406000206000915090508060000154908060010154905082565b611e4d613819565b6000600f600084815260200190815260200160002060405180606001604052908160008201548152602001600182018054611e87906145dd565b80601f0160208091040260200160405190810160405280929190818152602001828054611eb3906145dd565b8015611f005780601f10611ed557610100808354040283529160200191611f00565b820191906000526020600020905b815481529060010190602001808311611ee357829003601f168201915b50505050508152602001600282018054611f19906145dd565b80601f0160208091040260200160405190810160405280929190818152602001828054611f45906145dd565b8015611f925780601f10611f6757610100808354040283529160200191611f92565b820191906000526020600020905b815481529060010190602001808311611f7557829003601f168201915b50505050508152505090506040518060800160405280848152602001611fb785611e0f565b8152602001611fc58561166e565b73ffffffffffffffffffffffffffffffffffffffff16815260200182815250915050919050565b611ff461385d565b600e6000838152602001908152602001600020604051806040016040529081600082015481526020016001820154815250509050919050565b6000600560008473ffffffffffffffffffffffffffffffffffffffff1673ffffffffffffffffffffffffffffffffffffffff16815260200190815260200160002060008373ffffffffffffffffffffffffffffffffffffffff1673ffffffffffffffffffffffffffffffffffffffff16815260200190815260200160002060009054906101000a900460ff16905092915050565b60007f780e9d63000000000000000000000000000000000000000000000000000000007bffffffffffffffffffffffffffffffffffffffffffffffffffffffff1916827bffffffffffffffffffffffffffffffffffffffffffffffffffffffff191614806121345750612133826129a7565b5b9050919050565b600081600001549050919050565b6001816000016000828254019250508190555050565b612179828260405180602001604052806000815250612a89565b5050565b61218682612ae4565b6121c5576040517f08c379a00000000000000000000000000000000000000000000000000000000081526004016121bc90615174565b60405180910390fd5b80600a600084815260200190815260200160002090816121e591906147ba565b505050565b6121f381612ae4565b612232576040517f08c379a000000000000000000000000000000000000000000000000000000000815260040161222990614fbe565b60405180910390fd5b50565b600033905090565b816004600083815260200190815260200160002060006101000a81548173ffffffffffffffffffffffffffffffffffffffff021916908373ffffffffffffffffffffffffffffffffffffffff160217905550808273ffffffffffffffffffffffffffffffffffffffff166122b08361166e565b73ffffffffffffffffffffffffffffffffffffffff167f8c5be1e5ebec7d5bd14f71427d1e84f3dd0314c0f7b2291e5b200ac8c7c3b92560405160405180910390a45050565b6000806123028361166e565b90508073ffffffffffffffffffffffffffffffffffffffff168473ffffffffffffffffffffffffffffffffffffffff1614806123445750612343818561202d565b5b8061238257508373ffffffffffffffffffffffffffffffffffffffff1661236a846108fb565b73ffffffffffffffffffffffffffffffffffffffff16145b91505092915050565b8273ffffffffffffffffffffffffffffffffffffffff166123ab8261166e565b73ffffffffffffffffffffffffffffffffffffffff1614612401576040517f08c379a00000000000000000000000000000000000000000000000000000000081526004016123f890615206565b60405180910390fd5b600073ffffffffffffffffffffffffffffffffffffffff168273ffffffffffffffffffffffffffffffffffffffff1603612470576040517f08c379a000000000000000000000000000000000000000000000000000000000815260040161246790615298565b60405180910390fd5b61247d8383836001612b25565b8273ffffffffffffffffffffffffffffffffffffffff1661249d8261166e565b73ffffffffffffffffffffffffffffffffffffffff16146124f3576040517f08c379a00000000000000000000000000000000000000000000000000000000081526004016124ea90615206565b60405180910390fd5b6004600082815260200190815260200160002060006101000a81549073ffffffffffffffffffffffffffffffffffffffff02191690556001600360008573ffffffffffffffffffffffffffffffffffffffff1673ffffffffffffffffffffffffffffffffffffffff168152602001908152602001600020600082825403925050819055506001600360008473ffffffffffffffffffffffffffffffffffffffff1673ffffffffffffffffffffffffffffffffffffffff16815260200190815260200160002060008282540192505081905550816002600083815260200190815260200160002060006101000a81548173ffffffffffffffffffffffffffffffffffffffff021916908373ffffffffffffffffffffffffffffffffffffffff160217905550808273ffffffffffffffffffffffffffffffffffffffff168473ffffffffffffffffffffffffffffffffffffffff167fddf252ad1be2c89b69c2b068fc378daa952ba7f163c4a11628f55a4df523b3ef60405160405180910390a461267f8383836001612b37565b505050565b61268d81612b3d565b50565b60006002600083815260200190815260200160002060009054906101000a900473ffffffffffffffffffffffffffffffffffffffff169050919050565b8173ffffffffffffffffffffffffffffffffffffffff168373ffffffffffffffffffffffffffffffffffffffff160361273b576040517f08c379a000000000000000000000000000000000000000000000000000000000815260040161273290615304565b60405180910390fd5b80600560008573ffffffffffffffffffffffffffffffffffffffff1673ffffffffffffffffffffffffffffffffffffffff16815260200190815260200160002060008473ffffffffffffffffffffffffffffffffffffffff1673ffffffffffffffffffffffffffffffffffffffff16815260200190815260200160002060006101000a81548160ff0219169083151502179055508173ffffffffffffffffffffffffffffffffffffffff168373ffffffffffffffffffffffffffffffffffffffff167f17307eab39ab6107e8899845ad3d59bd9653f200f220920489ca2b5937696c318360405161282c91906139a9565b60405180910390a3505050565b61284484848461238b565b61285084848484612b90565b61288f576040517f08c379a000000000000000000000000000000000000000000000000000000000815260040161288690615396565b60405180910390fd5b50505050565b60606128a0826121ea565b6000600a600084815260200190815260200160002080546128c0906145dd565b80601f01602080910402602001604051908101604052809291908181526020018280546128ec906145dd565b80156129395780601f1061290e57610100808354040283529160200191612939565b820191906000526020600020905b81548152906001019060200180831161291c57829003601f168201915b50505050509050600061294a612d17565b9050600081510361295f5781925050506129a2565b60008251111561299457808260405160200161297c9291906153f2565b604051602081830303815290604052925050506129a2565b61299d84612d2e565b925050505b919050565b60007f80ac58cd000000000000000000000000000000000000000000000000000000007bffffffffffffffffffffffffffffffffffffffffffffffffffffffff1916827bffffffffffffffffffffffffffffffffffffffffffffffffffffffff19161480612a7257507f5b5e139f000000000000000000000000000000000000000000000000000000007bffffffffffffffffffffffffffffffffffffffffffffffffffffffff1916827bffffffffffffffffffffffffffffffffffffffffffffffffffffffff1916145b80612a825750612a8182612d96565b5b9050919050565b612a938383612e00565b612aa06000848484612b90565b612adf576040517f08c379a0000000000000000000000000000000000000000000000000000000008152600401612ad690615396565b60405180910390fd5b505050565b60008073ffffffffffffffffffffffffffffffffffffffff16612b0683612690565b73ffffffffffffffffffffffffffffffffffffffff1614159050919050565b612b318484848461301d565b50505050565b50505050565b612b468161317b565b6000600a60008381526020019081526020016000208054612b66906145dd565b905014612b8d57600a60008281526020019081526020016000206000612b8c9190613877565b5b50565b6000612bb18473ffffffffffffffffffffffffffffffffffffffff166132c9565b15612d0a578373ffffffffffffffffffffffffffffffffffffffff1663150b7a02612bda612235565b8786866040518563ffffffff1660e01b8152600401612bfc949392919061546b565b6020604051808303816000875af1925050508015612c3857506040513d601f19601f82011682018060405250810190612c3591906154cc565b60015b612cba573d8060008114612c68576040519150601f19603f3d011682016040523d82523d6000602084013e612c6d565b606091505b506000815103612cb2576040517f08c379a0000000000000000000000000000000000000000000000000000000008152600401612ca990615396565b60405180910390fd5b805181602001fd5b63150b7a0260e01b7bffffffffffffffffffffffffffffffffffffffffffffffffffffffff1916817bffffffffffffffffffffffffffffffffffffffffffffffffffffffff191614915050612d0f565b600190505b949350505050565b606060405180602001604052806000815250905090565b6060612d39826121ea565b6000612d43612d17565b90506000815111612d635760405180602001604052806000815250612d8e565b80612d6d846132ec565b604051602001612d7e9291906153f2565b6040516020818303038152906040525b915050919050565b60007f01ffc9a7000000000000000000000000000000000000000000000000000000007bffffffffffffffffffffffffffffffffffffffffffffffffffffffff1916827bffffffffffffffffffffffffffffffffffffffffffffffffffffffff1916149050919050565b600073ffffffffffffffffffffffffffffffffffffffff168273ffffffffffffffffffffffffffffffffffffffff1603612e6f576040517f08c379a0000000000000000000000000000000000000000000000000000000008152600401612e6690615545565b60405180910390fd5b612e7881612ae4565b15612eb8576040517f08c379a0000000000000000000000000000000000000000000000000000000008152600401612eaf906155b1565b60405180910390fd5b612ec6600083836001612b25565b612ecf81612ae4565b15612f0f576040517f08c379a0000000000000000000000000000000000000000000000000000000008152600401612f06906155b1565b60405180910390fd5b6001600360008473ffffffffffffffffffffffffffffffffffffffff1673ffffffffffffffffffffffffffffffffffffffff16815260200190815260200160002060008282540192505081905550816002600083815260200190815260200160002060006101000a81548173ffffffffffffffffffffffffffffffffffffffff021916908373ffffffffffffffffffffffffffffffffffffffff160217905550808273ffffffffffffffffffffffffffffffffffffffff16600073ffffffffffffffffffffffffffffffffffffffff167fddf252ad1be2c89b69c2b068fc378daa952ba7f163c4a11628f55a4df523b3ef60405160405180910390a4613019600083836001612b37565b5050565b613029848484846133ba565b600181111561306d576040517f08c379a000000000000000000000000000000000000000000000000000000000815260040161306490615643565b60405180910390fd5b6000829050600073ffffffffffffffffffffffffffffffffffffffff168573ffffffffffffffffffffffffffffffffffffffff16036130b4576130af816133c0565b6130f3565b8373ffffffffffffffffffffffffffffffffffffffff168573ffffffffffffffffffffffffffffffffffffffff16146130f2576130f18582613409565b5b5b600073ffffffffffffffffffffffffffffffffffffffff168473ffffffffffffffffffffffffffffffffffffffff16036131355761313081613576565b613174565b8473ffffffffffffffffffffffffffffffffffffffff168473ffffffffffffffffffffffffffffffffffffffff1614613173576131728482613647565b5b5b5050505050565b60006131868261166e565b9050613196816000846001612b25565b61319f8261166e565b90506004600083815260200190815260200160002060006101000a81549073ffffffffffffffffffffffffffffffffffffffff02191690556001600360008373ffffffffffffffffffffffffffffffffffffffff1673ffffffffffffffffffffffffffffffffffffffff168152602001908152602001600020600082825403925050819055506002600083815260200190815260200160002060006101000a81549073ffffffffffffffffffffffffffffffffffffffff021916905581600073ffffffffffffffffffffffffffffffffffffffff168273ffffffffffffffffffffffffffffffffffffffff167fddf252ad1be2c89b69c2b068fc378daa952ba7f163c4a11628f55a4df523b3ef60405160405180910390a46132c5816000846001612b37565b5050565b6000808273ffffffffffffffffffffffffffffffffffffffff163b119050919050565b6060600060016132fb846136c6565b01905060008167ffffffffffffffff81111561331a57613319613a3d565b5b6040519080825280601f01601f19166020018201604052801561334c5781602001600182028036833780820191505090505b509050600082602001820190505b6001156133af578080600190039150507f3031323334353637383961626364656600000000000000000000000000000000600a86061a8153600a85816133a3576133a2615663565b5b0494506000850361335a575b819350505050919050565b50505050565b6008805490506009600083815260200190815260200160002081905550600881908060018154018082558091505060019003906000526020600020016000909190919091505550565b600060016134168461182e565b6134209190615692565b9050600060076000848152602001908152602001600020549050818114613505576000600660008673ffffffffffffffffffffffffffffffffffffffff1673ffffffffffffffffffffffffffffffffffffffff168152602001908152602001600020600084815260200190815260200160002054905080600660008773ffffffffffffffffffffffffffffffffffffffff1673ffffffffffffffffffffffffffffffffffffffff168152602001908152602001600020600084815260200190815260200160002081905550816007600083815260200190815260200160002081905550505b6007600084815260200190815260200160002060009055600660008573ffffffffffffffffffffffffffffffffffffffff1673ffffffffffffffffffffffffffffffffffffffff16815260200190815260200160002060008381526020019081526020016000206000905550505050565b6000600160088054905061358a9190615692565b90506000600960008481526020019081526020016000205490506000600883815481106135ba576135b9614d16565b5b9060005260206000200154905080600883815481106135dc576135db614d16565b5b90600052602060002001819055508160096000838152602001908152602001600020819055506009600085815260200190815260200160002060009055600880548061362b5761362a6156c6565b5b6001900381819060005260206000200160009055905550505050565b60006136528361182e565b905081600660008573ffffffffffffffffffffffffffffffffffffffff1673ffffffffffffffffffffffffffffffffffffffff168152602001908152602001600020600083815260200190815260200160002081905550806007600084815260200190815260200160002081905550505050565b600080600090507a184f03e93ff9f4daa797ed6e38ed64bf6a1f0100000000000000008310613724577a184f03e93ff9f4daa797ed6e38ed64bf6a1f010000000000000000838161371a57613719615663565b5b0492506040810190505b6d04ee2d6d415b85acef81000000008310613761576d04ee2d6d415b85acef8100000000838161375757613756615663565b5b0492506020810190505b662386f26fc10000831061379057662386f26fc10000838161378657613785615663565b5b0492506010810190505b6305f5e10083106137b9576305f5e10083816137af576137ae615663565b5b0492506008810190505b61271083106137de5761271083816137d4576137d3615663565b5b0492506004810190505b6064831061380157606483816137f7576137f6615663565b5b0492506002810190505b600a8310613810576001810190505b80915050919050565b60405180608001604052806000815260200160608152602001600073ffffffffffffffffffffffffffffffffffffffff1681526020016138576138b7565b81525090565b604051806040016040528060008152602001600081525090565b508054613883906145dd565b6000825580601f1061389557506138b4565b601f0160209004906000526020600020908101906138b391906138d8565b5b50565b60405180606001604052806000815260200160608152602001606081525090565b5b808211156138f15760008160009055506001016138d9565b5090565b6000604051905090565b600080fd5b600080fd5b60007fffffffff0000000000000000000000000000000000000000000000000000000082169050919050565b61393e81613909565b811461394957600080fd5b50565b60008135905061395b81613935565b92915050565b600060208284031215613977576139766138ff565b5b60006139858482850161394c565b91505092915050565b60008115159050919050565b6139a38161398e565b82525050565b60006020820190506139be600083018461399a565b92915050565b600073ffffffffffffffffffffffffffffffffffffffff82169050919050565b60006139ef826139c4565b9050919050565b6139ff816139e4565b8114613a0a57600080fd5b50565b600081359050613a1c816139f6565b92915050565b600080fd5b600080fd5b6000601f19601f8301169050919050565b7f4e487b7100000000000000000000000000000000000000000000000000000000600052604160045260246000fd5b613a7582613a2c565b810181811067ffffffffffffffff82111715613a9457613a93613a3d565b5b80604052505050565b6000613aa76138f5565b9050613ab38282613a6c565b919050565b600067ffffffffffffffff821115613ad357613ad2613a3d565b5b613adc82613a2c565b9050602081019050919050565b82818337600083830152505050565b6000613b0b613b0684613ab8565b613a9d565b905082815260208101848484011115613b2757613b26613a27565b5b613b32848285613ae9565b509392505050565b600082601f830112613b4f57613b4e613a22565b5b8135613b5f848260208601613af8565b91505092915050565b60008060008060808587031215613b8257613b816138ff565b5b6000613b9087828801613a0d565b945050602085013567ffffffffffffffff811115613bb157613bb0613904565b5b613bbd87828801613b3a565b935050604085013567ffffffffffffffff811115613bde57613bdd613904565b5b613bea87828801613b3a565b925050606085013567ffffffffffffffff811115613c0b57613c0a613904565b5b613c1787828801613b3a565b91505092959194509250565b600081519050919050565b600082825260208201905092915050565b60005b83811015613c5d578082015181840152602081019050613c42565b60008484015250505050565b6000613c7482613c23565b613c7e8185613c2e565b9350613c8e818560208601613c3f565b613c9781613a2c565b840191505092915050565b60006020820190508181036000830152613cbc8184613c69565b905092915050565b6000819050919050565b613cd781613cc4565b8114613ce257600080fd5b50565b600081359050613cf481613cce565b92915050565b600060208284031215613d1057613d0f6138ff565b5b6000613d1e84828501613ce5565b91505092915050565b613d30816139e4565b82525050565b6000602082019050613d4b6000830184613d27565b92915050565b60008060408385031215613d6857613d676138ff565b5b6000613d7685828601613a0d565b9250506020613d8785828601613ce5565b9150509250929050565b613d9a81613cc4565b82525050565b6000602082019050613db56000830184613d91565b92915050565b60008060408385031215613dd257613dd16138ff565b5b6000613de085828601613ce5565b9250506020613df185828601613ce5565b9150509250929050565b7f4e487b7100000000000000000000000000000000000000000000000000000000600052602160045260246000fd5b60038110613e3b57613e3a613dfb565b5b50565b6000819050613e4c82613e2a565b919050565b6000613e5c82613e3e565b9050919050565b613e6c81613e51565b82525050565b600060a082019050613e876000830188613d91565b613e946020830187613d27565b613ea16040830186613d91565b613eae6060830185613d91565b613ebb6080830184613e63565b9695505050505050565b600080600060608486031215613ede57613edd6138ff565b5b6000613eec86828701613a0d565b9350506020613efd86828701613a0d565b9250506040613f0e86828701613ce5565b9150509250925092565b600081519050919050565b600082825260208201905092915050565b6000819050602082019050919050565b613f4d81613cc4565b82525050565b613f5c816139e4565b82525050565b613f6b81613e51565b82525050565b60a082016000820151613f876000850182613f44565b506020820151613f9a6020850182613f53565b506040820151613fad6040850182613f44565b506060820151613fc06060850182613f44565b506080820151613fd36080850182613f62565b50505050565b6000613fe58383613f71565b60a08301905092915050565b6000602082019050919050565b600061400982613f18565b6140138185613f23565b935061401e83613f34565b8060005b8381101561404f5781516140368882613fd9565b975061404183613ff1565b925050600181019050614022565b5085935050505092915050565b600060208201905081810360008301526140768184613ffe565b905092915050565b600060208284031215614094576140936138ff565b5b60006140a284828501613a0d565b91505092915050565b600081519050919050565b600082825260208201905092915050565b6000819050602082019050919050565b600082825260208201905092915050565b60006140f382613c23565b6140fd81856140d7565b935061410d818560208601613c3f565b61411681613a2c565b840191505092915050565b60006060830160008301516141396000860182613f44565b506020830151848203602086015261415182826140e8565b9150506040830151848203604086015261416b82826140e8565b9150508091505092915050565b60006080830160008301516141906000860182613f44565b50602083015184820360208601526141a882826140e8565b91505060408301516141bd6040860182613f53565b50606083015184820360608601526141d58282614121565b9150508091505092915050565b60006141ee8383614178565b905092915050565b6000602082019050919050565b600061420e826140ab565b61421881856140b6565b93508360208202850161422a856140c7565b8060005b85811015614266578484038952815161424785826141e2565b9450614252836141f6565b925060208a0199505060018101905061422e565b50829750879550505050505092915050565b600060208201905081810360008301526142928184614203565b905092915050565b60006060820190506142af6000830186613d91565b81810360208301526142c18185613c69565b905081810360408301526142d58184613c69565b9050949350505050565b6142e88161398e565b81146142f357600080fd5b50565b600081359050614305816142df565b92915050565b60008060408385031215614322576143216138ff565b5b600061433085828601613a0d565b9250506020614341858286016142f6565b9150509250929050565b600067ffffffffffffffff82111561436657614365613a3d565b5b61436f82613a2c565b9050602081019050919050565b600061438f61438a8461434b565b613a9d565b9050828152602081018484840111156143ab576143aa613a27565b5b6143b6848285613ae9565b509392505050565b600082601f8301126143d3576143d2613a22565b5b81356143e384826020860161437c565b91505092915050565b60008060008060808587031215614406576144056138ff565b5b600061441487828801613a0d565b945050602061442587828801613a0d565b935050604061443687828801613ce5565b925050606085013567ffffffffffffffff81111561445757614456613904565b5b614463878288016143be565b91505092959194509250565b60006040820190506144846000830185613d91565b6144916020830184613d91565b9392505050565b60006080830160008301516144b06000860182613f44565b50602083015184820360208601526144c882826140e8565b91505060408301516144dd6040860182613f53565b50606083015184820360608601526144f58282614121565b9150508091505092915050565b6000602082019050818103600083015261451c8184614498565b905092915050565b60408201600082015161453a6000850182613f44565b50602082015161454d6020850182613f44565b50505050565b60006040820190506145686000830184614524565b92915050565b60008060408385031215614585576145846138ff565b5b600061459385828601613a0d565b92505060206145a485828601613a0d565b9150509250929050565b7f4e487b7100000000000000000000000000000000000000000000000000000000600052602260045260246000fd5b600060028204905060018216806145f557607f821691505b602082108103614608576146076145ae565b5b50919050565b60008190508160005260206000209050919050565b60006020601f8301049050919050565b600082821b905092915050565b6000600883026146707fffffffffffffffffffffffffffffffffffffffffffffffffffffffffffffffff82614633565b61467a8683614633565b95508019841693508086168417925050509392505050565b6000819050919050565b60006146b76146b26146ad84613cc4565b614692565b613cc4565b9050919050565b6000819050919050565b6146d18361469c565b6146e56146dd826146be565b848454614640565b825550505050565b600090565b6146fa6146ed565b6147058184846146c8565b505050565b5b818110156147295761471e6000826146f2565b60018101905061470b565b5050565b601f82111561476e5761473f8161460e565b61474884614623565b81016020851015614757578190505b61476b61476385614623565b83018261470a565b50505b505050565b600082821c905092915050565b600061479160001984600802614773565b1980831691505092915050565b60006147aa8383614780565b9150826002028217905092915050565b6147c382613c23565b67ffffffffffffffff8111156147dc576147db613a3d565b5b6147e682546145dd565b6147f182828561472d565b600060209050601f8311600181146148245760008415614812578287015190505b61481c858261479e565b865550614884565b601f1984166148328661460e565b60005b8281101561485a57848901518255600182019150602085019450602081019050614835565b868310156148775784890151614873601f891682614780565b8355505b6001600288020188555050505b505050505050565b7f4552433732313a20617070726f76616c20746f2063757272656e74206f776e6560008201527f7200000000000000000000000000000000000000000000000000000000000000602082015250565b60006148e8602183613c2e565b91506148f38261488c565b604082019050919050565b60006020820190508181036000830152614917816148db565b9050919050565b7f4552433732313a20617070726f76652063616c6c6572206973206e6f7420746f60008201527f6b656e206f776e6572206f7220617070726f76656420666f7220616c6c000000602082015250565b600061497a603d83613c2e565b91506149858261491e565b604082019050919050565b600060208201905081810360008301526149a98161496d565b9050919050565b7f4552433732313a2063616c6c6572206973206e6f7420746f6b656e206f776e6560008201527f72206f7220617070726f76656400000000000000000000000000000000000000602082015250565b6000614a0c602d83613c2e565b9150614a17826149b0565b604082019050919050565b60006020820190508181036000830152614a3b816149ff565b9050919050565b7f596f752063616e6e6f742073656c6c204e465473207468617420796f7520646f60008201527f206e6f74206f776e000000000000000000000000000000000000000000000000602082015250565b6000614a9e602883613c2e565b9150614aa982614a42565b604082019050919050565b60006020820190508181036000830152614acd81614a91565b9050919050565b7f5072696365206d7573742062652067726561746572207468616e203000000000600082015250565b6000614b0a601c83613c2e565b9150614b1582614ad4565b602082019050919050565b60006020820190508181036000830152614b3981614afd565b9050919050565b7f596f752063616e6e6f742062757920796f7572206f776e204e46540000000000600082015250565b6000614b76601b83613c2e565b9150614b8182614b40565b602082019050919050565b60006020820190508181036000830152614ba581614b69565b9050919050565b7f54686973204e4654206973206e6f7420666f722073616c650000000000000000600082015250565b6000614be2601883613c2e565b9150614bed82614bac565b602082019050919050565b60006020820190508181036000830152614c1181614bd5565b9050919050565b7f596f75206d7573742073656e6420656e6f7567682045544820746f206275792060008201527f74686973204e4654000000000000000000000000000000000000000000000000602082015250565b6000614c74602883613c2e565b9150614c7f82614c18565b604082019050919050565b60006020820190508181036000830152614ca381614c67565b9050919050565b7f4f66666572206d7573742062652067726561746572207468616e203000000000600082015250565b6000614ce0601c83613c2e565b9150614ceb82614caa565b602082019050919050565b60006020820190508181036000830152614d0f81614cd3565b9050919050565b7f4e487b7100000000000000000000000000000000000000000000000000000000600052603260045260246000fd5b7f596f7520616c7265616479206861766520612070656e64696e6720627579696e60008201527f67207265717565737420666f722074686973204e465400000000000000000000602082015250565b6000614da1603683613c2e565b9150614dac82614d45565b604082019050919050565b60006020820190508181036000830152614dd081614d94565b9050919050565b7f4e487b7100000000000000000000000000000000000000000000000000000000600052601160045260246000fd5b6000614e1182613cc4565b91507fffffffffffffffffffffffffffffffffffffffffffffffffffffffffffffffff8203614e4357614e42614dd7565b5b600182019050919050565b7f455243373231456e756d657261626c653a206f776e657220696e646578206f7560008201527f74206f6620626f756e6473000000000000000000000000000000000000000000602082015250565b6000614eaa602b83613c2e565b9150614eb582614e4e565b604082019050919050565b60006020820190508181036000830152614ed981614e9d565b9050919050565b7f455243373231456e756d657261626c653a20676c6f62616c20696e646578206f60008201527f7574206f6620626f756e64730000000000000000000000000000000000000000602082015250565b6000614f3c602c83613c2e565b9150614f4782614ee0565b604082019050919050565b60006020820190508181036000830152614f6b81614f2f565b9050919050565b7f4552433732313a20696e76616c696420746f6b656e2049440000000000000000600082015250565b6000614fa8601883613c2e565b9150614fb382614f72565b602082019050919050565b60006020820190508181036000830152614fd781614f9b565b9050919050565b7f4552433732313a2061646472657373207a65726f206973206e6f74206120766160008201527f6c6964206f776e65720000000000000000000000000000000000000000000000602082015250565b600061503a602983613c2e565b915061504582614fde565b604082019050919050565b600060208201905081810360008301526150698161502d565b9050919050565b7f596f752063616e6e6f742061636365707420627579696e67207265717565737460008201527f7320666f72204e465473207468617420796f7520646f206e6f74206f776e0000602082015250565b60006150cc603e83613c2e565b91506150d782615070565b604082019050919050565b600060208201905081810360008301526150fb816150bf565b9050919050565b7f45524337323155524953746f726167653a2055524920736574206f66206e6f6e60008201527f6578697374656e7420746f6b656e000000000000000000000000000000000000602082015250565b600061515e602e83613c2e565b915061516982615102565b604082019050919050565b6000602082019050818103600083015261518d81615151565b9050919050565b7f4552433732313a207472616e736665722066726f6d20696e636f72726563742060008201527f6f776e6572000000000000000000000000000000000000000000000000000000602082015250565b60006151f0602583613c2e565b91506151fb82615194565b604082019050919050565b6000602082019050818103600083015261521f816151e3565b9050919050565b7f4552433732313a207472616e7366657220746f20746865207a65726f2061646460008201527f7265737300000000000000000000000000000000000000000000000000000000602082015250565b6000615282602483613c2e565b915061528d82615226565b604082019050919050565b600060208201905081810360008301526152b181615275565b9050919050565b7f4552433732313a20617070726f766520746f2063616c6c657200000000000000600082015250565b60006152ee601983613c2e565b91506152f9826152b8565b602082019050919050565b6000602082019050818103600083015261531d816152e1565b9050919050565b7f4552433732313a207472616e7366657220746f206e6f6e20455243373231526560008201527f63656976657220696d706c656d656e7465720000000000000000000000000000602082015250565b6000615380603283613c2e565b915061538b82615324565b604082019050919050565b600060208201905081810360008301526153af81615373565b9050919050565b600081905092915050565b60006153cc82613c23565b6153d681856153b6565b93506153e6818560208601613c3f565b80840191505092915050565b60006153fe82856153c1565b915061540a82846153c1565b91508190509392505050565b600081519050919050565b600082825260208201905092915050565b600061543d82615416565b6154478185615421565b9350615457818560208601613c3f565b61546081613a2c565b840191505092915050565b60006080820190506154806000830187613d27565b61548d6020830186613d27565b61549a6040830185613d91565b81810360608301526154ac8184615432565b905095945050505050565b6000815190506154c681613935565b92915050565b6000602082840312156154e2576154e16138ff565b5b60006154f0848285016154b7565b91505092915050565b7f4552433732313a206d696e7420746f20746865207a65726f2061646472657373600082015250565b600061552f602083613c2e565b915061553a826154f9565b602082019050919050565b6000602082019050818103600083015261555e81615522565b9050919050565b7f4552433732313a20746f6b656e20616c7265616479206d696e74656400000000600082015250565b600061559b601c83613c2e565b91506155a682615565565b602082019050919050565b600060208201905081810360008301526155ca8161558e565b9050919050565b7f455243373231456e756d657261626c653a20636f6e736563757469766520747260008201527f616e7366657273206e6f7420737570706f727465640000000000000000000000602082015250565b600061562d603583613c2e565b9150615638826155d1565b604082019050919050565b6000602082019050818103600083015261565c81615620565b9050919050565b7f4e487b7100000000000000000000000000000000000000000000000000000000600052601260045260246000fd5b600061569d82613cc4565b91506156a883613cc4565b92508282039050818111156156c0576156bf614dd7565b5b92915050565b7f4e487b7100000000000000000000000000000000000000000000000000000000600052603160045260246000fdfea2646970667358221220ef34f084739bc8419727022103bdce5f3e3632cd840140d2b03d165950a8b58064736f6c63430008130033",
  "linkReferences": {},
  "deployedLinkReferences": {}
}