{
  "_format": "hh-sol-artifact-1",
  "contractName": "Encode",
  "sourceName": "contracts/Encode.sol",
  "abi": [
    {
      "inputs": [],
      "stateMutability": "nonpayable",
      "type": "constructor"
    },
    {
      "anonymous": false,
      "inputs": [
        {
          "indexed": true,
          "internalType": "address",
          "name": "owner",
          "type": "address"
        },
        {
          "indexed": true,
          "internalType": "address",
          "name": "approved",
          "type": "address"
        },
        {
          "indexed": true,
          "internalType": "uint256",
          "name": "tokenId",
          "type": "uint256"
        }
      ],
      "name": "Approval",
      "type": "event"
    },
    {
      "anonymous": false,
      "inputs": [
        {
          "indexed": true,
          "internalType": "address",
          "name": "owner",
          "type": "address"
        },
        {
          "indexed": true,
          "internalType": "address",
          "name": "operator",
          "type": "address"
        },
        {
          "indexed": false,
          "internalType": "bool",
          "name": "approved",
          "type": "bool"
        }
      ],
      "name": "ApprovalForAll",
      "type": "event"
    },
    {
      "anonymous": false,
      "inputs": [
        {
          "indexed": true,
          "internalType": "address",
          "name": "from",
          "type": "address"
        },
        {
          "indexed": true,
          "internalType": "address",
          "name": "to",
          "type": "address"
        },
        {
          "indexed": true,
          "internalType": "uint256",
          "name": "tokenId",
          "type": "uint256"
        }
      ],
      "name": "Transfer",
      "type": "event"
    },
    {
      "inputs": [
        {
          "internalType": "address",
          "name": "to",
          "type": "address"
        },
        {
          "internalType": "uint256",
          "name": "tokenId",
          "type": "uint256"
        }
      ],
      "name": "approve",
      "outputs": [],
      "stateMutability": "nonpayable",
      "type": "function"
    },
    {
      "inputs": [
        {
          "internalType": "address",
          "name": "owner",
          "type": "address"
        }
      ],
      "name": "balanceOf",
      "outputs": [
        {
          "internalType": "uint256",
          "name": "",
          "type": "uint256"
        }
      ],
      "stateMutability": "view",
      "type": "function"
    },
    {
      "inputs": [
        {
          "internalType": "uint256",
          "name": "tokenId",
          "type": "uint256"
        }
      ],
      "name": "burn",
      "outputs": [],
      "stateMutability": "nonpayable",
      "type": "function"
    },
    {
      "inputs": [
        {
          "internalType": "uint256",
          "name": "",
          "type": "uint256"
        },
        {
          "internalType": "uint256",
          "name": "",
          "type": "uint256"
        }
      ],
      "name": "buyingRequests",
      "outputs": [
        {
          "internalType": "address",
          "name": "buyer",
          "type": "address"
        },
        {
          "internalType": "uint256",
          "name": "offer",
          "type": "uint256"
        },
        {
          "internalType": "uint256",
          "name": "timestamp",
          "type": "uint256"
        },
        {
          "internalType": "enum Encode.BuyingRequestStatus",
          "name": "status",
          "type": "uint8"
        }
      ],
      "stateMutability": "view",
      "type": "function"
    },
    {
      "inputs": [
        {
          "internalType": "uint256",
          "name": "tokenId",
          "type": "uint256"
        },
        {
          "internalType": "uint256",
          "name": "offer",
          "type": "uint256"
        }
      ],
      "name": "createBuyingRequest",
      "outputs": [],
      "stateMutability": "nonpayable",
      "type": "function"
    },
    {
      "inputs": [
        {
          "internalType": "uint256",
          "name": "tokenId",
          "type": "uint256"
        },
        {
          "internalType": "uint256",
          "name": "price",
          "type": "uint256"
        }
      ],
      "name": "createSellingListing",
      "outputs": [],
      "stateMutability": "nonpayable",
      "type": "function"
    },
    {
      "inputs": [
        {
          "internalType": "uint256",
          "name": "tokenId",
          "type": "uint256"
        }
      ],
      "name": "getApproved",
      "outputs": [
        {
          "internalType": "address",
          "name": "",
          "type": "address"
        }
      ],
      "stateMutability": "view",
      "type": "function"
    },
    {
      "inputs": [
        {
          "internalType": "uint256",
          "name": "tokenId",
          "type": "uint256"
        }
      ],
      "name": "getBuyingRequests",
      "outputs": [
        {
          "components": [
            {
              "internalType": "address",
              "name": "buyer",
              "type": "address"
            },
            {
              "internalType": "uint256",
              "name": "offer",
              "type": "uint256"
            },
            {
              "internalType": "uint256",
              "name": "timestamp",
              "type": "uint256"
            },
            {
              "internalType": "enum Encode.BuyingRequestStatus",
              "name": "status",
              "type": "uint8"
            }
          ],
          "internalType": "struct Encode.BuyingRequest[]",
          "name": "",
          "type": "tuple[]"
        }
      ],
      "stateMutability": "view",
      "type": "function"
    },
    {
      "inputs": [
        {
          "internalType": "uint256",
          "name": "tokenId",
          "type": "uint256"
        }
      ],
      "name": "getSellingListings",
      "outputs": [
        {
          "components": [
            {
              "internalType": "uint256",
              "name": "price",
              "type": "uint256"
            },
            {
              "internalType": "uint256",
              "name": "timestamp",
              "type": "uint256"
            }
          ],
          "internalType": "struct Encode.SellingListing",
          "name": "",
          "type": "tuple"
        }
      ],
      "stateMutability": "view",
      "type": "function"
    },
    {
      "inputs": [
        {
          "internalType": "uint256",
          "name": "tokenId",
          "type": "uint256"
        }
      ],
      "name": "getToken",
      "outputs": [
        {
          "components": [
            {
              "internalType": "uint256",
              "name": "id",
              "type": "uint256"
            },
            {
              "internalType": "string",
              "name": "uri",
              "type": "string"
            },
            {
              "internalType": "address",
              "name": "owner",
              "type": "address"
            },
            {
              "components": [
                {
                  "internalType": "uint256",
                  "name": "creationDate",
                  "type": "uint256"
                },
                {
                  "internalType": "string",
                  "name": "title",
                  "type": "string"
                },
                {
                  "internalType": "string",
                  "name": "description",
                  "type": "string"
                }
              ],
              "internalType": "struct Encode.TokenMetadata",
              "name": "metadata",
              "type": "tuple"
            }
          ],
          "internalType": "struct Encode.TokenInfo",
          "name": "",
          "type": "tuple"
        }
      ],
      "stateMutability": "view",
      "type": "function"
    },
    {
      "inputs": [
        {
          "internalType": "address",
          "name": "addr",
          "type": "address"
        }
      ],
      "name": "getTokensOfOwner",
      "outputs": [
        {
          "components": [
            {
              "internalType": "uint256",
              "name": "id",
              "type": "uint256"
            },
            {
              "internalType": "string",
              "name": "uri",
              "type": "string"
            },
            {
              "internalType": "address",
              "name": "owner",
              "type": "address"
            },
            {
              "components": [
                {
                  "internalType": "uint256",
                  "name": "creationDate",
                  "type": "uint256"
                },
                {
                  "internalType": "string",
                  "name": "title",
                  "type": "string"
                },
                {
                  "internalType": "string",
                  "name": "description",
                  "type": "string"
                }
              ],
              "internalType": "struct Encode.TokenMetadata",
              "name": "metadata",
              "type": "tuple"
            }
          ],
          "internalType": "struct Encode.TokenInfo[]",
          "name": "",
          "type": "tuple[]"
        }
      ],
      "stateMutability": "view",
      "type": "function"
    },
    {
      "inputs": [
        {
          "internalType": "address",
          "name": "owner",
          "type": "address"
        },
        {
          "internalType": "address",
          "name": "operator",
          "type": "address"
        }
      ],
      "name": "isApprovedForAll",
      "outputs": [
        {
          "internalType": "bool",
          "name": "",
          "type": "bool"
        }
      ],
      "stateMutability": "view",
      "type": "function"
    },
    {
      "inputs": [],
      "name": "name",
      "outputs": [
        {
          "internalType": "string",
          "name": "",
          "type": "string"
        }
      ],
      "stateMutability": "view",
      "type": "function"
    },
    {
      "inputs": [
        {
          "internalType": "uint256",
          "name": "tokenId",
          "type": "uint256"
        }
      ],
      "name": "ownerOf",
      "outputs": [
        {
          "internalType": "address",
          "name": "",
          "type": "address"
        }
      ],
      "stateMutability": "view",
      "type": "function"
    },
    {
      "inputs": [
        {
          "internalType": "address",
          "name": "to",
          "type": "address"
        },
        {
          "internalType": "string",
          "name": "uri",
          "type": "string"
        },
        {
          "internalType": "string",
          "name": "title",
          "type": "string"
        },
        {
          "internalType": "string",
          "name": "description",
          "type": "string"
        }
      ],
      "name": "safeMint",
      "outputs": [],
      "stateMutability": "nonpayable",
      "type": "function"
    },
    {
      "inputs": [
        {
          "internalType": "address",
          "name": "from",
          "type": "address"
        },
        {
          "internalType": "address",
          "name": "to",
          "type": "address"
        },
        {
          "internalType": "uint256",
          "name": "tokenId",
          "type": "uint256"
        }
      ],
      "name": "safeTransferFrom",
      "outputs": [],
      "stateMutability": "nonpayable",
      "type": "function"
    },
    {
      "inputs": [
        {
          "internalType": "address",
          "name": "from",
          "type": "address"
        },
        {
          "internalType": "address",
          "name": "to",
          "type": "address"
        },
        {
          "internalType": "uint256",
          "name": "tokenId",
          "type": "uint256"
        },
        {
          "internalType": "bytes",
          "name": "data",
          "type": "bytes"
        }
      ],
      "name": "safeTransferFrom",
      "outputs": [],
      "stateMutability": "nonpayable",
      "type": "function"
    },
    {
      "inputs": [
        {
          "internalType": "uint256",
          "name": "",
          "type": "uint256"
        }
      ],
      "name": "sellingListing",
      "outputs": [
        {
          "internalType": "uint256",
          "name": "price",
          "type": "uint256"
        },
        {
          "internalType": "uint256",
          "name": "timestamp",
          "type": "uint256"
        }
      ],
      "stateMutability": "view",
      "type": "function"
    },
    {
      "inputs": [
        {
          "internalType": "address",
          "name": "operator",
          "type": "address"
        },
        {
          "internalType": "bool",
          "name": "approved",
          "type": "bool"
        }
      ],
      "name": "setApprovalForAll",
      "outputs": [],
      "stateMutability": "nonpayable",
      "type": "function"
    },
    {
      "inputs": [
        {
          "internalType": "bytes4",
          "name": "interfaceId",
          "type": "bytes4"
        }
      ],
      "name": "supportsInterface",
      "outputs": [
        {
          "internalType": "bool",
          "name": "",
          "type": "bool"
        }
      ],
      "stateMutability": "view",
      "type": "function"
    },
    {
      "inputs": [],
      "name": "symbol",
      "outputs": [
        {
          "internalType": "string",
          "name": "",
          "type": "string"
        }
      ],
      "stateMutability": "view",
      "type": "function"
    },
    {
      "inputs": [
        {
          "internalType": "uint256",
          "name": "index",
          "type": "uint256"
        }
      ],
      "name": "tokenByIndex",
      "outputs": [
        {
          "internalType": "uint256",
          "name": "",
          "type": "uint256"
        }
      ],
      "stateMutability": "view",
      "type": "function"
    },
    {
      "inputs": [
        {
          "internalType": "uint256",
          "name": "",
          "type": "uint256"
        }
      ],
      "name": "tokenMetadata",
      "outputs": [
        {
          "internalType": "uint256",
          "name": "creationDate",
          "type": "uint256"
        },
        {
          "internalType": "string",
          "name": "title",
          "type": "string"
        },
        {
          "internalType": "string",
          "name": "description",
          "type": "string"
        }
      ],
      "stateMutability": "view",
      "type": "function"
    },
    {
      "inputs": [
        {
          "internalType": "address",
          "name": "owner",
          "type": "address"
        },
        {
          "internalType": "uint256",
          "name": "index",
          "type": "uint256"
        }
      ],
      "name": "tokenOfOwnerByIndex",
      "outputs": [
        {
          "internalType": "uint256",
          "name": "",
          "type": "uint256"
        }
      ],
      "stateMutability": "view",
      "type": "function"
    },
    {
      "inputs": [
        {
          "internalType": "uint256",
          "name": "tokenId",
          "type": "uint256"
        }
      ],
      "name": "tokenURI",
      "outputs": [
        {
          "internalType": "string",
          "name": "",
          "type": "string"
        }
      ],
      "stateMutability": "view",
      "type": "function"
    },
    {
      "inputs": [],
      "name": "totalSupply",
      "outputs": [
        {
          "internalType": "uint256",
          "name": "",
          "type": "uint256"
        }
      ],
      "stateMutability": "view",
      "type": "function"
    },
    {
      "inputs": [
        {
          "internalType": "address",
          "name": "from",
          "type": "address"
        },
        {
          "internalType": "address",
          "name": "to",
          "type": "address"
        },
        {
          "internalType": "uint256",
          "name": "tokenId",
          "type": "uint256"
        }
      ],
      "name": "transferFrom",
      "outputs": [],
      "stateMutability": "nonpayable",
      "type": "function"
    }
  ],
  "bytecode": "0x60806040523480156200001157600080fd5b506040518060400160405280600681526020017f456e636f646500000000000000000000000000000000000000000000000000008152506040518060400160405280600381526020017f454e43000000000000000000000000000000000000000000000000000000000081525081600090816200008f919062000324565b508060019081620000a1919062000324565b5050506200040b565b600081519050919050565b7f4e487b7100000000000000000000000000000000000000000000000000000000600052604160045260246000fd5b7f4e487b7100000000000000000000000000000000000000000000000000000000600052602260045260246000fd5b600060028204905060018216806200012c57607f821691505b602082108103620001425762000141620000e4565b5b50919050565b60008190508160005260206000209050919050565b60006020601f8301049050919050565b600082821b905092915050565b600060088302620001ac7fffffffffffffffffffffffffffffffffffffffffffffffffffffffffffffffff826200016d565b620001b886836200016d565b95508019841693508086168417925050509392505050565b6000819050919050565b6000819050919050565b600062000205620001ff620001f984620001d0565b620001da565b620001d0565b9050919050565b6000819050919050565b6200022183620001e4565b6200023962000230826200020c565b8484546200017a565b825550505050565b600090565b6200025062000241565b6200025d81848462000216565b505050565b5b8181101562000285576200027960008262000246565b60018101905062000263565b5050565b601f821115620002d4576200029e8162000148565b620002a9846200015d565b81016020851015620002b9578190505b620002d1620002c8856200015d565b83018262000262565b50505b505050565b600082821c905092915050565b6000620002f960001984600802620002d9565b1980831691505092915050565b6000620003148383620002e6565b9150826002028217905092915050565b6200032f82620000aa565b67ffffffffffffffff8111156200034b576200034a620000b5565b5b62000357825462000113565b6200036482828562000289565b600060209050601f8311600181146200039c576000841562000387578287015190505b62000393858262000306565b86555062000403565b601f198416620003ac8662000148565b60005b82811015620003d657848901518255600182019150602085019450602081019050620003af565b86831015620003f65784890151620003f2601f891682620002e6565b8355505b6001600288020188555050505b505050505050565b614b86806200041b6000396000f3fe608060405234801561001057600080fd5b50600436106101a95760003560e01c8063596fbfb0116100f9578063a22cb46511610097578063d1b3405211610071578063d1b3405214610519578063e4b50cb81461054a578063e6f80ae61461057a578063e985e9c5146105aa576101a9565b8063a22cb465146104b1578063b88d4fde146104cd578063c87b56dd146104e9576101a9565b80636914db60116100d35780636914db601461041557806370a08231146104475780638f747dd01461047757806395d89b4114610493576101a9565b8063596fbfb0146103855780635de6dc55146103b55780636352211e146103e5576101a9565b80631f8276b8116101665780632f745c59116101405780632f745c59146102ed57806342842e0e1461031d57806342966c68146103395780634f6ccce714610355576101a9565b80631f8276b81461028257806323b872dd146102b557806324f763d9146102d1576101a9565b806301ffc9a7146101ae57806303a80dfb146101de57806306fdde03146101fa578063081812fc14610218578063095ea7b31461024857806318160ddd14610264575b600080fd5b6101c860048036038101906101c39190612fff565b6105da565b6040516101d59190613047565b60405180910390f35b6101f860048036038101906101f39190613206565b6105ec565b005b610202610682565b60405161020f9190613340565b60405180910390f35b610232600480360381019061022d9190613398565b610714565b60405161023f91906133d4565b60405180910390f35b610262600480360381019061025d91906133ef565b61075a565b005b61026c610871565b604051610279919061343e565b60405180910390f35b61029c60048036038101906102979190613459565b61087e565b6040516102ac9493929190613510565b60405180910390f35b6102cf60048036038101906102ca9190613555565b6108f8565b005b6102eb60048036038101906102e69190613459565b610958565b005b610307600480360381019061030291906133ef565b610a5e565b604051610314919061343e565b60405180910390f35b61033760048036038101906103329190613555565b610b03565b005b610353600480360381019061034e9190613398565b610b23565b005b61036f600480360381019061036a9190613398565b610b7f565b60405161037c919061343e565b60405180910390f35b61039f600480360381019061039a9190613398565b610bf0565b6040516103ac91906136d9565b60405180910390f35b6103cf60048036038101906103ca91906136fb565b610d07565b6040516103dc91906138f5565b60405180910390f35b6103ff60048036038101906103fa9190613398565b610f5c565b60405161040c91906133d4565b60405180910390f35b61042f600480360381019061042a9190613398565b610fe2565b60405161043e93929190613917565b60405180910390f35b610461600480360381019061045c91906136fb565b61111c565b60405161046e919061343e565b60405180910390f35b610491600480360381019061048c9190613459565b6111d3565b005b61049b6113a3565b6040516104a89190613340565b60405180910390f35b6104cb60048036038101906104c69190613988565b611435565b005b6104e760048036038101906104e29190613a69565b61144b565b005b61050360048036038101906104fe9190613398565b6114ad565b6040516105109190613340565b60405180910390f35b610533600480360381019061052e9190613398565b6114bf565b604051610541929190613aec565b60405180910390f35b610564600480360381019061055f9190613398565b6114e3565b6040516105719190613b7f565b60405180910390f35b610594600480360381019061058f9190613398565b61168a565b6040516105a19190613bd0565b60405180910390f35b6105c460048036038101906105bf9190613beb565b6116cb565b6040516105d19190613047565b60405180910390f35b60006105e58261175f565b9050919050565b60006105f8600b6117d9565b9050610604600b6117e7565b61060e85826117fd565b610618818561181b565b42600e60008381526020019081526020016000206000018190555082600e600083815260200190815260200160002060010190816106569190613e37565b5081600e6000838152602001908152602001600020600201908161067a9190613e37565b505050505050565b60606000805461069190613c5a565b80601f01602080910402602001604051908101604052809291908181526020018280546106bd90613c5a565b801561070a5780601f106106df5761010080835404028352916020019161070a565b820191906000526020600020905b8154815290600101906020018083116106ed57829003601f168201915b5050505050905090565b600061071f82611888565b6004600083815260200190815260200160002060009054906101000a900473ffffffffffffffffffffffffffffffffffffffff169050919050565b600061076582610f5c565b90508073ffffffffffffffffffffffffffffffffffffffff168373ffffffffffffffffffffffffffffffffffffffff16036107d5576040517f08c379a00000000000000000000000000000000000000000000000000000000081526004016107cc90613f7b565b60405180910390fd5b8073ffffffffffffffffffffffffffffffffffffffff166107f46118d3565b73ffffffffffffffffffffffffffffffffffffffff16148061082357506108228161081d6118d3565b6116cb565b5b610862576040517f08c379a00000000000000000000000000000000000000000000000000000000081526004016108599061400d565b60405180910390fd5b61086c83836118db565b505050565b6000600880549050905090565b600c602052816000526040600020818154811061089a57600080fd5b9060005260206000209060040201600091509150508060000160009054906101000a900473ffffffffffffffffffffffffffffffffffffffff16908060010154908060020154908060030160009054906101000a900460ff16905084565b6109096109036118d3565b82611994565b610948576040517f08c379a000000000000000000000000000000000000000000000000000000000815260040161093f9061409f565b60405180910390fd5b610953838383611a29565b505050565b3373ffffffffffffffffffffffffffffffffffffffff1661097883610f5c565b73ffffffffffffffffffffffffffffffffffffffff16146109ce576040517f08c379a00000000000000000000000000000000000000000000000000000000081526004016109c590614131565b60405180910390fd5b60008111610a11576040517f08c379a0000000000000000000000000000000000000000000000000000000008152600401610a089061419d565b60405180910390fd5b610a1b308361075a565b604051806040016040528082815260200142815250600d600084815260200190815260200160002060008201518160000155602082015181600101559050505050565b6000610a698361111c565b8210610aaa576040517f08c379a0000000000000000000000000000000000000000000000000000000008152600401610aa19061422f565b60405180910390fd5b600660008473ffffffffffffffffffffffffffffffffffffffff1673ffffffffffffffffffffffffffffffffffffffff168152602001908152602001600020600083815260200190815260200160002054905092915050565b610b1e8383836040518060200160405280600081525061144b565b505050565b610b34610b2e6118d3565b82611994565b610b73576040517f08c379a0000000000000000000000000000000000000000000000000000000008152600401610b6a9061409f565b60405180910390fd5b610b7c81611d22565b50565b6000610b89610871565b8210610bca576040517f08c379a0000000000000000000000000000000000000000000000000000000008152600401610bc1906142c1565b60405180910390fd5b60088281548110610bde57610bdd6142e1565b5b90600052602060002001549050919050565b6060600c6000838152602001908152602001600020805480602002602001604051908101604052809291908181526020016000905b82821015610cfc57838290600052602060002090600402016040518060800160405290816000820160009054906101000a900473ffffffffffffffffffffffffffffffffffffffff1673ffffffffffffffffffffffffffffffffffffffff1673ffffffffffffffffffffffffffffffffffffffff16815260200160018201548152602001600282015481526020016003820160009054906101000a900460ff166002811115610cd757610cd6613499565b5b6002811115610ce957610ce8613499565b5b8152505081526020019060010190610c25565b505050509050919050565b60606000610d148361111c565b905060008167ffffffffffffffff811115610d3257610d316130db565b5b604051908082528060200260200182016040528015610d6b57816020015b610d58612eb7565b815260200190600190039081610d505790505b50905060005b82811015610f51576000610d858683610a5e565b90506000600e600083815260200190815260200160002060405180606001604052908160008201548152602001600182018054610dc190613c5a565b80601f0160208091040260200160405190810160405280929190818152602001828054610ded90613c5a565b8015610e3a5780601f10610e0f57610100808354040283529160200191610e3a565b820191906000526020600020905b815481529060010190602001808311610e1d57829003601f168201915b50505050508152602001600282018054610e5390613c5a565b80601f0160208091040260200160405190810160405280929190818152602001828054610e7f90613c5a565b8015610ecc5780601f10610ea157610100808354040283529160200191610ecc565b820191906000526020600020905b815481529060010190602001808311610eaf57829003601f168201915b50505050508152505090506040518060800160405280838152602001610ef1846114ad565b8152602001610eff84610f5c565b73ffffffffffffffffffffffffffffffffffffffff16815260200182815250848481518110610f3157610f306142e1565b5b602002602001018190525050508080610f499061433f565b915050610d71565b508092505050919050565b600080610f6883611d2e565b9050600073ffffffffffffffffffffffffffffffffffffffff168173ffffffffffffffffffffffffffffffffffffffff1603610fd9576040517f08c379a0000000000000000000000000000000000000000000000000000000008152600401610fd0906143d3565b60405180910390fd5b80915050919050565b600e60205280600052604060002060009150905080600001549080600101805461100b90613c5a565b80601f016020809104026020016040519081016040528092919081815260200182805461103790613c5a565b80156110845780601f1061105957610100808354040283529160200191611084565b820191906000526020600020905b81548152906001019060200180831161106757829003601f168201915b50505050509080600201805461109990613c5a565b80601f01602080910402602001604051908101604052809291908181526020018280546110c590613c5a565b80156111125780601f106110e757610100808354040283529160200191611112565b820191906000526020600020905b8154815290600101906020018083116110f557829003601f168201915b5050505050905083565b60008073ffffffffffffffffffffffffffffffffffffffff168273ffffffffffffffffffffffffffffffffffffffff160361118c576040517f08c379a000000000000000000000000000000000000000000000000000000000815260040161118390614465565b60405180910390fd5b600360008373ffffffffffffffffffffffffffffffffffffffff1673ffffffffffffffffffffffffffffffffffffffff168152602001908152602001600020549050919050565b3373ffffffffffffffffffffffffffffffffffffffff166111f383610f5c565b73ffffffffffffffffffffffffffffffffffffffff1603611249576040517f08c379a0000000000000000000000000000000000000000000000000000000008152600401611240906144d1565b60405180910390fd5b6000811161128c576040517f08c379a00000000000000000000000000000000000000000000000000000000081526004016112839061453d565b60405180910390fd5b600c600083815260200190815260200160002060405180608001604052803373ffffffffffffffffffffffffffffffffffffffff168152602001838152602001428152602001600060028111156112e6576112e5613499565b5b815250908060018154018082558091505060019003906000526020600020906004020160009091909190915060008201518160000160006101000a81548173ffffffffffffffffffffffffffffffffffffffff021916908373ffffffffffffffffffffffffffffffffffffffff160217905550602082015181600101556040820151816002015560608201518160030160006101000a81548160ff0219169083600281111561139857611397613499565b5b021790555050505050565b6060600180546113b290613c5a565b80601f01602080910402602001604051908101604052809291908181526020018280546113de90613c5a565b801561142b5780601f106114005761010080835404028352916020019161142b565b820191906000526020600020905b81548152906001019060200180831161140e57829003601f168201915b5050505050905090565b6114476114406118d3565b8383611d6b565b5050565b61145c6114566118d3565b83611994565b61149b576040517f08c379a00000000000000000000000000000000000000000000000000000000081526004016114929061409f565b60405180910390fd5b6114a784848484611ed7565b50505050565b60606114b882611f33565b9050919050565b600d6020528060005260406000206000915090508060000154908060010154905082565b6114eb612eb7565b6000600e60008481526020019081526020016000206040518060600160405290816000820154815260200160018201805461152590613c5a565b80601f016020809104026020016040519081016040528092919081815260200182805461155190613c5a565b801561159e5780601f106115735761010080835404028352916020019161159e565b820191906000526020600020905b81548152906001019060200180831161158157829003601f168201915b505050505081526020016002820180546115b790613c5a565b80601f01602080910402602001604051908101604052809291908181526020018280546115e390613c5a565b80156116305780601f1061160557610100808354040283529160200191611630565b820191906000526020600020905b81548152906001019060200180831161161357829003601f168201915b50505050508152505090506040518060800160405280848152602001611655856114ad565b815260200161166385610f5c565b73ffffffffffffffffffffffffffffffffffffffff16815260200182815250915050919050565b611692612efb565b600d6000838152602001908152602001600020604051806040016040529081600082015481526020016001820154815250509050919050565b6000600560008473ffffffffffffffffffffffffffffffffffffffff1673ffffffffffffffffffffffffffffffffffffffff16815260200190815260200160002060008373ffffffffffffffffffffffffffffffffffffffff1673ffffffffffffffffffffffffffffffffffffffff16815260200190815260200160002060009054906101000a900460ff16905092915050565b60007f780e9d63000000000000000000000000000000000000000000000000000000007bffffffffffffffffffffffffffffffffffffffffffffffffffffffff1916827bffffffffffffffffffffffffffffffffffffffffffffffffffffffff191614806117d257506117d182612045565b5b9050919050565b600081600001549050919050565b6001816000016000828254019250508190555050565b611817828260405180602001604052806000815250612127565b5050565b61182482612182565b611863576040517f08c379a000000000000000000000000000000000000000000000000000000000815260040161185a906145cf565b60405180910390fd5b80600a600084815260200190815260200160002090816118839190613e37565b505050565b61189181612182565b6118d0576040517f08c379a00000000000000000000000000000000000000000000000000000000081526004016118c7906143d3565b60405180910390fd5b50565b600033905090565b816004600083815260200190815260200160002060006101000a81548173ffffffffffffffffffffffffffffffffffffffff021916908373ffffffffffffffffffffffffffffffffffffffff160217905550808273ffffffffffffffffffffffffffffffffffffffff1661194e83610f5c565b73ffffffffffffffffffffffffffffffffffffffff167f8c5be1e5ebec7d5bd14f71427d1e84f3dd0314c0f7b2291e5b200ac8c7c3b92560405160405180910390a45050565b6000806119a083610f5c565b90508073ffffffffffffffffffffffffffffffffffffffff168473ffffffffffffffffffffffffffffffffffffffff1614806119e257506119e181856116cb565b5b80611a2057508373ffffffffffffffffffffffffffffffffffffffff16611a0884610714565b73ffffffffffffffffffffffffffffffffffffffff16145b91505092915050565b8273ffffffffffffffffffffffffffffffffffffffff16611a4982610f5c565b73ffffffffffffffffffffffffffffffffffffffff1614611a9f576040517f08c379a0000000000000000000000000000000000000000000000000000000008152600401611a9690614661565b60405180910390fd5b600073ffffffffffffffffffffffffffffffffffffffff168273ffffffffffffffffffffffffffffffffffffffff1603611b0e576040517f08c379a0000000000000000000000000000000000000000000000000000000008152600401611b05906146f3565b60405180910390fd5b611b1b83838360016121c3565b8273ffffffffffffffffffffffffffffffffffffffff16611b3b82610f5c565b73ffffffffffffffffffffffffffffffffffffffff1614611b91576040517f08c379a0000000000000000000000000000000000000000000000000000000008152600401611b8890614661565b60405180910390fd5b6004600082815260200190815260200160002060006101000a81549073ffffffffffffffffffffffffffffffffffffffff02191690556001600360008573ffffffffffffffffffffffffffffffffffffffff1673ffffffffffffffffffffffffffffffffffffffff168152602001908152602001600020600082825403925050819055506001600360008473ffffffffffffffffffffffffffffffffffffffff1673ffffffffffffffffffffffffffffffffffffffff16815260200190815260200160002060008282540192505081905550816002600083815260200190815260200160002060006101000a81548173ffffffffffffffffffffffffffffffffffffffff021916908373ffffffffffffffffffffffffffffffffffffffff160217905550808273ffffffffffffffffffffffffffffffffffffffff168473ffffffffffffffffffffffffffffffffffffffff167fddf252ad1be2c89b69c2b068fc378daa952ba7f163c4a11628f55a4df523b3ef60405160405180910390a4611d1d83838360016121d5565b505050565b611d2b816121db565b50565b60006002600083815260200190815260200160002060009054906101000a900473ffffffffffffffffffffffffffffffffffffffff169050919050565b8173ffffffffffffffffffffffffffffffffffffffff168373ffffffffffffffffffffffffffffffffffffffff1603611dd9576040517f08c379a0000000000000000000000000000000000000000000000000000000008152600401611dd09061475f565b60405180910390fd5b80600560008573ffffffffffffffffffffffffffffffffffffffff1673ffffffffffffffffffffffffffffffffffffffff16815260200190815260200160002060008473ffffffffffffffffffffffffffffffffffffffff1673ffffffffffffffffffffffffffffffffffffffff16815260200190815260200160002060006101000a81548160ff0219169083151502179055508173ffffffffffffffffffffffffffffffffffffffff168373ffffffffffffffffffffffffffffffffffffffff167f17307eab39ab6107e8899845ad3d59bd9653f200f220920489ca2b5937696c3183604051611eca9190613047565b60405180910390a3505050565b611ee2848484611a29565b611eee8484848461222e565b611f2d576040517f08c379a0000000000000000000000000000000000000000000000000000000008152600401611f24906147f1565b60405180910390fd5b50505050565b6060611f3e82611888565b6000600a60008481526020019081526020016000208054611f5e90613c5a565b80601f0160208091040260200160405190810160405280929190818152602001828054611f8a90613c5a565b8015611fd75780601f10611fac57610100808354040283529160200191611fd7565b820191906000526020600020905b815481529060010190602001808311611fba57829003601f168201915b505050505090506000611fe86123b5565b90506000815103611ffd578192505050612040565b60008251111561203257808260405160200161201a92919061484d565b60405160208183030381529060405292505050612040565b61203b846123cc565b925050505b919050565b60007f80ac58cd000000000000000000000000000000000000000000000000000000007bffffffffffffffffffffffffffffffffffffffffffffffffffffffff1916827bffffffffffffffffffffffffffffffffffffffffffffffffffffffff1916148061211057507f5b5e139f000000000000000000000000000000000000000000000000000000007bffffffffffffffffffffffffffffffffffffffffffffffffffffffff1916827bffffffffffffffffffffffffffffffffffffffffffffffffffffffff1916145b80612120575061211f82612434565b5b9050919050565b612131838361249e565b61213e600084848461222e565b61217d576040517f08c379a0000000000000000000000000000000000000000000000000000000008152600401612174906147f1565b60405180910390fd5b505050565b60008073ffffffffffffffffffffffffffffffffffffffff166121a483611d2e565b73ffffffffffffffffffffffffffffffffffffffff1614159050919050565b6121cf848484846126bb565b50505050565b50505050565b6121e481612819565b6000600a6000838152602001908152602001600020805461220490613c5a565b90501461222b57600a6000828152602001908152602001600020600061222a9190612f15565b5b50565b600061224f8473ffffffffffffffffffffffffffffffffffffffff16612967565b156123a8578373ffffffffffffffffffffffffffffffffffffffff1663150b7a026122786118d3565b8786866040518563ffffffff1660e01b815260040161229a94939291906148c6565b6020604051808303816000875af19250505080156122d657506040513d601f19601f820116820180604052508101906122d39190614927565b60015b612358573d8060008114612306576040519150601f19603f3d011682016040523d82523d6000602084013e61230b565b606091505b506000815103612350576040517f08c379a0000000000000000000000000000000000000000000000000000000008152600401612347906147f1565b60405180910390fd5b805181602001fd5b63150b7a0260e01b7bffffffffffffffffffffffffffffffffffffffffffffffffffffffff1916817bffffffffffffffffffffffffffffffffffffffffffffffffffffffff1916149150506123ad565b600190505b949350505050565b606060405180602001604052806000815250905090565b60606123d782611888565b60006123e16123b5565b90506000815111612401576040518060200160405280600081525061242c565b8061240b8461298a565b60405160200161241c92919061484d565b6040516020818303038152906040525b915050919050565b60007f01ffc9a7000000000000000000000000000000000000000000000000000000007bffffffffffffffffffffffffffffffffffffffffffffffffffffffff1916827bffffffffffffffffffffffffffffffffffffffffffffffffffffffff1916149050919050565b600073ffffffffffffffffffffffffffffffffffffffff168273ffffffffffffffffffffffffffffffffffffffff160361250d576040517f08c379a0000000000000000000000000000000000000000000000000000000008152600401612504906149a0565b60405180910390fd5b61251681612182565b15612556576040517f08c379a000000000000000000000000000000000000000000000000000000000815260040161254d90614a0c565b60405180910390fd5b6125646000838360016121c3565b61256d81612182565b156125ad576040517f08c379a00000000000000000000000000000000000000000000000000000000081526004016125a490614a0c565b60405180910390fd5b6001600360008473ffffffffffffffffffffffffffffffffffffffff1673ffffffffffffffffffffffffffffffffffffffff16815260200190815260200160002060008282540192505081905550816002600083815260200190815260200160002060006101000a81548173ffffffffffffffffffffffffffffffffffffffff021916908373ffffffffffffffffffffffffffffffffffffffff160217905550808273ffffffffffffffffffffffffffffffffffffffff16600073ffffffffffffffffffffffffffffffffffffffff167fddf252ad1be2c89b69c2b068fc378daa952ba7f163c4a11628f55a4df523b3ef60405160405180910390a46126b76000838360016121d5565b5050565b6126c784848484612a58565b600181111561270b576040517f08c379a000000000000000000000000000000000000000000000000000000000815260040161270290614a9e565b60405180910390fd5b6000829050600073ffffffffffffffffffffffffffffffffffffffff168573ffffffffffffffffffffffffffffffffffffffff16036127525761274d81612a5e565b612791565b8373ffffffffffffffffffffffffffffffffffffffff168573ffffffffffffffffffffffffffffffffffffffff16146127905761278f8582612aa7565b5b5b600073ffffffffffffffffffffffffffffffffffffffff168473ffffffffffffffffffffffffffffffffffffffff16036127d3576127ce81612c14565b612812565b8473ffffffffffffffffffffffffffffffffffffffff168473ffffffffffffffffffffffffffffffffffffffff1614612811576128108482612ce5565b5b5b5050505050565b600061282482610f5c565b90506128348160008460016121c3565b61283d82610f5c565b90506004600083815260200190815260200160002060006101000a81549073ffffffffffffffffffffffffffffffffffffffff02191690556001600360008373ffffffffffffffffffffffffffffffffffffffff1673ffffffffffffffffffffffffffffffffffffffff168152602001908152602001600020600082825403925050819055506002600083815260200190815260200160002060006101000a81549073ffffffffffffffffffffffffffffffffffffffff021916905581600073ffffffffffffffffffffffffffffffffffffffff168273ffffffffffffffffffffffffffffffffffffffff167fddf252ad1be2c89b69c2b068fc378daa952ba7f163c4a11628f55a4df523b3ef60405160405180910390a46129638160008460016121d5565b5050565b6000808273ffffffffffffffffffffffffffffffffffffffff163b119050919050565b60606000600161299984612d64565b01905060008167ffffffffffffffff8111156129b8576129b76130db565b5b6040519080825280601f01601f1916602001820160405280156129ea5781602001600182028036833780820191505090505b509050600082602001820190505b600115612a4d578080600190039150507f3031323334353637383961626364656600000000000000000000000000000000600a86061a8153600a8581612a4157612a40614abe565b5b049450600085036129f8575b819350505050919050565b50505050565b6008805490506009600083815260200190815260200160002081905550600881908060018154018082558091505060019003906000526020600020016000909190919091505550565b60006001612ab48461111c565b612abe9190614aed565b9050600060076000848152602001908152602001600020549050818114612ba3576000600660008673ffffffffffffffffffffffffffffffffffffffff1673ffffffffffffffffffffffffffffffffffffffff168152602001908152602001600020600084815260200190815260200160002054905080600660008773ffffffffffffffffffffffffffffffffffffffff1673ffffffffffffffffffffffffffffffffffffffff168152602001908152602001600020600084815260200190815260200160002081905550816007600083815260200190815260200160002081905550505b6007600084815260200190815260200160002060009055600660008573ffffffffffffffffffffffffffffffffffffffff1673ffffffffffffffffffffffffffffffffffffffff16815260200190815260200160002060008381526020019081526020016000206000905550505050565b60006001600880549050612c289190614aed565b9050600060096000848152602001908152602001600020549050600060088381548110612c5857612c576142e1565b5b906000526020600020015490508060088381548110612c7a57612c796142e1565b5b906000526020600020018190555081600960008381526020019081526020016000208190555060096000858152602001908152602001600020600090556008805480612cc957612cc8614b21565b5b6001900381819060005260206000200160009055905550505050565b6000612cf08361111c565b905081600660008573ffffffffffffffffffffffffffffffffffffffff1673ffffffffffffffffffffffffffffffffffffffff168152602001908152602001600020600083815260200190815260200160002081905550806007600084815260200190815260200160002081905550505050565b600080600090507a184f03e93ff9f4daa797ed6e38ed64bf6a1f0100000000000000008310612dc2577a184f03e93ff9f4daa797ed6e38ed64bf6a1f0100000000000000008381612db857612db7614abe565b5b0492506040810190505b6d04ee2d6d415b85acef81000000008310612dff576d04ee2d6d415b85acef81000000008381612df557612df4614abe565b5b0492506020810190505b662386f26fc100008310612e2e57662386f26fc100008381612e2457612e23614abe565b5b0492506010810190505b6305f5e1008310612e57576305f5e1008381612e4d57612e4c614abe565b5b0492506008810190505b6127108310612e7c576127108381612e7257612e71614abe565b5b0492506004810190505b60648310612e9f5760648381612e9557612e94614abe565b5b0492506002810190505b600a8310612eae576001810190505b80915050919050565b60405180608001604052806000815260200160608152602001600073ffffffffffffffffffffffffffffffffffffffff168152602001612ef5612f55565b81525090565b604051806040016040528060008152602001600081525090565b508054612f2190613c5a565b6000825580601f10612f335750612f52565b601f016020900490600052602060002090810190612f519190612f76565b5b50565b60405180606001604052806000815260200160608152602001606081525090565b5b80821115612f8f576000816000905550600101612f77565b5090565b6000604051905090565b600080fd5b600080fd5b60007fffffffff0000000000000000000000000000000000000000000000000000000082169050919050565b612fdc81612fa7565b8114612fe757600080fd5b50565b600081359050612ff981612fd3565b92915050565b60006020828403121561301557613014612f9d565b5b600061302384828501612fea565b91505092915050565b60008115159050919050565b6130418161302c565b82525050565b600060208201905061305c6000830184613038565b92915050565b600073ffffffffffffffffffffffffffffffffffffffff82169050919050565b600061308d82613062565b9050919050565b61309d81613082565b81146130a857600080fd5b50565b6000813590506130ba81613094565b92915050565b600080fd5b600080fd5b6000601f19601f8301169050919050565b7f4e487b7100000000000000000000000000000000000000000000000000000000600052604160045260246000fd5b613113826130ca565b810181811067ffffffffffffffff82111715613132576131316130db565b5b80604052505050565b6000613145612f93565b9050613151828261310a565b919050565b600067ffffffffffffffff821115613171576131706130db565b5b61317a826130ca565b9050602081019050919050565b82818337600083830152505050565b60006131a96131a484613156565b61313b565b9050828152602081018484840111156131c5576131c46130c5565b5b6131d0848285613187565b509392505050565b600082601f8301126131ed576131ec6130c0565b5b81356131fd848260208601613196565b91505092915050565b600080600080608085870312156132205761321f612f9d565b5b600061322e878288016130ab565b945050602085013567ffffffffffffffff81111561324f5761324e612fa2565b5b61325b878288016131d8565b935050604085013567ffffffffffffffff81111561327c5761327b612fa2565b5b613288878288016131d8565b925050606085013567ffffffffffffffff8111156132a9576132a8612fa2565b5b6132b5878288016131d8565b91505092959194509250565b600081519050919050565b600082825260208201905092915050565b60005b838110156132fb5780820151818401526020810190506132e0565b60008484015250505050565b6000613312826132c1565b61331c81856132cc565b935061332c8185602086016132dd565b613335816130ca565b840191505092915050565b6000602082019050818103600083015261335a8184613307565b905092915050565b6000819050919050565b61337581613362565b811461338057600080fd5b50565b6000813590506133928161336c565b92915050565b6000602082840312156133ae576133ad612f9d565b5b60006133bc84828501613383565b91505092915050565b6133ce81613082565b82525050565b60006020820190506133e960008301846133c5565b92915050565b6000806040838503121561340657613405612f9d565b5b6000613414858286016130ab565b925050602061342585828601613383565b9150509250929050565b61343881613362565b82525050565b6000602082019050613453600083018461342f565b92915050565b600080604083850312156134705761346f612f9d565b5b600061347e85828601613383565b925050602061348f85828601613383565b9150509250929050565b7f4e487b7100000000000000000000000000000000000000000000000000000000600052602160045260246000fd5b600381106134d9576134d8613499565b5b50565b60008190506134ea826134c8565b919050565b60006134fa826134dc565b9050919050565b61350a816134ef565b82525050565b600060808201905061352560008301876133c5565b613532602083018661342f565b61353f604083018561342f565b61354c6060830184613501565b95945050505050565b60008060006060848603121561356e5761356d612f9d565b5b600061357c868287016130ab565b935050602061358d868287016130ab565b925050604061359e86828701613383565b9150509250925092565b600081519050919050565b600082825260208201905092915050565b6000819050602082019050919050565b6135dd81613082565b82525050565b6135ec81613362565b82525050565b6135fb816134ef565b82525050565b60808201600082015161361760008501826135d4565b50602082015161362a60208501826135e3565b50604082015161363d60408501826135e3565b50606082015161365060608501826135f2565b50505050565b60006136628383613601565b60808301905092915050565b6000602082019050919050565b6000613686826135a8565b61369081856135b3565b935061369b836135c4565b8060005b838110156136cc5781516136b38882613656565b97506136be8361366e565b92505060018101905061369f565b5085935050505092915050565b600060208201905081810360008301526136f3818461367b565b905092915050565b60006020828403121561371157613710612f9d565b5b600061371f848285016130ab565b91505092915050565b600081519050919050565b600082825260208201905092915050565b6000819050602082019050919050565b600082825260208201905092915050565b6000613770826132c1565b61377a8185613754565b935061378a8185602086016132dd565b613793816130ca565b840191505092915050565b60006060830160008301516137b660008601826135e3565b50602083015184820360208601526137ce8282613765565b915050604083015184820360408601526137e88282613765565b9150508091505092915050565b600060808301600083015161380d60008601826135e3565b50602083015184820360208601526138258282613765565b915050604083015161383a60408601826135d4565b5060608301518482036060860152613852828261379e565b9150508091505092915050565b600061386b83836137f5565b905092915050565b6000602082019050919050565b600061388b82613728565b6138958185613733565b9350836020820285016138a785613744565b8060005b858110156138e357848403895281516138c4858261385f565b94506138cf83613873565b925060208a019950506001810190506138ab565b50829750879550505050505092915050565b6000602082019050818103600083015261390f8184613880565b905092915050565b600060608201905061392c600083018661342f565b818103602083015261393e8185613307565b905081810360408301526139528184613307565b9050949350505050565b6139658161302c565b811461397057600080fd5b50565b6000813590506139828161395c565b92915050565b6000806040838503121561399f5761399e612f9d565b5b60006139ad858286016130ab565b92505060206139be85828601613973565b9150509250929050565b600067ffffffffffffffff8211156139e3576139e26130db565b5b6139ec826130ca565b9050602081019050919050565b6000613a0c613a07846139c8565b61313b565b905082815260208101848484011115613a2857613a276130c5565b5b613a33848285613187565b509392505050565b600082601f830112613a5057613a4f6130c0565b5b8135613a608482602086016139f9565b91505092915050565b60008060008060808587031215613a8357613a82612f9d565b5b6000613a91878288016130ab565b9450506020613aa2878288016130ab565b9350506040613ab387828801613383565b925050606085013567ffffffffffffffff811115613ad457613ad3612fa2565b5b613ae087828801613a3b565b91505092959194509250565b6000604082019050613b01600083018561342f565b613b0e602083018461342f565b9392505050565b6000608083016000830151613b2d60008601826135e3565b5060208301518482036020860152613b458282613765565b9150506040830151613b5a60408601826135d4565b5060608301518482036060860152613b72828261379e565b9150508091505092915050565b60006020820190508181036000830152613b998184613b15565b905092915050565b604082016000820151613bb760008501826135e3565b506020820151613bca60208501826135e3565b50505050565b6000604082019050613be56000830184613ba1565b92915050565b60008060408385031215613c0257613c01612f9d565b5b6000613c10858286016130ab565b9250506020613c21858286016130ab565b9150509250929050565b7f4e487b7100000000000000000000000000000000000000000000000000000000600052602260045260246000fd5b60006002820490506001821680613c7257607f821691505b602082108103613c8557613c84613c2b565b5b50919050565b60008190508160005260206000209050919050565b60006020601f8301049050919050565b600082821b905092915050565b600060088302613ced7fffffffffffffffffffffffffffffffffffffffffffffffffffffffffffffffff82613cb0565b613cf78683613cb0565b95508019841693508086168417925050509392505050565b6000819050919050565b6000613d34613d2f613d2a84613362565b613d0f565b613362565b9050919050565b6000819050919050565b613d4e83613d19565b613d62613d5a82613d3b565b848454613cbd565b825550505050565b600090565b613d77613d6a565b613d82818484613d45565b505050565b5b81811015613da657613d9b600082613d6f565b600181019050613d88565b5050565b601f821115613deb57613dbc81613c8b565b613dc584613ca0565b81016020851015613dd4578190505b613de8613de085613ca0565b830182613d87565b50505b505050565b600082821c905092915050565b6000613e0e60001984600802613df0565b1980831691505092915050565b6000613e278383613dfd565b9150826002028217905092915050565b613e40826132c1565b67ffffffffffffffff811115613e5957613e586130db565b5b613e638254613c5a565b613e6e828285613daa565b600060209050601f831160018114613ea15760008415613e8f578287015190505b613e998582613e1b565b865550613f01565b601f198416613eaf86613c8b565b60005b82811015613ed757848901518255600182019150602085019450602081019050613eb2565b86831015613ef45784890151613ef0601f891682613dfd565b8355505b6001600288020188555050505b505050505050565b7f4552433732313a20617070726f76616c20746f2063757272656e74206f776e6560008201527f7200000000000000000000000000000000000000000000000000000000000000602082015250565b6000613f656021836132cc565b9150613f7082613f09565b604082019050919050565b60006020820190508181036000830152613f9481613f58565b9050919050565b7f4552433732313a20617070726f76652063616c6c6572206973206e6f7420746f60008201527f6b656e206f776e6572206f7220617070726f76656420666f7220616c6c000000602082015250565b6000613ff7603d836132cc565b915061400282613f9b565b604082019050919050565b6000602082019050818103600083015261402681613fea565b9050919050565b7f4552433732313a2063616c6c6572206973206e6f7420746f6b656e206f776e6560008201527f72206f7220617070726f76656400000000000000000000000000000000000000602082015250565b6000614089602d836132cc565b91506140948261402d565b604082019050919050565b600060208201905081810360008301526140b88161407c565b9050919050565b7f596f752063616e6e6f742073656c6c204e465473207468617420796f7520646f60008201527f206e6f74206f776e000000000000000000000000000000000000000000000000602082015250565b600061411b6028836132cc565b9150614126826140bf565b604082019050919050565b6000602082019050818103600083015261414a8161410e565b9050919050565b7f5072696365206d7573742062652067726561746572207468616e203000000000600082015250565b6000614187601c836132cc565b915061419282614151565b602082019050919050565b600060208201905081810360008301526141b68161417a565b9050919050565b7f455243373231456e756d657261626c653a206f776e657220696e646578206f7560008201527f74206f6620626f756e6473000000000000000000000000000000000000000000602082015250565b6000614219602b836132cc565b9150614224826141bd565b604082019050919050565b600060208201905081810360008301526142488161420c565b9050919050565b7f455243373231456e756d657261626c653a20676c6f62616c20696e646578206f60008201527f7574206f6620626f756e64730000000000000000000000000000000000000000602082015250565b60006142ab602c836132cc565b91506142b68261424f565b604082019050919050565b600060208201905081810360008301526142da8161429e565b9050919050565b7f4e487b7100000000000000000000000000000000000000000000000000000000600052603260045260246000fd5b7f4e487b7100000000000000000000000000000000000000000000000000000000600052601160045260246000fd5b600061434a82613362565b91507fffffffffffffffffffffffffffffffffffffffffffffffffffffffffffffffff820361437c5761437b614310565b5b600182019050919050565b7f4552433732313a20696e76616c696420746f6b656e2049440000000000000000600082015250565b60006143bd6018836132cc565b91506143c882614387565b602082019050919050565b600060208201905081810360008301526143ec816143b0565b9050919050565b7f4552433732313a2061646472657373207a65726f206973206e6f74206120766160008201527f6c6964206f776e65720000000000000000000000000000000000000000000000602082015250565b600061444f6029836132cc565b915061445a826143f3565b604082019050919050565b6000602082019050818103600083015261447e81614442565b9050919050565b7f596f752063616e6e6f742062757920796f7572206f776e204e46540000000000600082015250565b60006144bb601b836132cc565b91506144c682614485565b602082019050919050565b600060208201905081810360008301526144ea816144ae565b9050919050565b7f4f66666572206d7573742062652067726561746572207468616e203000000000600082015250565b6000614527601c836132cc565b9150614532826144f1565b602082019050919050565b600060208201905081810360008301526145568161451a565b9050919050565b7f45524337323155524953746f726167653a2055524920736574206f66206e6f6e60008201527f6578697374656e7420746f6b656e000000000000000000000000000000000000602082015250565b60006145b9602e836132cc565b91506145c48261455d565b604082019050919050565b600060208201905081810360008301526145e8816145ac565b9050919050565b7f4552433732313a207472616e736665722066726f6d20696e636f72726563742060008201527f6f776e6572000000000000000000000000000000000000000000000000000000602082015250565b600061464b6025836132cc565b9150614656826145ef565b604082019050919050565b6000602082019050818103600083015261467a8161463e565b9050919050565b7f4552433732313a207472616e7366657220746f20746865207a65726f2061646460008201527f7265737300000000000000000000000000000000000000000000000000000000602082015250565b60006146dd6024836132cc565b91506146e882614681565b604082019050919050565b6000602082019050818103600083015261470c816146d0565b9050919050565b7f4552433732313a20617070726f766520746f2063616c6c657200000000000000600082015250565b60006147496019836132cc565b915061475482614713565b602082019050919050565b600060208201905081810360008301526147788161473c565b9050919050565b7f4552433732313a207472616e7366657220746f206e6f6e20455243373231526560008201527f63656976657220696d706c656d656e7465720000000000000000000000000000602082015250565b60006147db6032836132cc565b91506147e68261477f565b604082019050919050565b6000602082019050818103600083015261480a816147ce565b9050919050565b600081905092915050565b6000614827826132c1565b6148318185614811565b93506148418185602086016132dd565b80840191505092915050565b6000614859828561481c565b9150614865828461481c565b91508190509392505050565b600081519050919050565b600082825260208201905092915050565b600061489882614871565b6148a2818561487c565b93506148b28185602086016132dd565b6148bb816130ca565b840191505092915050565b60006080820190506148db60008301876133c5565b6148e860208301866133c5565b6148f5604083018561342f565b8181036060830152614907818461488d565b905095945050505050565b60008151905061492181612fd3565b92915050565b60006020828403121561493d5761493c612f9d565b5b600061494b84828501614912565b91505092915050565b7f4552433732313a206d696e7420746f20746865207a65726f2061646472657373600082015250565b600061498a6020836132cc565b915061499582614954565b602082019050919050565b600060208201905081810360008301526149b98161497d565b9050919050565b7f4552433732313a20746f6b656e20616c7265616479206d696e74656400000000600082015250565b60006149f6601c836132cc565b9150614a01826149c0565b602082019050919050565b60006020820190508181036000830152614a25816149e9565b9050919050565b7f455243373231456e756d657261626c653a20636f6e736563757469766520747260008201527f616e7366657273206e6f7420737570706f727465640000000000000000000000602082015250565b6000614a886035836132cc565b9150614a9382614a2c565b604082019050919050565b60006020820190508181036000830152614ab781614a7b565b9050919050565b7f4e487b7100000000000000000000000000000000000000000000000000000000600052601260045260246000fd5b6000614af882613362565b9150614b0383613362565b9250828203905081811115614b1b57614b1a614310565b5b92915050565b7f4e487b7100000000000000000000000000000000000000000000000000000000600052603160045260246000fdfea2646970667358221220ad8672d335703d462f6e1c25dab451a65e12cc4ff55196236d0c4fbbdcf16e8864736f6c63430008130033",
  "linkReferences": {},
  "deployedLinkReferences": {}
}