{
  "_format": "hh-sol-artifact-1",
  "contractName": "Encode",
  "sourceName": "contracts/Encode.sol",
  "abi": [
    {
      "inputs": [],
      "stateMutability": "nonpayable",
      "type": "constructor"
    },
    {
      "anonymous": false,
      "inputs": [
        {
          "indexed": true,
          "internalType": "address",
          "name": "owner",
          "type": "address"
        },
        {
          "indexed": true,
          "internalType": "address",
          "name": "approved",
          "type": "address"
        },
        {
          "indexed": true,
          "internalType": "uint256",
          "name": "tokenId",
          "type": "uint256"
        }
      ],
      "name": "Approval",
      "type": "event"
    },
    {
      "anonymous": false,
      "inputs": [
        {
          "indexed": true,
          "internalType": "address",
          "name": "owner",
          "type": "address"
        },
        {
          "indexed": true,
          "internalType": "address",
          "name": "operator",
          "type": "address"
        },
        {
          "indexed": false,
          "internalType": "bool",
          "name": "approved",
          "type": "bool"
        }
      ],
      "name": "ApprovalForAll",
      "type": "event"
    },
    {
      "anonymous": false,
      "inputs": [
        {
          "indexed": true,
          "internalType": "address",
          "name": "from",
          "type": "address"
        },
        {
          "indexed": true,
          "internalType": "address",
          "name": "to",
          "type": "address"
        },
        {
          "indexed": true,
          "internalType": "uint256",
          "name": "tokenId",
          "type": "uint256"
        }
      ],
      "name": "Transfer",
      "type": "event"
    },
    {
      "inputs": [
        {
          "internalType": "address",
          "name": "to",
          "type": "address"
        },
        {
          "internalType": "uint256",
          "name": "tokenId",
          "type": "uint256"
        }
      ],
      "name": "approve",
      "outputs": [],
      "stateMutability": "nonpayable",
      "type": "function"
    },
    {
      "inputs": [
        {
          "internalType": "address",
          "name": "owner",
          "type": "address"
        }
      ],
      "name": "balanceOf",
      "outputs": [
        {
          "internalType": "uint256",
          "name": "",
          "type": "uint256"
        }
      ],
      "stateMutability": "view",
      "type": "function"
    },
    {
      "inputs": [
        {
          "internalType": "uint256",
          "name": "tokenId",
          "type": "uint256"
        }
      ],
      "name": "burn",
      "outputs": [],
      "stateMutability": "nonpayable",
      "type": "function"
    },
    {
      "inputs": [
        {
          "internalType": "uint256",
          "name": "",
          "type": "uint256"
        },
        {
          "internalType": "uint256",
          "name": "",
          "type": "uint256"
        }
      ],
      "name": "buyingRequests",
      "outputs": [
        {
          "internalType": "address",
          "name": "buyer",
          "type": "address"
        },
        {
          "internalType": "uint256",
          "name": "offer",
          "type": "uint256"
        },
        {
          "internalType": "uint256",
          "name": "timestamp",
          "type": "uint256"
        },
        {
          "internalType": "enum Encode.BuyingRequestStatus",
          "name": "status",
          "type": "uint8"
        }
      ],
      "stateMutability": "view",
      "type": "function"
    },
    {
      "inputs": [
        {
          "internalType": "uint256",
          "name": "tokenId",
          "type": "uint256"
        },
        {
          "internalType": "uint256",
          "name": "offer",
          "type": "uint256"
        }
      ],
      "name": "createBuyingRequest",
      "outputs": [],
      "stateMutability": "nonpayable",
      "type": "function"
    },
    {
      "inputs": [
        {
          "internalType": "uint256",
          "name": "tokenId",
          "type": "uint256"
        },
        {
          "internalType": "uint256",
          "name": "price",
          "type": "uint256"
        }
      ],
      "name": "createSellingListing",
      "outputs": [],
      "stateMutability": "nonpayable",
      "type": "function"
    },
    {
      "inputs": [
        {
          "internalType": "uint256",
          "name": "tokenId",
          "type": "uint256"
        }
      ],
      "name": "getApproved",
      "outputs": [
        {
          "internalType": "address",
          "name": "",
          "type": "address"
        }
      ],
      "stateMutability": "view",
      "type": "function"
    },
    {
      "inputs": [
        {
          "internalType": "uint256",
          "name": "tokenId",
          "type": "uint256"
        }
      ],
      "name": "getBuyingRequests",
      "outputs": [
        {
          "components": [
            {
              "internalType": "address",
              "name": "buyer",
              "type": "address"
            },
            {
              "internalType": "uint256",
              "name": "offer",
              "type": "uint256"
            },
            {
              "internalType": "uint256",
              "name": "timestamp",
              "type": "uint256"
            },
            {
              "internalType": "enum Encode.BuyingRequestStatus",
              "name": "status",
              "type": "uint8"
            }
          ],
          "internalType": "struct Encode.BuyingRequest[]",
          "name": "",
          "type": "tuple[]"
        }
      ],
      "stateMutability": "view",
      "type": "function"
    },
    {
      "inputs": [
        {
          "internalType": "uint256",
          "name": "tokenId",
          "type": "uint256"
        }
      ],
      "name": "getSellingListings",
      "outputs": [
        {
          "components": [
            {
              "internalType": "uint256",
              "name": "price",
              "type": "uint256"
            },
            {
              "internalType": "uint256",
              "name": "timestamp",
              "type": "uint256"
            }
          ],
          "internalType": "struct Encode.SellingListing",
          "name": "",
          "type": "tuple"
        }
      ],
      "stateMutability": "view",
      "type": "function"
    },
    {
      "inputs": [
        {
          "internalType": "address",
          "name": "addr",
          "type": "address"
        }
      ],
      "name": "getTokensOfOwner",
      "outputs": [
        {
          "components": [
            {
              "internalType": "uint256",
              "name": "id",
              "type": "uint256"
            },
            {
              "internalType": "string",
              "name": "uri",
              "type": "string"
            }
          ],
          "internalType": "struct Encode.tokenInfo[]",
          "name": "",
          "type": "tuple[]"
        }
      ],
      "stateMutability": "view",
      "type": "function"
    },
    {
      "inputs": [
        {
          "internalType": "address",
          "name": "owner",
          "type": "address"
        },
        {
          "internalType": "address",
          "name": "operator",
          "type": "address"
        }
      ],
      "name": "isApprovedForAll",
      "outputs": [
        {
          "internalType": "bool",
          "name": "",
          "type": "bool"
        }
      ],
      "stateMutability": "view",
      "type": "function"
    },
    {
      "inputs": [],
      "name": "name",
      "outputs": [
        {
          "internalType": "string",
          "name": "",
          "type": "string"
        }
      ],
      "stateMutability": "view",
      "type": "function"
    },
    {
      "inputs": [
        {
          "internalType": "uint256",
          "name": "tokenId",
          "type": "uint256"
        }
      ],
      "name": "ownerOf",
      "outputs": [
        {
          "internalType": "address",
          "name": "",
          "type": "address"
        }
      ],
      "stateMutability": "view",
      "type": "function"
    },
    {
      "inputs": [
        {
          "internalType": "address",
          "name": "to",
          "type": "address"
        },
        {
          "internalType": "string",
          "name": "uri",
          "type": "string"
        }
      ],
      "name": "safeMint",
      "outputs": [],
      "stateMutability": "nonpayable",
      "type": "function"
    },
    {
      "inputs": [
        {
          "internalType": "address",
          "name": "from",
          "type": "address"
        },
        {
          "internalType": "address",
          "name": "to",
          "type": "address"
        },
        {
          "internalType": "uint256",
          "name": "tokenId",
          "type": "uint256"
        }
      ],
      "name": "safeTransferFrom",
      "outputs": [],
      "stateMutability": "nonpayable",
      "type": "function"
    },
    {
      "inputs": [
        {
          "internalType": "address",
          "name": "from",
          "type": "address"
        },
        {
          "internalType": "address",
          "name": "to",
          "type": "address"
        },
        {
          "internalType": "uint256",
          "name": "tokenId",
          "type": "uint256"
        },
        {
          "internalType": "bytes",
          "name": "data",
          "type": "bytes"
        }
      ],
      "name": "safeTransferFrom",
      "outputs": [],
      "stateMutability": "nonpayable",
      "type": "function"
    },
    {
      "inputs": [
        {
          "internalType": "uint256",
          "name": "",
          "type": "uint256"
        }
      ],
      "name": "sellingListings",
      "outputs": [
        {
          "internalType": "uint256",
          "name": "price",
          "type": "uint256"
        },
        {
          "internalType": "uint256",
          "name": "timestamp",
          "type": "uint256"
        }
      ],
      "stateMutability": "view",
      "type": "function"
    },
    {
      "inputs": [
        {
          "internalType": "address",
          "name": "operator",
          "type": "address"
        },
        {
          "internalType": "bool",
          "name": "approved",
          "type": "bool"
        }
      ],
      "name": "setApprovalForAll",
      "outputs": [],
      "stateMutability": "nonpayable",
      "type": "function"
    },
    {
      "inputs": [
        {
          "internalType": "bytes4",
          "name": "interfaceId",
          "type": "bytes4"
        }
      ],
      "name": "supportsInterface",
      "outputs": [
        {
          "internalType": "bool",
          "name": "",
          "type": "bool"
        }
      ],
      "stateMutability": "view",
      "type": "function"
    },
    {
      "inputs": [],
      "name": "symbol",
      "outputs": [
        {
          "internalType": "string",
          "name": "",
          "type": "string"
        }
      ],
      "stateMutability": "view",
      "type": "function"
    },
    {
      "inputs": [
        {
          "internalType": "uint256",
          "name": "index",
          "type": "uint256"
        }
      ],
      "name": "tokenByIndex",
      "outputs": [
        {
          "internalType": "uint256",
          "name": "",
          "type": "uint256"
        }
      ],
      "stateMutability": "view",
      "type": "function"
    },
    {
      "inputs": [
        {
          "internalType": "address",
          "name": "owner",
          "type": "address"
        },
        {
          "internalType": "uint256",
          "name": "index",
          "type": "uint256"
        }
      ],
      "name": "tokenOfOwnerByIndex",
      "outputs": [
        {
          "internalType": "uint256",
          "name": "",
          "type": "uint256"
        }
      ],
      "stateMutability": "view",
      "type": "function"
    },
    {
      "inputs": [
        {
          "internalType": "uint256",
          "name": "tokenId",
          "type": "uint256"
        }
      ],
      "name": "tokenURI",
      "outputs": [
        {
          "internalType": "string",
          "name": "",
          "type": "string"
        }
      ],
      "stateMutability": "view",
      "type": "function"
    },
    {
      "inputs": [],
      "name": "totalSupply",
      "outputs": [
        {
          "internalType": "uint256",
          "name": "",
          "type": "uint256"
        }
      ],
      "stateMutability": "view",
      "type": "function"
    },
    {
      "inputs": [
        {
          "internalType": "address",
          "name": "from",
          "type": "address"
        },
        {
          "internalType": "address",
          "name": "to",
          "type": "address"
        },
        {
          "internalType": "uint256",
          "name": "tokenId",
          "type": "uint256"
        }
      ],
      "name": "transferFrom",
      "outputs": [],
      "stateMutability": "nonpayable",
      "type": "function"
    }
  ],
  "bytecode": "0x60806040523480156200001157600080fd5b506040518060400160405280600681526020017f456e636f646500000000000000000000000000000000000000000000000000008152506040518060400160405280600381526020017f454e43000000000000000000000000000000000000000000000000000000000081525081600090816200008f919062000324565b508060019081620000a1919062000324565b5050506200040b565b600081519050919050565b7f4e487b7100000000000000000000000000000000000000000000000000000000600052604160045260246000fd5b7f4e487b7100000000000000000000000000000000000000000000000000000000600052602260045260246000fd5b600060028204905060018216806200012c57607f821691505b602082108103620001425762000141620000e4565b5b50919050565b60008190508160005260206000209050919050565b60006020601f8301049050919050565b600082821b905092915050565b600060088302620001ac7fffffffffffffffffffffffffffffffffffffffffffffffffffffffffffffffff826200016d565b620001b886836200016d565b95508019841693508086168417925050509392505050565b6000819050919050565b6000819050919050565b600062000205620001ff620001f984620001d0565b620001da565b620001d0565b9050919050565b6000819050919050565b6200022183620001e4565b6200023962000230826200020c565b8484546200017a565b825550505050565b600090565b6200025062000241565b6200025d81848462000216565b505050565b5b8181101562000285576200027960008262000246565b60018101905062000263565b5050565b601f821115620002d4576200029e8162000148565b620002a9846200015d565b81016020851015620002b9578190505b620002d1620002c8856200015d565b83018262000262565b50505b505050565b600082821c905092915050565b6000620002f960001984600802620002d9565b1980831691505092915050565b6000620003148383620002e6565b9150826002028217905092915050565b6200032f82620000aa565b67ffffffffffffffff8111156200034b576200034a620000b5565b5b62000357825462000113565b6200036482828562000289565b600060209050601f8311600181146200039c576000841562000387578287015190505b62000393858262000306565b86555062000403565b601f198416620003ac8662000148565b60005b82811015620003d657848901518255600182019150602085019450602081019050620003af565b86831015620003f65784890151620003f2601f891682620002e6565b8355505b6001600288020188555050505b505050505050565b61442e806200041b6000396000f3fe608060405234801561001057600080fd5b50600436106101735760003560e01c8063596fbfb0116100de578063a22cb46511610097578063d204c45e11610071578063d204c45e14610495578063d7fd62fd146104b1578063e6f80ae6146104e2578063e985e9c51461051257610173565b8063a22cb4651461042d578063b88d4fde14610449578063c87b56dd1461046557610173565b8063596fbfb0146103335780635de6dc55146103635780636352211e1461039357806370a08231146103c35780638f747dd0146103f357806395d89b411461040f57610173565b806323b872dd1161013057806323b872dd1461026357806324f763d91461027f5780632f745c591461029b57806342842e0e146102cb57806342966c68146102e75780634f6ccce71461030357610173565b806301ffc9a71461017857806306fdde03146101a8578063081812fc146101c6578063095ea7b3146101f657806318160ddd146102125780631f8276b814610230575b600080fd5b610192600480360381019061018d9190612a5b565b610542565b60405161019f9190612aa3565b60405180910390f35b6101b0610554565b6040516101bd9190612b4e565b60405180910390f35b6101e060048036038101906101db9190612ba6565b6105e6565b6040516101ed9190612c14565b60405180910390f35b610210600480360381019061020b9190612c5b565b61062c565b005b61021a610743565b6040516102279190612caa565b60405180910390f35b61024a60048036038101906102459190612cc5565b610750565b60405161025a9493929190612d7c565b60405180910390f35b61027d60048036038101906102789190612dc1565b6107ca565b005b61029960048036038101906102949190612cc5565b61082a565b005b6102b560048036038101906102b09190612c5b565b610930565b6040516102c29190612caa565b60405180910390f35b6102e560048036038101906102e09190612dc1565b6109d5565b005b61030160048036038101906102fc9190612ba6565b6109f5565b005b61031d60048036038101906103189190612ba6565b610a51565b60405161032a9190612caa565b60405180910390f35b61034d60048036038101906103489190612ba6565b610ac2565b60405161035a9190612f45565b60405180910390f35b61037d60048036038101906103789190612f67565b610bd9565b60405161038a91906130dd565b60405180910390f35b6103ad60048036038101906103a89190612ba6565b610cb3565b6040516103ba9190612c14565b60405180910390f35b6103dd60048036038101906103d89190612f67565b610d39565b6040516103ea9190612caa565b60405180910390f35b61040d60048036038101906104089190612cc5565b610df0565b005b610417610fc0565b6040516104249190612b4e565b60405180910390f35b6104476004803603810190610442919061312b565b611052565b005b610463600480360381019061045e91906132a0565b611068565b005b61047f600480360381019061047a9190612ba6565b6110ca565b60405161048c9190612b4e565b60405180910390f35b6104af60048036038101906104aa91906133c4565b6110dc565b005b6104cb60048036038101906104c69190612ba6565b61110d565b6040516104d9929190613420565b60405180910390f35b6104fc60048036038101906104f79190612ba6565b611131565b6040516105099190613478565b60405180910390f35b61052c60048036038101906105279190613493565b611172565b6040516105399190612aa3565b60405180910390f35b600061054d82611206565b9050919050565b60606000805461056390613502565b80601f016020809104026020016040519081016040528092919081815260200182805461058f90613502565b80156105dc5780601f106105b1576101008083540402835291602001916105dc565b820191906000526020600020905b8154815290600101906020018083116105bf57829003601f168201915b5050505050905090565b60006105f182611280565b6004600083815260200190815260200160002060009054906101000a900473ffffffffffffffffffffffffffffffffffffffff169050919050565b600061063782610cb3565b90508073ffffffffffffffffffffffffffffffffffffffff168373ffffffffffffffffffffffffffffffffffffffff16036106a7576040517f08c379a000000000000000000000000000000000000000000000000000000000815260040161069e906135a5565b60405180910390fd5b8073ffffffffffffffffffffffffffffffffffffffff166106c66112cb565b73ffffffffffffffffffffffffffffffffffffffff1614806106f557506106f4816106ef6112cb565b611172565b5b610734576040517f08c379a000000000000000000000000000000000000000000000000000000000815260040161072b90613637565b60405180910390fd5b61073e83836112d3565b505050565b6000600880549050905090565b600c602052816000526040600020818154811061076c57600080fd5b9060005260206000209060040201600091509150508060000160009054906101000a900473ffffffffffffffffffffffffffffffffffffffff16908060010154908060020154908060030160009054906101000a900460ff16905084565b6107db6107d56112cb565b8261138c565b61081a576040517f08c379a0000000000000000000000000000000000000000000000000000000008152600401610811906136c9565b60405180910390fd5b610825838383611421565b505050565b3373ffffffffffffffffffffffffffffffffffffffff1661084a83610cb3565b73ffffffffffffffffffffffffffffffffffffffff16146108a0576040517f08c379a00000000000000000000000000000000000000000000000000000000081526004016108979061375b565b60405180910390fd5b600081116108e3576040517f08c379a00000000000000000000000000000000000000000000000000000000081526004016108da906137c7565b60405180910390fd5b6108ed308361062c565b604051806040016040528082815260200142815250600d600084815260200190815260200160002060008201518160000155602082015181600101559050505050565b600061093b83610d39565b821061097c576040517f08c379a000000000000000000000000000000000000000000000000000000000815260040161097390613859565b60405180910390fd5b600660008473ffffffffffffffffffffffffffffffffffffffff1673ffffffffffffffffffffffffffffffffffffffff168152602001908152602001600020600083815260200190815260200160002054905092915050565b6109f083838360405180602001604052806000815250611068565b505050565b610a06610a006112cb565b8261138c565b610a45576040517f08c379a0000000000000000000000000000000000000000000000000000000008152600401610a3c906136c9565b60405180910390fd5b610a4e8161171a565b50565b6000610a5b610743565b8210610a9c576040517f08c379a0000000000000000000000000000000000000000000000000000000008152600401610a93906138eb565b60405180910390fd5b60088281548110610ab057610aaf61390b565b5b90600052602060002001549050919050565b6060600c6000838152602001908152602001600020805480602002602001604051908101604052809291908181526020016000905b82821015610bce57838290600052602060002090600402016040518060800160405290816000820160009054906101000a900473ffffffffffffffffffffffffffffffffffffffff1673ffffffffffffffffffffffffffffffffffffffff1673ffffffffffffffffffffffffffffffffffffffff16815260200160018201548152602001600282015481526020016003820160009054906101000a900460ff166002811115610ba957610ba8612d05565b5b6002811115610bbb57610bba612d05565b5b8152505081526020019060010190610af7565b505050509050919050565b60606000610be683610d39565b905060008167ffffffffffffffff811115610c0457610c03613175565b5b604051908082528060200260200182016040528015610c3d57816020015b610c2a61295e565b815260200190600190039081610c225790505b50905060005b82811015610ca8576000610c578683610930565b90506040518060400160405280828152602001610c73836110ca565b815250838381518110610c8957610c8861390b565b5b6020026020010181905250508080610ca090613969565b915050610c43565b508092505050919050565b600080610cbf83611726565b9050600073ffffffffffffffffffffffffffffffffffffffff168173ffffffffffffffffffffffffffffffffffffffff1603610d30576040517f08c379a0000000000000000000000000000000000000000000000000000000008152600401610d27906139fd565b60405180910390fd5b80915050919050565b60008073ffffffffffffffffffffffffffffffffffffffff168273ffffffffffffffffffffffffffffffffffffffff1603610da9576040517f08c379a0000000000000000000000000000000000000000000000000000000008152600401610da090613a8f565b60405180910390fd5b600360008373ffffffffffffffffffffffffffffffffffffffff1673ffffffffffffffffffffffffffffffffffffffff168152602001908152602001600020549050919050565b3373ffffffffffffffffffffffffffffffffffffffff16610e1083610cb3565b73ffffffffffffffffffffffffffffffffffffffff1603610e66576040517f08c379a0000000000000000000000000000000000000000000000000000000008152600401610e5d90613afb565b60405180910390fd5b60008111610ea9576040517f08c379a0000000000000000000000000000000000000000000000000000000008152600401610ea090613b67565b60405180910390fd5b600c600083815260200190815260200160002060405180608001604052803373ffffffffffffffffffffffffffffffffffffffff16815260200183815260200142815260200160006002811115610f0357610f02612d05565b5b815250908060018154018082558091505060019003906000526020600020906004020160009091909190915060008201518160000160006101000a81548173ffffffffffffffffffffffffffffffffffffffff021916908373ffffffffffffffffffffffffffffffffffffffff160217905550602082015181600101556040820151816002015560608201518160030160006101000a81548160ff02191690836002811115610fb557610fb4612d05565b5b021790555050505050565b606060018054610fcf90613502565b80601f0160208091040260200160405190810160405280929190818152602001828054610ffb90613502565b80156110485780601f1061101d57610100808354040283529160200191611048565b820191906000526020600020905b81548152906001019060200180831161102b57829003601f168201915b5050505050905090565b61106461105d6112cb565b8383611763565b5050565b6110796110736112cb565b8361138c565b6110b8576040517f08c379a00000000000000000000000000000000000000000000000000000000081526004016110af906136c9565b60405180910390fd5b6110c4848484846118cf565b50505050565b60606110d58261192b565b9050919050565b60006110e8600b611a3d565b90506110f4600b611a4b565b6110fe8382611a61565b6111088183611a7f565b505050565b600d6020528060005260406000206000915090508060000154908060010154905082565b611139612978565b600d6000838152602001908152602001600020604051806040016040529081600082015481526020016001820154815250509050919050565b6000600560008473ffffffffffffffffffffffffffffffffffffffff1673ffffffffffffffffffffffffffffffffffffffff16815260200190815260200160002060008373ffffffffffffffffffffffffffffffffffffffff1673ffffffffffffffffffffffffffffffffffffffff16815260200190815260200160002060009054906101000a900460ff16905092915050565b60007f780e9d63000000000000000000000000000000000000000000000000000000007bffffffffffffffffffffffffffffffffffffffffffffffffffffffff1916827bffffffffffffffffffffffffffffffffffffffffffffffffffffffff19161480611279575061127882611aec565b5b9050919050565b61128981611bce565b6112c8576040517f08c379a00000000000000000000000000000000000000000000000000000000081526004016112bf906139fd565b60405180910390fd5b50565b600033905090565b816004600083815260200190815260200160002060006101000a81548173ffffffffffffffffffffffffffffffffffffffff021916908373ffffffffffffffffffffffffffffffffffffffff160217905550808273ffffffffffffffffffffffffffffffffffffffff1661134683610cb3565b73ffffffffffffffffffffffffffffffffffffffff167f8c5be1e5ebec7d5bd14f71427d1e84f3dd0314c0f7b2291e5b200ac8c7c3b92560405160405180910390a45050565b60008061139883610cb3565b90508073ffffffffffffffffffffffffffffffffffffffff168473ffffffffffffffffffffffffffffffffffffffff1614806113da57506113d98185611172565b5b8061141857508373ffffffffffffffffffffffffffffffffffffffff16611400846105e6565b73ffffffffffffffffffffffffffffffffffffffff16145b91505092915050565b8273ffffffffffffffffffffffffffffffffffffffff1661144182610cb3565b73ffffffffffffffffffffffffffffffffffffffff1614611497576040517f08c379a000000000000000000000000000000000000000000000000000000000815260040161148e90613bf9565b60405180910390fd5b600073ffffffffffffffffffffffffffffffffffffffff168273ffffffffffffffffffffffffffffffffffffffff1603611506576040517f08c379a00000000000000000000000000000000000000000000000000000000081526004016114fd90613c8b565b60405180910390fd5b6115138383836001611c0f565b8273ffffffffffffffffffffffffffffffffffffffff1661153382610cb3565b73ffffffffffffffffffffffffffffffffffffffff1614611589576040517f08c379a000000000000000000000000000000000000000000000000000000000815260040161158090613bf9565b60405180910390fd5b6004600082815260200190815260200160002060006101000a81549073ffffffffffffffffffffffffffffffffffffffff02191690556001600360008573ffffffffffffffffffffffffffffffffffffffff1673ffffffffffffffffffffffffffffffffffffffff168152602001908152602001600020600082825403925050819055506001600360008473ffffffffffffffffffffffffffffffffffffffff1673ffffffffffffffffffffffffffffffffffffffff16815260200190815260200160002060008282540192505081905550816002600083815260200190815260200160002060006101000a81548173ffffffffffffffffffffffffffffffffffffffff021916908373ffffffffffffffffffffffffffffffffffffffff160217905550808273ffffffffffffffffffffffffffffffffffffffff168473ffffffffffffffffffffffffffffffffffffffff167fddf252ad1be2c89b69c2b068fc378daa952ba7f163c4a11628f55a4df523b3ef60405160405180910390a46117158383836001611c21565b505050565b61172381611c27565b50565b60006002600083815260200190815260200160002060009054906101000a900473ffffffffffffffffffffffffffffffffffffffff169050919050565b8173ffffffffffffffffffffffffffffffffffffffff168373ffffffffffffffffffffffffffffffffffffffff16036117d1576040517f08c379a00000000000000000000000000000000000000000000000000000000081526004016117c890613cf7565b60405180910390fd5b80600560008573ffffffffffffffffffffffffffffffffffffffff1673ffffffffffffffffffffffffffffffffffffffff16815260200190815260200160002060008473ffffffffffffffffffffffffffffffffffffffff1673ffffffffffffffffffffffffffffffffffffffff16815260200190815260200160002060006101000a81548160ff0219169083151502179055508173ffffffffffffffffffffffffffffffffffffffff168373ffffffffffffffffffffffffffffffffffffffff167f17307eab39ab6107e8899845ad3d59bd9653f200f220920489ca2b5937696c31836040516118c29190612aa3565b60405180910390a3505050565b6118da848484611421565b6118e684848484611c7a565b611925576040517f08c379a000000000000000000000000000000000000000000000000000000000815260040161191c90613d89565b60405180910390fd5b50505050565b606061193682611280565b6000600a6000848152602001908152602001600020805461195690613502565b80601f016020809104026020016040519081016040528092919081815260200182805461198290613502565b80156119cf5780601f106119a4576101008083540402835291602001916119cf565b820191906000526020600020905b8154815290600101906020018083116119b257829003601f168201915b5050505050905060006119e0611e01565b905060008151036119f5578192505050611a38565b600082511115611a2a578082604051602001611a12929190613de5565b60405160208183030381529060405292505050611a38565b611a3384611e18565b925050505b919050565b600081600001549050919050565b6001816000016000828254019250508190555050565b611a7b828260405180602001604052806000815250611e80565b5050565b611a8882611bce565b611ac7576040517f08c379a0000000000000000000000000000000000000000000000000000000008152600401611abe90613e7b565b60405180910390fd5b80600a60008481526020019081526020016000209081611ae79190614047565b505050565b60007f80ac58cd000000000000000000000000000000000000000000000000000000007bffffffffffffffffffffffffffffffffffffffffffffffffffffffff1916827bffffffffffffffffffffffffffffffffffffffffffffffffffffffff19161480611bb757507f5b5e139f000000000000000000000000000000000000000000000000000000007bffffffffffffffffffffffffffffffffffffffffffffffffffffffff1916827bffffffffffffffffffffffffffffffffffffffffffffffffffffffff1916145b80611bc75750611bc682611edb565b5b9050919050565b60008073ffffffffffffffffffffffffffffffffffffffff16611bf083611726565b73ffffffffffffffffffffffffffffffffffffffff1614159050919050565b611c1b84848484611f45565b50505050565b50505050565b611c30816120a3565b6000600a60008381526020019081526020016000208054611c5090613502565b905014611c7757600a60008281526020019081526020016000206000611c769190612992565b5b50565b6000611c9b8473ffffffffffffffffffffffffffffffffffffffff166121f1565b15611df4578373ffffffffffffffffffffffffffffffffffffffff1663150b7a02611cc46112cb565b8786866040518563ffffffff1660e01b8152600401611ce6949392919061416e565b6020604051808303816000875af1925050508015611d2257506040513d601f19601f82011682018060405250810190611d1f91906141cf565b60015b611da4573d8060008114611d52576040519150601f19603f3d011682016040523d82523d6000602084013e611d57565b606091505b506000815103611d9c576040517f08c379a0000000000000000000000000000000000000000000000000000000008152600401611d9390613d89565b60405180910390fd5b805181602001fd5b63150b7a0260e01b7bffffffffffffffffffffffffffffffffffffffffffffffffffffffff1916817bffffffffffffffffffffffffffffffffffffffffffffffffffffffff191614915050611df9565b600190505b949350505050565b606060405180602001604052806000815250905090565b6060611e2382611280565b6000611e2d611e01565b90506000815111611e4d5760405180602001604052806000815250611e78565b80611e5784612214565b604051602001611e68929190613de5565b6040516020818303038152906040525b915050919050565b611e8a83836122e2565b611e976000848484611c7a565b611ed6576040517f08c379a0000000000000000000000000000000000000000000000000000000008152600401611ecd90613d89565b60405180910390fd5b505050565b60007f01ffc9a7000000000000000000000000000000000000000000000000000000007bffffffffffffffffffffffffffffffffffffffffffffffffffffffff1916827bffffffffffffffffffffffffffffffffffffffffffffffffffffffff1916149050919050565b611f51848484846124ff565b6001811115611f95576040517f08c379a0000000000000000000000000000000000000000000000000000000008152600401611f8c9061426e565b60405180910390fd5b6000829050600073ffffffffffffffffffffffffffffffffffffffff168573ffffffffffffffffffffffffffffffffffffffff1603611fdc57611fd781612505565b61201b565b8373ffffffffffffffffffffffffffffffffffffffff168573ffffffffffffffffffffffffffffffffffffffff161461201a57612019858261254e565b5b5b600073ffffffffffffffffffffffffffffffffffffffff168473ffffffffffffffffffffffffffffffffffffffff160361205d57612058816126bb565b61209c565b8473ffffffffffffffffffffffffffffffffffffffff168473ffffffffffffffffffffffffffffffffffffffff161461209b5761209a848261278c565b5b5b5050505050565b60006120ae82610cb3565b90506120be816000846001611c0f565b6120c782610cb3565b90506004600083815260200190815260200160002060006101000a81549073ffffffffffffffffffffffffffffffffffffffff02191690556001600360008373ffffffffffffffffffffffffffffffffffffffff1673ffffffffffffffffffffffffffffffffffffffff168152602001908152602001600020600082825403925050819055506002600083815260200190815260200160002060006101000a81549073ffffffffffffffffffffffffffffffffffffffff021916905581600073ffffffffffffffffffffffffffffffffffffffff168273ffffffffffffffffffffffffffffffffffffffff167fddf252ad1be2c89b69c2b068fc378daa952ba7f163c4a11628f55a4df523b3ef60405160405180910390a46121ed816000846001611c21565b5050565b6000808273ffffffffffffffffffffffffffffffffffffffff163b119050919050565b6060600060016122238461280b565b01905060008167ffffffffffffffff81111561224257612241613175565b5b6040519080825280601f01601f1916602001820160405280156122745781602001600182028036833780820191505090505b509050600082602001820190505b6001156122d7578080600190039150507f3031323334353637383961626364656600000000000000000000000000000000600a86061a8153600a85816122cb576122ca61428e565b5b04945060008503612282575b819350505050919050565b600073ffffffffffffffffffffffffffffffffffffffff168273ffffffffffffffffffffffffffffffffffffffff1603612351576040517f08c379a000000000000000000000000000000000000000000000000000000000815260040161234890614309565b60405180910390fd5b61235a81611bce565b1561239a576040517f08c379a000000000000000000000000000000000000000000000000000000000815260040161239190614375565b60405180910390fd5b6123a8600083836001611c0f565b6123b181611bce565b156123f1576040517f08c379a00000000000000000000000000000000000000000000000000000000081526004016123e890614375565b60405180910390fd5b6001600360008473ffffffffffffffffffffffffffffffffffffffff1673ffffffffffffffffffffffffffffffffffffffff16815260200190815260200160002060008282540192505081905550816002600083815260200190815260200160002060006101000a81548173ffffffffffffffffffffffffffffffffffffffff021916908373ffffffffffffffffffffffffffffffffffffffff160217905550808273ffffffffffffffffffffffffffffffffffffffff16600073ffffffffffffffffffffffffffffffffffffffff167fddf252ad1be2c89b69c2b068fc378daa952ba7f163c4a11628f55a4df523b3ef60405160405180910390a46124fb600083836001611c21565b5050565b50505050565b6008805490506009600083815260200190815260200160002081905550600881908060018154018082558091505060019003906000526020600020016000909190919091505550565b6000600161255b84610d39565b6125659190614395565b905060006007600084815260200190815260200160002054905081811461264a576000600660008673ffffffffffffffffffffffffffffffffffffffff1673ffffffffffffffffffffffffffffffffffffffff168152602001908152602001600020600084815260200190815260200160002054905080600660008773ffffffffffffffffffffffffffffffffffffffff1673ffffffffffffffffffffffffffffffffffffffff168152602001908152602001600020600084815260200190815260200160002081905550816007600083815260200190815260200160002081905550505b6007600084815260200190815260200160002060009055600660008573ffffffffffffffffffffffffffffffffffffffff1673ffffffffffffffffffffffffffffffffffffffff16815260200190815260200160002060008381526020019081526020016000206000905550505050565b600060016008805490506126cf9190614395565b90506000600960008481526020019081526020016000205490506000600883815481106126ff576126fe61390b565b5b9060005260206000200154905080600883815481106127215761272061390b565b5b9060005260206000200181905550816009600083815260200190815260200160002081905550600960008581526020019081526020016000206000905560088054806127705761276f6143c9565b5b6001900381819060005260206000200160009055905550505050565b600061279783610d39565b905081600660008573ffffffffffffffffffffffffffffffffffffffff1673ffffffffffffffffffffffffffffffffffffffff168152602001908152602001600020600083815260200190815260200160002081905550806007600084815260200190815260200160002081905550505050565b600080600090507a184f03e93ff9f4daa797ed6e38ed64bf6a1f0100000000000000008310612869577a184f03e93ff9f4daa797ed6e38ed64bf6a1f010000000000000000838161285f5761285e61428e565b5b0492506040810190505b6d04ee2d6d415b85acef810000000083106128a6576d04ee2d6d415b85acef8100000000838161289c5761289b61428e565b5b0492506020810190505b662386f26fc1000083106128d557662386f26fc1000083816128cb576128ca61428e565b5b0492506010810190505b6305f5e10083106128fe576305f5e10083816128f4576128f361428e565b5b0492506008810190505b61271083106129235761271083816129195761291861428e565b5b0492506004810190505b60648310612946576064838161293c5761293b61428e565b5b0492506002810190505b600a8310612955576001810190505b80915050919050565b604051806040016040528060008152602001606081525090565b604051806040016040528060008152602001600081525090565b50805461299e90613502565b6000825580601f106129b057506129cf565b601f0160209004906000526020600020908101906129ce91906129d2565b5b50565b5b808211156129eb5760008160009055506001016129d3565b5090565b6000604051905090565b600080fd5b600080fd5b60007fffffffff0000000000000000000000000000000000000000000000000000000082169050919050565b612a3881612a03565b8114612a4357600080fd5b50565b600081359050612a5581612a2f565b92915050565b600060208284031215612a7157612a706129f9565b5b6000612a7f84828501612a46565b91505092915050565b60008115159050919050565b612a9d81612a88565b82525050565b6000602082019050612ab86000830184612a94565b92915050565b600081519050919050565b600082825260208201905092915050565b60005b83811015612af8578082015181840152602081019050612add565b60008484015250505050565b6000601f19601f8301169050919050565b6000612b2082612abe565b612b2a8185612ac9565b9350612b3a818560208601612ada565b612b4381612b04565b840191505092915050565b60006020820190508181036000830152612b688184612b15565b905092915050565b6000819050919050565b612b8381612b70565b8114612b8e57600080fd5b50565b600081359050612ba081612b7a565b92915050565b600060208284031215612bbc57612bbb6129f9565b5b6000612bca84828501612b91565b91505092915050565b600073ffffffffffffffffffffffffffffffffffffffff82169050919050565b6000612bfe82612bd3565b9050919050565b612c0e81612bf3565b82525050565b6000602082019050612c296000830184612c05565b92915050565b612c3881612bf3565b8114612c4357600080fd5b50565b600081359050612c5581612c2f565b92915050565b60008060408385031215612c7257612c716129f9565b5b6000612c8085828601612c46565b9250506020612c9185828601612b91565b9150509250929050565b612ca481612b70565b82525050565b6000602082019050612cbf6000830184612c9b565b92915050565b60008060408385031215612cdc57612cdb6129f9565b5b6000612cea85828601612b91565b9250506020612cfb85828601612b91565b9150509250929050565b7f4e487b7100000000000000000000000000000000000000000000000000000000600052602160045260246000fd5b60038110612d4557612d44612d05565b5b50565b6000819050612d5682612d34565b919050565b6000612d6682612d48565b9050919050565b612d7681612d5b565b82525050565b6000608082019050612d916000830187612c05565b612d9e6020830186612c9b565b612dab6040830185612c9b565b612db86060830184612d6d565b95945050505050565b600080600060608486031215612dda57612dd96129f9565b5b6000612de886828701612c46565b9350506020612df986828701612c46565b9250506040612e0a86828701612b91565b9150509250925092565b600081519050919050565b600082825260208201905092915050565b6000819050602082019050919050565b612e4981612bf3565b82525050565b612e5881612b70565b82525050565b612e6781612d5b565b82525050565b608082016000820151612e836000850182612e40565b506020820151612e966020850182612e4f565b506040820151612ea96040850182612e4f565b506060820151612ebc6060850182612e5e565b50505050565b6000612ece8383612e6d565b60808301905092915050565b6000602082019050919050565b6000612ef282612e14565b612efc8185612e1f565b9350612f0783612e30565b8060005b83811015612f38578151612f1f8882612ec2565b9750612f2a83612eda565b925050600181019050612f0b565b5085935050505092915050565b60006020820190508181036000830152612f5f8184612ee7565b905092915050565b600060208284031215612f7d57612f7c6129f9565b5b6000612f8b84828501612c46565b91505092915050565b600081519050919050565b600082825260208201905092915050565b6000819050602082019050919050565b600082825260208201905092915050565b6000612fdc82612abe565b612fe68185612fc0565b9350612ff6818560208601612ada565b612fff81612b04565b840191505092915050565b60006040830160008301516130226000860182612e4f565b506020830151848203602086015261303a8282612fd1565b9150508091505092915050565b6000613053838361300a565b905092915050565b6000602082019050919050565b600061307382612f94565b61307d8185612f9f565b93508360208202850161308f85612fb0565b8060005b858110156130cb57848403895281516130ac8582613047565b94506130b78361305b565b925060208a01995050600181019050613093565b50829750879550505050505092915050565b600060208201905081810360008301526130f78184613068565b905092915050565b61310881612a88565b811461311357600080fd5b50565b600081359050613125816130ff565b92915050565b60008060408385031215613142576131416129f9565b5b600061315085828601612c46565b925050602061316185828601613116565b9150509250929050565b600080fd5b600080fd5b7f4e487b7100000000000000000000000000000000000000000000000000000000600052604160045260246000fd5b6131ad82612b04565b810181811067ffffffffffffffff821117156131cc576131cb613175565b5b80604052505050565b60006131df6129ef565b90506131eb82826131a4565b919050565b600067ffffffffffffffff82111561320b5761320a613175565b5b61321482612b04565b9050602081019050919050565b82818337600083830152505050565b600061324361323e846131f0565b6131d5565b90508281526020810184848401111561325f5761325e613170565b5b61326a848285613221565b509392505050565b600082601f8301126132875761328661316b565b5b8135613297848260208601613230565b91505092915050565b600080600080608085870312156132ba576132b96129f9565b5b60006132c887828801612c46565b94505060206132d987828801612c46565b93505060406132ea87828801612b91565b925050606085013567ffffffffffffffff81111561330b5761330a6129fe565b5b61331787828801613272565b91505092959194509250565b600067ffffffffffffffff82111561333e5761333d613175565b5b61334782612b04565b9050602081019050919050565b600061336761336284613323565b6131d5565b90508281526020810184848401111561338357613382613170565b5b61338e848285613221565b509392505050565b600082601f8301126133ab576133aa61316b565b5b81356133bb848260208601613354565b91505092915050565b600080604083850312156133db576133da6129f9565b5b60006133e985828601612c46565b925050602083013567ffffffffffffffff81111561340a576134096129fe565b5b61341685828601613396565b9150509250929050565b60006040820190506134356000830185612c9b565b6134426020830184612c9b565b9392505050565b60408201600082015161345f6000850182612e4f565b5060208201516134726020850182612e4f565b50505050565b600060408201905061348d6000830184613449565b92915050565b600080604083850312156134aa576134a96129f9565b5b60006134b885828601612c46565b92505060206134c985828601612c46565b9150509250929050565b7f4e487b7100000000000000000000000000000000000000000000000000000000600052602260045260246000fd5b6000600282049050600182168061351a57607f821691505b60208210810361352d5761352c6134d3565b5b50919050565b7f4552433732313a20617070726f76616c20746f2063757272656e74206f776e6560008201527f7200000000000000000000000000000000000000000000000000000000000000602082015250565b600061358f602183612ac9565b915061359a82613533565b604082019050919050565b600060208201905081810360008301526135be81613582565b9050919050565b7f4552433732313a20617070726f76652063616c6c6572206973206e6f7420746f60008201527f6b656e206f776e6572206f7220617070726f76656420666f7220616c6c000000602082015250565b6000613621603d83612ac9565b915061362c826135c5565b604082019050919050565b6000602082019050818103600083015261365081613614565b9050919050565b7f4552433732313a2063616c6c6572206973206e6f7420746f6b656e206f776e6560008201527f72206f7220617070726f76656400000000000000000000000000000000000000602082015250565b60006136b3602d83612ac9565b91506136be82613657565b604082019050919050565b600060208201905081810360008301526136e2816136a6565b9050919050565b7f596f752063616e6e6f742073656c6c204e465473207468617420796f7520646f60008201527f206e6f74206f776e000000000000000000000000000000000000000000000000602082015250565b6000613745602883612ac9565b9150613750826136e9565b604082019050919050565b6000602082019050818103600083015261377481613738565b9050919050565b7f5072696365206d7573742062652067726561746572207468616e203000000000600082015250565b60006137b1601c83612ac9565b91506137bc8261377b565b602082019050919050565b600060208201905081810360008301526137e0816137a4565b9050919050565b7f455243373231456e756d657261626c653a206f776e657220696e646578206f7560008201527f74206f6620626f756e6473000000000000000000000000000000000000000000602082015250565b6000613843602b83612ac9565b915061384e826137e7565b604082019050919050565b6000602082019050818103600083015261387281613836565b9050919050565b7f455243373231456e756d657261626c653a20676c6f62616c20696e646578206f60008201527f7574206f6620626f756e64730000000000000000000000000000000000000000602082015250565b60006138d5602c83612ac9565b91506138e082613879565b604082019050919050565b60006020820190508181036000830152613904816138c8565b9050919050565b7f4e487b7100000000000000000000000000000000000000000000000000000000600052603260045260246000fd5b7f4e487b7100000000000000000000000000000000000000000000000000000000600052601160045260246000fd5b600061397482612b70565b91507fffffffffffffffffffffffffffffffffffffffffffffffffffffffffffffffff82036139a6576139a561393a565b5b600182019050919050565b7f4552433732313a20696e76616c696420746f6b656e2049440000000000000000600082015250565b60006139e7601883612ac9565b91506139f2826139b1565b602082019050919050565b60006020820190508181036000830152613a16816139da565b9050919050565b7f4552433732313a2061646472657373207a65726f206973206e6f74206120766160008201527f6c6964206f776e65720000000000000000000000000000000000000000000000602082015250565b6000613a79602983612ac9565b9150613a8482613a1d565b604082019050919050565b60006020820190508181036000830152613aa881613a6c565b9050919050565b7f596f752063616e6e6f742062757920796f7572206f776e204e46540000000000600082015250565b6000613ae5601b83612ac9565b9150613af082613aaf565b602082019050919050565b60006020820190508181036000830152613b1481613ad8565b9050919050565b7f4f66666572206d7573742062652067726561746572207468616e203000000000600082015250565b6000613b51601c83612ac9565b9150613b5c82613b1b565b602082019050919050565b60006020820190508181036000830152613b8081613b44565b9050919050565b7f4552433732313a207472616e736665722066726f6d20696e636f72726563742060008201527f6f776e6572000000000000000000000000000000000000000000000000000000602082015250565b6000613be3602583612ac9565b9150613bee82613b87565b604082019050919050565b60006020820190508181036000830152613c1281613bd6565b9050919050565b7f4552433732313a207472616e7366657220746f20746865207a65726f2061646460008201527f7265737300000000000000000000000000000000000000000000000000000000602082015250565b6000613c75602483612ac9565b9150613c8082613c19565b604082019050919050565b60006020820190508181036000830152613ca481613c68565b9050919050565b7f4552433732313a20617070726f766520746f2063616c6c657200000000000000600082015250565b6000613ce1601983612ac9565b9150613cec82613cab565b602082019050919050565b60006020820190508181036000830152613d1081613cd4565b9050919050565b7f4552433732313a207472616e7366657220746f206e6f6e20455243373231526560008201527f63656976657220696d706c656d656e7465720000000000000000000000000000602082015250565b6000613d73603283612ac9565b9150613d7e82613d17565b604082019050919050565b60006020820190508181036000830152613da281613d66565b9050919050565b600081905092915050565b6000613dbf82612abe565b613dc98185613da9565b9350613dd9818560208601612ada565b80840191505092915050565b6000613df18285613db4565b9150613dfd8284613db4565b91508190509392505050565b7f45524337323155524953746f726167653a2055524920736574206f66206e6f6e60008201527f6578697374656e7420746f6b656e000000000000000000000000000000000000602082015250565b6000613e65602e83612ac9565b9150613e7082613e09565b604082019050919050565b60006020820190508181036000830152613e9481613e58565b9050919050565b60008190508160005260206000209050919050565b60006020601f8301049050919050565b600082821b905092915050565b600060088302613efd7fffffffffffffffffffffffffffffffffffffffffffffffffffffffffffffffff82613ec0565b613f078683613ec0565b95508019841693508086168417925050509392505050565b6000819050919050565b6000613f44613f3f613f3a84612b70565b613f1f565b612b70565b9050919050565b6000819050919050565b613f5e83613f29565b613f72613f6a82613f4b565b848454613ecd565b825550505050565b600090565b613f87613f7a565b613f92818484613f55565b505050565b5b81811015613fb657613fab600082613f7f565b600181019050613f98565b5050565b601f821115613ffb57613fcc81613e9b565b613fd584613eb0565b81016020851015613fe4578190505b613ff8613ff085613eb0565b830182613f97565b50505b505050565b600082821c905092915050565b600061401e60001984600802614000565b1980831691505092915050565b6000614037838361400d565b9150826002028217905092915050565b61405082612abe565b67ffffffffffffffff81111561406957614068613175565b5b6140738254613502565b61407e828285613fba565b600060209050601f8311600181146140b1576000841561409f578287015190505b6140a9858261402b565b865550614111565b601f1984166140bf86613e9b565b60005b828110156140e7578489015182556001820191506020850194506020810190506140c2565b868310156141045784890151614100601f89168261400d565b8355505b6001600288020188555050505b505050505050565b600081519050919050565b600082825260208201905092915050565b600061414082614119565b61414a8185614124565b935061415a818560208601612ada565b61416381612b04565b840191505092915050565b60006080820190506141836000830187612c05565b6141906020830186612c05565b61419d6040830185612c9b565b81810360608301526141af8184614135565b905095945050505050565b6000815190506141c981612a2f565b92915050565b6000602082840312156141e5576141e46129f9565b5b60006141f3848285016141ba565b91505092915050565b7f455243373231456e756d657261626c653a20636f6e736563757469766520747260008201527f616e7366657273206e6f7420737570706f727465640000000000000000000000602082015250565b6000614258603583612ac9565b9150614263826141fc565b604082019050919050565b600060208201905081810360008301526142878161424b565b9050919050565b7f4e487b7100000000000000000000000000000000000000000000000000000000600052601260045260246000fd5b7f4552433732313a206d696e7420746f20746865207a65726f2061646472657373600082015250565b60006142f3602083612ac9565b91506142fe826142bd565b602082019050919050565b60006020820190508181036000830152614322816142e6565b9050919050565b7f4552433732313a20746f6b656e20616c7265616479206d696e74656400000000600082015250565b600061435f601c83612ac9565b915061436a82614329565b602082019050919050565b6000602082019050818103600083015261438e81614352565b9050919050565b60006143a082612b70565b91506143ab83612b70565b92508282039050818111156143c3576143c261393a565b5b92915050565b7f4e487b7100000000000000000000000000000000000000000000000000000000600052603160045260246000fdfea26469706673582212204266fa098735f3ce102ef81338f1aab2d6034b9325526ffb4c319449f9627fe164736f6c63430008130033",
  "linkReferences": {},
  "deployedLinkReferences": {}
}