{
  "_format": "hh-sol-artifact-1",
  "contractName": "Encode",
  "sourceName": "contracts/Encode.sol",
  "abi": [
    {
      "inputs": [],
      "stateMutability": "nonpayable",
      "type": "constructor"
    },
    {
      "anonymous": false,
      "inputs": [
        {
          "indexed": true,
          "internalType": "address",
          "name": "owner",
          "type": "address"
        },
        {
          "indexed": true,
          "internalType": "address",
          "name": "approved",
          "type": "address"
        },
        {
          "indexed": true,
          "internalType": "uint256",
          "name": "tokenId",
          "type": "uint256"
        }
      ],
      "name": "Approval",
      "type": "event"
    },
    {
      "anonymous": false,
      "inputs": [
        {
          "indexed": true,
          "internalType": "address",
          "name": "owner",
          "type": "address"
        },
        {
          "indexed": true,
          "internalType": "address",
          "name": "operator",
          "type": "address"
        },
        {
          "indexed": false,
          "internalType": "bool",
          "name": "approved",
          "type": "bool"
        }
      ],
      "name": "ApprovalForAll",
      "type": "event"
    },
    {
      "anonymous": false,
      "inputs": [
        {
          "indexed": true,
          "internalType": "address",
          "name": "from",
          "type": "address"
        },
        {
          "indexed": true,
          "internalType": "address",
          "name": "to",
          "type": "address"
        },
        {
          "indexed": true,
          "internalType": "uint256",
          "name": "tokenId",
          "type": "uint256"
        }
      ],
      "name": "Transfer",
      "type": "event"
    },
    {
      "inputs": [
        {
          "internalType": "address",
          "name": "to",
          "type": "address"
        },
        {
          "internalType": "uint256",
          "name": "tokenId",
          "type": "uint256"
        }
      ],
      "name": "approve",
      "outputs": [],
      "stateMutability": "nonpayable",
      "type": "function"
    },
    {
      "inputs": [
        {
          "internalType": "address",
          "name": "owner",
          "type": "address"
        }
      ],
      "name": "balanceOf",
      "outputs": [
        {
          "internalType": "uint256",
          "name": "",
          "type": "uint256"
        }
      ],
      "stateMutability": "view",
      "type": "function"
    },
    {
      "inputs": [
        {
          "internalType": "uint256",
          "name": "tokenId",
          "type": "uint256"
        }
      ],
      "name": "burn",
      "outputs": [],
      "stateMutability": "nonpayable",
      "type": "function"
    },
    {
      "inputs": [
        {
          "internalType": "uint256",
          "name": "",
          "type": "uint256"
        },
        {
          "internalType": "uint256",
          "name": "",
          "type": "uint256"
        }
      ],
      "name": "buyingRequests",
      "outputs": [
        {
          "internalType": "address",
          "name": "buyer",
          "type": "address"
        },
        {
          "internalType": "uint256",
          "name": "offer",
          "type": "uint256"
        },
        {
          "internalType": "uint256",
          "name": "timestamp",
          "type": "uint256"
        },
        {
          "internalType": "enum Encode.BuyingRequestStatus",
          "name": "status",
          "type": "uint8"
        }
      ],
      "stateMutability": "view",
      "type": "function"
    },
    {
      "inputs": [
        {
          "internalType": "uint256",
          "name": "tokenId",
          "type": "uint256"
        },
        {
          "internalType": "uint256",
          "name": "offer",
          "type": "uint256"
        }
      ],
      "name": "createBuyingRequest",
      "outputs": [],
      "stateMutability": "nonpayable",
      "type": "function"
    },
    {
      "inputs": [
        {
          "internalType": "uint256",
          "name": "tokenId",
          "type": "uint256"
        },
        {
          "internalType": "uint256",
          "name": "price",
          "type": "uint256"
        }
      ],
      "name": "createSellingListing",
      "outputs": [],
      "stateMutability": "nonpayable",
      "type": "function"
    },
    {
      "inputs": [
        {
          "internalType": "uint256",
          "name": "tokenId",
          "type": "uint256"
        }
      ],
      "name": "getApproved",
      "outputs": [
        {
          "internalType": "address",
          "name": "",
          "type": "address"
        }
      ],
      "stateMutability": "view",
      "type": "function"
    },
    {
      "inputs": [
        {
          "internalType": "uint256",
          "name": "tokenId",
          "type": "uint256"
        }
      ],
      "name": "getBuyingRequests",
      "outputs": [
        {
          "components": [
            {
              "internalType": "address",
              "name": "buyer",
              "type": "address"
            },
            {
              "internalType": "uint256",
              "name": "offer",
              "type": "uint256"
            },
            {
              "internalType": "uint256",
              "name": "timestamp",
              "type": "uint256"
            },
            {
              "internalType": "enum Encode.BuyingRequestStatus",
              "name": "status",
              "type": "uint8"
            }
          ],
          "internalType": "struct Encode.BuyingRequest[]",
          "name": "",
          "type": "tuple[]"
        }
      ],
      "stateMutability": "view",
      "type": "function"
    },
    {
      "inputs": [
        {
          "internalType": "uint256",
          "name": "tokenId",
          "type": "uint256"
        }
      ],
      "name": "getSellingListing",
      "outputs": [
        {
          "components": [
            {
              "internalType": "uint256",
              "name": "price",
              "type": "uint256"
            },
            {
              "internalType": "uint256",
              "name": "timestamp",
              "type": "uint256"
            }
          ],
          "internalType": "struct Encode.SellingListing",
          "name": "",
          "type": "tuple"
        }
      ],
      "stateMutability": "view",
      "type": "function"
    },
    {
      "inputs": [
        {
          "internalType": "address",
          "name": "owner",
          "type": "address"
        },
        {
          "internalType": "address",
          "name": "operator",
          "type": "address"
        }
      ],
      "name": "isApprovedForAll",
      "outputs": [
        {
          "internalType": "bool",
          "name": "",
          "type": "bool"
        }
      ],
      "stateMutability": "view",
      "type": "function"
    },
    {
      "inputs": [],
      "name": "name",
      "outputs": [
        {
          "internalType": "string",
          "name": "",
          "type": "string"
        }
      ],
      "stateMutability": "view",
      "type": "function"
    },
    {
      "inputs": [
        {
          "internalType": "uint256",
          "name": "tokenId",
          "type": "uint256"
        }
      ],
      "name": "ownerOf",
      "outputs": [
        {
          "internalType": "address",
          "name": "",
          "type": "address"
        }
      ],
      "stateMutability": "view",
      "type": "function"
    },
    {
      "inputs": [
        {
          "internalType": "address",
          "name": "to",
          "type": "address"
        },
        {
          "internalType": "string",
          "name": "uri",
          "type": "string"
        }
      ],
      "name": "safeMint",
      "outputs": [],
      "stateMutability": "nonpayable",
      "type": "function"
    },
    {
      "inputs": [
        {
          "internalType": "address",
          "name": "from",
          "type": "address"
        },
        {
          "internalType": "address",
          "name": "to",
          "type": "address"
        },
        {
          "internalType": "uint256",
          "name": "tokenId",
          "type": "uint256"
        }
      ],
      "name": "safeTransferFrom",
      "outputs": [],
      "stateMutability": "nonpayable",
      "type": "function"
    },
    {
      "inputs": [
        {
          "internalType": "address",
          "name": "from",
          "type": "address"
        },
        {
          "internalType": "address",
          "name": "to",
          "type": "address"
        },
        {
          "internalType": "uint256",
          "name": "tokenId",
          "type": "uint256"
        },
        {
          "internalType": "bytes",
          "name": "data",
          "type": "bytes"
        }
      ],
      "name": "safeTransferFrom",
      "outputs": [],
      "stateMutability": "nonpayable",
      "type": "function"
    },
    {
      "inputs": [
        {
          "internalType": "uint256",
          "name": "",
          "type": "uint256"
        }
      ],
      "name": "sellingListings",
      "outputs": [
        {
          "internalType": "uint256",
          "name": "price",
          "type": "uint256"
        },
        {
          "internalType": "uint256",
          "name": "timestamp",
          "type": "uint256"
        }
      ],
      "stateMutability": "view",
      "type": "function"
    },
    {
      "inputs": [
        {
          "internalType": "address",
          "name": "operator",
          "type": "address"
        },
        {
          "internalType": "bool",
          "name": "approved",
          "type": "bool"
        }
      ],
      "name": "setApprovalForAll",
      "outputs": [],
      "stateMutability": "nonpayable",
      "type": "function"
    },
    {
      "inputs": [
        {
          "internalType": "bytes4",
          "name": "interfaceId",
          "type": "bytes4"
        }
      ],
      "name": "supportsInterface",
      "outputs": [
        {
          "internalType": "bool",
          "name": "",
          "type": "bool"
        }
      ],
      "stateMutability": "view",
      "type": "function"
    },
    {
      "inputs": [],
      "name": "symbol",
      "outputs": [
        {
          "internalType": "string",
          "name": "",
          "type": "string"
        }
      ],
      "stateMutability": "view",
      "type": "function"
    },
    {
      "inputs": [
        {
          "internalType": "uint256",
          "name": "tokenId",
          "type": "uint256"
        }
      ],
      "name": "tokenURI",
      "outputs": [
        {
          "internalType": "string",
          "name": "",
          "type": "string"
        }
      ],
      "stateMutability": "view",
      "type": "function"
    },
    {
      "inputs": [
        {
          "internalType": "address",
          "name": "from",
          "type": "address"
        },
        {
          "internalType": "address",
          "name": "to",
          "type": "address"
        },
        {
          "internalType": "uint256",
          "name": "tokenId",
          "type": "uint256"
        }
      ],
      "name": "transferFrom",
      "outputs": [],
      "stateMutability": "nonpayable",
      "type": "function"
    }
  ],
  "bytecode": "0x60806040523480156200001157600080fd5b506040518060400160405280600681526020017f456e636f646500000000000000000000000000000000000000000000000000008152506040518060400160405280600381526020017f454e43000000000000000000000000000000000000000000000000000000000081525081600090816200008f919062000324565b508060019081620000a1919062000324565b5050506200040b565b600081519050919050565b7f4e487b7100000000000000000000000000000000000000000000000000000000600052604160045260246000fd5b7f4e487b7100000000000000000000000000000000000000000000000000000000600052602260045260246000fd5b600060028204905060018216806200012c57607f821691505b602082108103620001425762000141620000e4565b5b50919050565b60008190508160005260206000209050919050565b60006020601f8301049050919050565b600082821b905092915050565b600060088302620001ac7fffffffffffffffffffffffffffffffffffffffffffffffffffffffffffffffff826200016d565b620001b886836200016d565b95508019841693508086168417925050509392505050565b6000819050919050565b6000819050919050565b600062000205620001ff620001f984620001d0565b620001da565b620001d0565b9050919050565b6000819050919050565b6200022183620001e4565b6200023962000230826200020c565b8484546200017a565b825550505050565b600090565b6200025062000241565b6200025d81848462000216565b505050565b5b8181101562000285576200027960008262000246565b60018101905062000263565b5050565b601f821115620002d4576200029e8162000148565b620002a9846200015d565b81016020851015620002b9578190505b620002d1620002c8856200015d565b83018262000262565b50505b505050565b600082821c905092915050565b6000620002f960001984600802620002d9565b1980831691505092915050565b6000620003148383620002e6565b9150826002028217905092915050565b6200032f82620000aa565b67ffffffffffffffff8111156200034b576200034a620000b5565b5b62000357825462000113565b6200036482828562000289565b600060209050601f8311600181146200039c576000841562000387578287015190505b62000393858262000306565b86555062000403565b601f198416620003ac8662000148565b60005b82811015620003d657848901518255600182019150602085019450602081019050620003af565b86831015620003f65784890151620003f2601f891682620002e6565b8355505b6001600288020188555050505b505050505050565b613801806200041b6000396000f3fe608060405234801561001057600080fd5b50600436106101375760003560e01c8063596fbfb0116100b8578063a22cb4651161007c578063a22cb46514610373578063b88d4fde1461038f578063c87b56dd146103ab578063d204c45e146103db578063d7fd62fd146103f7578063e985e9c51461042857610137565b8063596fbfb0146102a95780636352211e146102d957806370a08231146103095780638f747dd01461033957806395d89b411461035557610137565b806323b872dd116100ff57806323b872dd1461020957806324f763d914610225578063288b9e671461024157806342842e0e1461027157806342966c681461028d57610137565b806301ffc9a71461013c57806306fdde031461016c578063081812fc1461018a578063095ea7b3146101ba5780631f8276b8146101d6575b600080fd5b61015660048036038101906101519190612258565b610458565b60405161016391906122a0565b60405180910390f35b61017461053a565b604051610181919061234b565b60405180910390f35b6101a4600480360381019061019f91906123a3565b6105cc565b6040516101b19190612411565b60405180910390f35b6101d460048036038101906101cf9190612458565b610612565b005b6101f060048036038101906101eb9190612498565b610729565b604051610200949392919061255e565b60405180910390f35b610223600480360381019061021e91906125a3565b6107a3565b005b61023f600480360381019061023a9190612498565b610803565b005b61025b600480360381019061025691906123a3565b610909565b6040516102689190612634565b60405180910390f35b61028b600480360381019061028691906125a3565b61094a565b005b6102a760048036038101906102a291906123a3565b61096a565b005b6102c360048036038101906102be91906123a3565b6109c6565b6040516102d09190612771565b60405180910390f35b6102f360048036038101906102ee91906123a3565b610add565b6040516103009190612411565b60405180910390f35b610323600480360381019061031e9190612793565b610b63565b60405161033091906127c0565b60405180910390f35b610353600480360381019061034e9190612498565b610c1a565b005b61035d610dea565b60405161036a919061234b565b60405180910390f35b61038d60048036038101906103889190612807565b610e7c565b005b6103a960048036038101906103a4919061297c565b610e92565b005b6103c560048036038101906103c091906123a3565b610ef4565b6040516103d2919061234b565b60405180910390f35b6103f560048036038101906103f09190612aa0565b610f06565b005b610411600480360381019061040c91906123a3565b610f37565b60405161041f929190612afc565b60405180910390f35b610442600480360381019061043d9190612b25565b610f5b565b60405161044f91906122a0565b60405180910390f35b60007f80ac58cd000000000000000000000000000000000000000000000000000000007bffffffffffffffffffffffffffffffffffffffffffffffffffffffff1916827bffffffffffffffffffffffffffffffffffffffffffffffffffffffff1916148061052357507f5b5e139f000000000000000000000000000000000000000000000000000000007bffffffffffffffffffffffffffffffffffffffffffffffffffffffff1916827bffffffffffffffffffffffffffffffffffffffffffffffffffffffff1916145b80610533575061053282610fef565b5b9050919050565b60606000805461054990612b94565b80601f016020809104026020016040519081016040528092919081815260200182805461057590612b94565b80156105c25780601f10610597576101008083540402835291602001916105c2565b820191906000526020600020905b8154815290600101906020018083116105a557829003601f168201915b5050505050905090565b60006105d782611059565b6004600083815260200190815260200160002060009054906101000a900473ffffffffffffffffffffffffffffffffffffffff169050919050565b600061061d82610add565b90508073ffffffffffffffffffffffffffffffffffffffff168373ffffffffffffffffffffffffffffffffffffffff160361068d576040517f08c379a000000000000000000000000000000000000000000000000000000000815260040161068490612c37565b60405180910390fd5b8073ffffffffffffffffffffffffffffffffffffffff166106ac6110a4565b73ffffffffffffffffffffffffffffffffffffffff1614806106db57506106da816106d56110a4565b610f5b565b5b61071a576040517f08c379a000000000000000000000000000000000000000000000000000000000815260040161071190612cc9565b60405180910390fd5b61072483836110ac565b505050565b6008602052816000526040600020818154811061074557600080fd5b9060005260206000209060040201600091509150508060000160009054906101000a900473ffffffffffffffffffffffffffffffffffffffff16908060010154908060020154908060030160009054906101000a900460ff16905084565b6107b46107ae6110a4565b82611165565b6107f3576040517f08c379a00000000000000000000000000000000000000000000000000000000081526004016107ea90612d5b565b60405180910390fd5b6107fe8383836111fa565b505050565b3373ffffffffffffffffffffffffffffffffffffffff1661082383610add565b73ffffffffffffffffffffffffffffffffffffffff1614610879576040517f08c379a000000000000000000000000000000000000000000000000000000000815260040161087090612ded565b60405180910390fd5b600081116108bc576040517f08c379a00000000000000000000000000000000000000000000000000000000081526004016108b390612e59565b60405180910390fd5b6108c63083610612565b6040518060400160405280828152602001428152506009600084815260200190815260200160002060008201518160000155602082015181600101559050505050565b610911612175565b60096000838152602001908152602001600020604051806040016040529081600082015481526020016001820154815250509050919050565b61096583838360405180602001604052806000815250610e92565b505050565b61097b6109756110a4565b82611165565b6109ba576040517f08c379a00000000000000000000000000000000000000000000000000000000081526004016109b190612d5b565b60405180910390fd5b6109c3816114f3565b50565b606060086000838152602001908152602001600020805480602002602001604051908101604052809291908181526020016000905b82821015610ad257838290600052602060002090600402016040518060800160405290816000820160009054906101000a900473ffffffffffffffffffffffffffffffffffffffff1673ffffffffffffffffffffffffffffffffffffffff1673ffffffffffffffffffffffffffffffffffffffff16815260200160018201548152602001600282015481526020016003820160009054906101000a900460ff166002811115610aad57610aac6124e7565b5b6002811115610abf57610abe6124e7565b5b81525050815260200190600101906109fb565b505050509050919050565b600080610ae9836114ff565b9050600073ffffffffffffffffffffffffffffffffffffffff168173ffffffffffffffffffffffffffffffffffffffff1603610b5a576040517f08c379a0000000000000000000000000000000000000000000000000000000008152600401610b5190612ec5565b60405180910390fd5b80915050919050565b60008073ffffffffffffffffffffffffffffffffffffffff168273ffffffffffffffffffffffffffffffffffffffff1603610bd3576040517f08c379a0000000000000000000000000000000000000000000000000000000008152600401610bca90612f57565b60405180910390fd5b600360008373ffffffffffffffffffffffffffffffffffffffff1673ffffffffffffffffffffffffffffffffffffffff168152602001908152602001600020549050919050565b3373ffffffffffffffffffffffffffffffffffffffff16610c3a83610add565b73ffffffffffffffffffffffffffffffffffffffff1603610c90576040517f08c379a0000000000000000000000000000000000000000000000000000000008152600401610c8790612fc3565b60405180910390fd5b60008111610cd3576040517f08c379a0000000000000000000000000000000000000000000000000000000008152600401610cca9061302f565b60405180910390fd5b6008600083815260200190815260200160002060405180608001604052803373ffffffffffffffffffffffffffffffffffffffff16815260200183815260200142815260200160006002811115610d2d57610d2c6124e7565b5b815250908060018154018082558091505060019003906000526020600020906004020160009091909190915060008201518160000160006101000a81548173ffffffffffffffffffffffffffffffffffffffff021916908373ffffffffffffffffffffffffffffffffffffffff160217905550602082015181600101556040820151816002015560608201518160030160006101000a81548160ff02191690836002811115610ddf57610dde6124e7565b5b021790555050505050565b606060018054610df990612b94565b80601f0160208091040260200160405190810160405280929190818152602001828054610e2590612b94565b8015610e725780601f10610e4757610100808354040283529160200191610e72565b820191906000526020600020905b815481529060010190602001808311610e5557829003601f168201915b5050505050905090565b610e8e610e876110a4565b838361153c565b5050565b610ea3610e9d6110a4565b83611165565b610ee2576040517f08c379a0000000000000000000000000000000000000000000000000000000008152600401610ed990612d5b565b60405180910390fd5b610eee848484846116a8565b50505050565b6060610eff82611704565b9050919050565b6000610f126007611816565b9050610f1e6007611824565b610f28838261183a565b610f328183611858565b505050565b60096020528060005260406000206000915090508060000154908060010154905082565b6000600560008473ffffffffffffffffffffffffffffffffffffffff1673ffffffffffffffffffffffffffffffffffffffff16815260200190815260200160002060008373ffffffffffffffffffffffffffffffffffffffff1673ffffffffffffffffffffffffffffffffffffffff16815260200190815260200160002060009054906101000a900460ff16905092915050565b60007f01ffc9a7000000000000000000000000000000000000000000000000000000007bffffffffffffffffffffffffffffffffffffffffffffffffffffffff1916827bffffffffffffffffffffffffffffffffffffffffffffffffffffffff1916149050919050565b611062816118c5565b6110a1576040517f08c379a000000000000000000000000000000000000000000000000000000000815260040161109890612ec5565b60405180910390fd5b50565b600033905090565b816004600083815260200190815260200160002060006101000a81548173ffffffffffffffffffffffffffffffffffffffff021916908373ffffffffffffffffffffffffffffffffffffffff160217905550808273ffffffffffffffffffffffffffffffffffffffff1661111f83610add565b73ffffffffffffffffffffffffffffffffffffffff167f8c5be1e5ebec7d5bd14f71427d1e84f3dd0314c0f7b2291e5b200ac8c7c3b92560405160405180910390a45050565b60008061117183610add565b90508073ffffffffffffffffffffffffffffffffffffffff168473ffffffffffffffffffffffffffffffffffffffff1614806111b357506111b28185610f5b565b5b806111f157508373ffffffffffffffffffffffffffffffffffffffff166111d9846105cc565b73ffffffffffffffffffffffffffffffffffffffff16145b91505092915050565b8273ffffffffffffffffffffffffffffffffffffffff1661121a82610add565b73ffffffffffffffffffffffffffffffffffffffff1614611270576040517f08c379a0000000000000000000000000000000000000000000000000000000008152600401611267906130c1565b60405180910390fd5b600073ffffffffffffffffffffffffffffffffffffffff168273ffffffffffffffffffffffffffffffffffffffff16036112df576040517f08c379a00000000000000000000000000000000000000000000000000000000081526004016112d690613153565b60405180910390fd5b6112ec8383836001611906565b8273ffffffffffffffffffffffffffffffffffffffff1661130c82610add565b73ffffffffffffffffffffffffffffffffffffffff1614611362576040517f08c379a0000000000000000000000000000000000000000000000000000000008152600401611359906130c1565b60405180910390fd5b6004600082815260200190815260200160002060006101000a81549073ffffffffffffffffffffffffffffffffffffffff02191690556001600360008573ffffffffffffffffffffffffffffffffffffffff1673ffffffffffffffffffffffffffffffffffffffff168152602001908152602001600020600082825403925050819055506001600360008473ffffffffffffffffffffffffffffffffffffffff1673ffffffffffffffffffffffffffffffffffffffff16815260200190815260200160002060008282540192505081905550816002600083815260200190815260200160002060006101000a81548173ffffffffffffffffffffffffffffffffffffffff021916908373ffffffffffffffffffffffffffffffffffffffff160217905550808273ffffffffffffffffffffffffffffffffffffffff168473ffffffffffffffffffffffffffffffffffffffff167fddf252ad1be2c89b69c2b068fc378daa952ba7f163c4a11628f55a4df523b3ef60405160405180910390a46114ee838383600161190c565b505050565b6114fc81611912565b50565b60006002600083815260200190815260200160002060009054906101000a900473ffffffffffffffffffffffffffffffffffffffff169050919050565b8173ffffffffffffffffffffffffffffffffffffffff168373ffffffffffffffffffffffffffffffffffffffff16036115aa576040517f08c379a00000000000000000000000000000000000000000000000000000000081526004016115a1906131bf565b60405180910390fd5b80600560008573ffffffffffffffffffffffffffffffffffffffff1673ffffffffffffffffffffffffffffffffffffffff16815260200190815260200160002060008473ffffffffffffffffffffffffffffffffffffffff1673ffffffffffffffffffffffffffffffffffffffff16815260200190815260200160002060006101000a81548160ff0219169083151502179055508173ffffffffffffffffffffffffffffffffffffffff168373ffffffffffffffffffffffffffffffffffffffff167f17307eab39ab6107e8899845ad3d59bd9653f200f220920489ca2b5937696c318360405161169b91906122a0565b60405180910390a3505050565b6116b38484846111fa565b6116bf84848484611965565b6116fe576040517f08c379a00000000000000000000000000000000000000000000000000000000081526004016116f590613251565b60405180910390fd5b50505050565b606061170f82611059565b600060066000848152602001908152602001600020805461172f90612b94565b80601f016020809104026020016040519081016040528092919081815260200182805461175b90612b94565b80156117a85780601f1061177d576101008083540402835291602001916117a8565b820191906000526020600020905b81548152906001019060200180831161178b57829003601f168201915b5050505050905060006117b9611aec565b905060008151036117ce578192505050611811565b6000825111156118035780826040516020016117eb9291906132ad565b60405160208183030381529060405292505050611811565b61180c84611b03565b925050505b919050565b600081600001549050919050565b6001816000016000828254019250508190555050565b611854828260405180602001604052806000815250611b6b565b5050565b611861826118c5565b6118a0576040517f08c379a000000000000000000000000000000000000000000000000000000000815260040161189790613343565b60405180910390fd5b806006600084815260200190815260200160002090816118c0919061350f565b505050565b60008073ffffffffffffffffffffffffffffffffffffffff166118e7836114ff565b73ffffffffffffffffffffffffffffffffffffffff1614159050919050565b50505050565b50505050565b61191b81611bc6565b600060066000838152602001908152602001600020805461193b90612b94565b90501461196257600660008281526020019081526020016000206000611961919061218f565b5b50565b60006119868473ffffffffffffffffffffffffffffffffffffffff16611d14565b15611adf578373ffffffffffffffffffffffffffffffffffffffff1663150b7a026119af6110a4565b8786866040518563ffffffff1660e01b81526004016119d19493929190613636565b6020604051808303816000875af1925050508015611a0d57506040513d601f19601f82011682018060405250810190611a0a9190613697565b60015b611a8f573d8060008114611a3d576040519150601f19603f3d011682016040523d82523d6000602084013e611a42565b606091505b506000815103611a87576040517f08c379a0000000000000000000000000000000000000000000000000000000008152600401611a7e90613251565b60405180910390fd5b805181602001fd5b63150b7a0260e01b7bffffffffffffffffffffffffffffffffffffffffffffffffffffffff1916817bffffffffffffffffffffffffffffffffffffffffffffffffffffffff191614915050611ae4565b600190505b949350505050565b606060405180602001604052806000815250905090565b6060611b0e82611059565b6000611b18611aec565b90506000815111611b385760405180602001604052806000815250611b63565b80611b4284611d37565b604051602001611b539291906132ad565b6040516020818303038152906040525b915050919050565b611b758383611e05565b611b826000848484611965565b611bc1576040517f08c379a0000000000000000000000000000000000000000000000000000000008152600401611bb890613251565b60405180910390fd5b505050565b6000611bd182610add565b9050611be1816000846001611906565b611bea82610add565b90506004600083815260200190815260200160002060006101000a81549073ffffffffffffffffffffffffffffffffffffffff02191690556001600360008373ffffffffffffffffffffffffffffffffffffffff1673ffffffffffffffffffffffffffffffffffffffff168152602001908152602001600020600082825403925050819055506002600083815260200190815260200160002060006101000a81549073ffffffffffffffffffffffffffffffffffffffff021916905581600073ffffffffffffffffffffffffffffffffffffffff168273ffffffffffffffffffffffffffffffffffffffff167fddf252ad1be2c89b69c2b068fc378daa952ba7f163c4a11628f55a4df523b3ef60405160405180910390a4611d1081600084600161190c565b5050565b6000808273ffffffffffffffffffffffffffffffffffffffff163b119050919050565b606060006001611d4684612022565b01905060008167ffffffffffffffff811115611d6557611d64612851565b5b6040519080825280601f01601f191660200182016040528015611d975781602001600182028036833780820191505090505b509050600082602001820190505b600115611dfa578080600190039150507f3031323334353637383961626364656600000000000000000000000000000000600a86061a8153600a8581611dee57611ded6136c4565b5b04945060008503611da5575b819350505050919050565b600073ffffffffffffffffffffffffffffffffffffffff168273ffffffffffffffffffffffffffffffffffffffff1603611e74576040517f08c379a0000000000000000000000000000000000000000000000000000000008152600401611e6b9061373f565b60405180910390fd5b611e7d816118c5565b15611ebd576040517f08c379a0000000000000000000000000000000000000000000000000000000008152600401611eb4906137ab565b60405180910390fd5b611ecb600083836001611906565b611ed4816118c5565b15611f14576040517f08c379a0000000000000000000000000000000000000000000000000000000008152600401611f0b906137ab565b60405180910390fd5b6001600360008473ffffffffffffffffffffffffffffffffffffffff1673ffffffffffffffffffffffffffffffffffffffff16815260200190815260200160002060008282540192505081905550816002600083815260200190815260200160002060006101000a81548173ffffffffffffffffffffffffffffffffffffffff021916908373ffffffffffffffffffffffffffffffffffffffff160217905550808273ffffffffffffffffffffffffffffffffffffffff16600073ffffffffffffffffffffffffffffffffffffffff167fddf252ad1be2c89b69c2b068fc378daa952ba7f163c4a11628f55a4df523b3ef60405160405180910390a461201e60008383600161190c565b5050565b600080600090507a184f03e93ff9f4daa797ed6e38ed64bf6a1f0100000000000000008310612080577a184f03e93ff9f4daa797ed6e38ed64bf6a1f0100000000000000008381612076576120756136c4565b5b0492506040810190505b6d04ee2d6d415b85acef810000000083106120bd576d04ee2d6d415b85acef810000000083816120b3576120b26136c4565b5b0492506020810190505b662386f26fc1000083106120ec57662386f26fc1000083816120e2576120e16136c4565b5b0492506010810190505b6305f5e1008310612115576305f5e100838161210b5761210a6136c4565b5b0492506008810190505b612710831061213a5761271083816121305761212f6136c4565b5b0492506004810190505b6064831061215d5760648381612153576121526136c4565b5b0492506002810190505b600a831061216c576001810190505b80915050919050565b604051806040016040528060008152602001600081525090565b50805461219b90612b94565b6000825580601f106121ad57506121cc565b601f0160209004906000526020600020908101906121cb91906121cf565b5b50565b5b808211156121e85760008160009055506001016121d0565b5090565b6000604051905090565b600080fd5b600080fd5b60007fffffffff0000000000000000000000000000000000000000000000000000000082169050919050565b61223581612200565b811461224057600080fd5b50565b6000813590506122528161222c565b92915050565b60006020828403121561226e5761226d6121f6565b5b600061227c84828501612243565b91505092915050565b60008115159050919050565b61229a81612285565b82525050565b60006020820190506122b56000830184612291565b92915050565b600081519050919050565b600082825260208201905092915050565b60005b838110156122f55780820151818401526020810190506122da565b60008484015250505050565b6000601f19601f8301169050919050565b600061231d826122bb565b61232781856122c6565b93506123378185602086016122d7565b61234081612301565b840191505092915050565b600060208201905081810360008301526123658184612312565b905092915050565b6000819050919050565b6123808161236d565b811461238b57600080fd5b50565b60008135905061239d81612377565b92915050565b6000602082840312156123b9576123b86121f6565b5b60006123c78482850161238e565b91505092915050565b600073ffffffffffffffffffffffffffffffffffffffff82169050919050565b60006123fb826123d0565b9050919050565b61240b816123f0565b82525050565b60006020820190506124266000830184612402565b92915050565b612435816123f0565b811461244057600080fd5b50565b6000813590506124528161242c565b92915050565b6000806040838503121561246f5761246e6121f6565b5b600061247d85828601612443565b925050602061248e8582860161238e565b9150509250929050565b600080604083850312156124af576124ae6121f6565b5b60006124bd8582860161238e565b92505060206124ce8582860161238e565b9150509250929050565b6124e18161236d565b82525050565b7f4e487b7100000000000000000000000000000000000000000000000000000000600052602160045260246000fd5b60038110612527576125266124e7565b5b50565b600081905061253882612516565b919050565b60006125488261252a565b9050919050565b6125588161253d565b82525050565b60006080820190506125736000830187612402565b61258060208301866124d8565b61258d60408301856124d8565b61259a606083018461254f565b95945050505050565b6000806000606084860312156125bc576125bb6121f6565b5b60006125ca86828701612443565b93505060206125db86828701612443565b92505060406125ec8682870161238e565b9150509250925092565b6125ff8161236d565b82525050565b60408201600082015161261b60008501826125f6565b50602082015161262e60208501826125f6565b50505050565b60006040820190506126496000830184612605565b92915050565b600081519050919050565b600082825260208201905092915050565b6000819050602082019050919050565b612684816123f0565b82525050565b6126938161253d565b82525050565b6080820160008201516126af600085018261267b565b5060208201516126c260208501826125f6565b5060408201516126d560408501826125f6565b5060608201516126e8606085018261268a565b50505050565b60006126fa8383612699565b60808301905092915050565b6000602082019050919050565b600061271e8261264f565b612728818561265a565b93506127338361266b565b8060005b8381101561276457815161274b88826126ee565b975061275683612706565b925050600181019050612737565b5085935050505092915050565b6000602082019050818103600083015261278b8184612713565b905092915050565b6000602082840312156127a9576127a86121f6565b5b60006127b784828501612443565b91505092915050565b60006020820190506127d560008301846124d8565b92915050565b6127e481612285565b81146127ef57600080fd5b50565b600081359050612801816127db565b92915050565b6000806040838503121561281e5761281d6121f6565b5b600061282c85828601612443565b925050602061283d858286016127f2565b9150509250929050565b600080fd5b600080fd5b7f4e487b7100000000000000000000000000000000000000000000000000000000600052604160045260246000fd5b61288982612301565b810181811067ffffffffffffffff821117156128a8576128a7612851565b5b80604052505050565b60006128bb6121ec565b90506128c78282612880565b919050565b600067ffffffffffffffff8211156128e7576128e6612851565b5b6128f082612301565b9050602081019050919050565b82818337600083830152505050565b600061291f61291a846128cc565b6128b1565b90508281526020810184848401111561293b5761293a61284c565b5b6129468482856128fd565b509392505050565b600082601f83011261296357612962612847565b5b813561297384826020860161290c565b91505092915050565b60008060008060808587031215612996576129956121f6565b5b60006129a487828801612443565b94505060206129b587828801612443565b93505060406129c68782880161238e565b925050606085013567ffffffffffffffff8111156129e7576129e66121fb565b5b6129f38782880161294e565b91505092959194509250565b600067ffffffffffffffff821115612a1a57612a19612851565b5b612a2382612301565b9050602081019050919050565b6000612a43612a3e846129ff565b6128b1565b905082815260208101848484011115612a5f57612a5e61284c565b5b612a6a8482856128fd565b509392505050565b600082601f830112612a8757612a86612847565b5b8135612a97848260208601612a30565b91505092915050565b60008060408385031215612ab757612ab66121f6565b5b6000612ac585828601612443565b925050602083013567ffffffffffffffff811115612ae657612ae56121fb565b5b612af285828601612a72565b9150509250929050565b6000604082019050612b1160008301856124d8565b612b1e60208301846124d8565b9392505050565b60008060408385031215612b3c57612b3b6121f6565b5b6000612b4a85828601612443565b9250506020612b5b85828601612443565b9150509250929050565b7f4e487b7100000000000000000000000000000000000000000000000000000000600052602260045260246000fd5b60006002820490506001821680612bac57607f821691505b602082108103612bbf57612bbe612b65565b5b50919050565b7f4552433732313a20617070726f76616c20746f2063757272656e74206f776e6560008201527f7200000000000000000000000000000000000000000000000000000000000000602082015250565b6000612c216021836122c6565b9150612c2c82612bc5565b604082019050919050565b60006020820190508181036000830152612c5081612c14565b9050919050565b7f4552433732313a20617070726f76652063616c6c6572206973206e6f7420746f60008201527f6b656e206f776e6572206f7220617070726f76656420666f7220616c6c000000602082015250565b6000612cb3603d836122c6565b9150612cbe82612c57565b604082019050919050565b60006020820190508181036000830152612ce281612ca6565b9050919050565b7f4552433732313a2063616c6c6572206973206e6f7420746f6b656e206f776e6560008201527f72206f7220617070726f76656400000000000000000000000000000000000000602082015250565b6000612d45602d836122c6565b9150612d5082612ce9565b604082019050919050565b60006020820190508181036000830152612d7481612d38565b9050919050565b7f596f752063616e6e6f742073656c6c204e465473207468617420796f7520646f60008201527f206e6f74206f776e000000000000000000000000000000000000000000000000602082015250565b6000612dd76028836122c6565b9150612de282612d7b565b604082019050919050565b60006020820190508181036000830152612e0681612dca565b9050919050565b7f5072696365206d7573742062652067726561746572207468616e203000000000600082015250565b6000612e43601c836122c6565b9150612e4e82612e0d565b602082019050919050565b60006020820190508181036000830152612e7281612e36565b9050919050565b7f4552433732313a20696e76616c696420746f6b656e2049440000000000000000600082015250565b6000612eaf6018836122c6565b9150612eba82612e79565b602082019050919050565b60006020820190508181036000830152612ede81612ea2565b9050919050565b7f4552433732313a2061646472657373207a65726f206973206e6f74206120766160008201527f6c6964206f776e65720000000000000000000000000000000000000000000000602082015250565b6000612f416029836122c6565b9150612f4c82612ee5565b604082019050919050565b60006020820190508181036000830152612f7081612f34565b9050919050565b7f596f752063616e6e6f742062757920796f7572206f776e204e46540000000000600082015250565b6000612fad601b836122c6565b9150612fb882612f77565b602082019050919050565b60006020820190508181036000830152612fdc81612fa0565b9050919050565b7f4f66666572206d7573742062652067726561746572207468616e203000000000600082015250565b6000613019601c836122c6565b915061302482612fe3565b602082019050919050565b600060208201905081810360008301526130488161300c565b9050919050565b7f4552433732313a207472616e736665722066726f6d20696e636f72726563742060008201527f6f776e6572000000000000000000000000000000000000000000000000000000602082015250565b60006130ab6025836122c6565b91506130b68261304f565b604082019050919050565b600060208201905081810360008301526130da8161309e565b9050919050565b7f4552433732313a207472616e7366657220746f20746865207a65726f2061646460008201527f7265737300000000000000000000000000000000000000000000000000000000602082015250565b600061313d6024836122c6565b9150613148826130e1565b604082019050919050565b6000602082019050818103600083015261316c81613130565b9050919050565b7f4552433732313a20617070726f766520746f2063616c6c657200000000000000600082015250565b60006131a96019836122c6565b91506131b482613173565b602082019050919050565b600060208201905081810360008301526131d88161319c565b9050919050565b7f4552433732313a207472616e7366657220746f206e6f6e20455243373231526560008201527f63656976657220696d706c656d656e7465720000000000000000000000000000602082015250565b600061323b6032836122c6565b9150613246826131df565b604082019050919050565b6000602082019050818103600083015261326a8161322e565b9050919050565b600081905092915050565b6000613287826122bb565b6132918185613271565b93506132a18185602086016122d7565b80840191505092915050565b60006132b9828561327c565b91506132c5828461327c565b91508190509392505050565b7f45524337323155524953746f726167653a2055524920736574206f66206e6f6e60008201527f6578697374656e7420746f6b656e000000000000000000000000000000000000602082015250565b600061332d602e836122c6565b9150613338826132d1565b604082019050919050565b6000602082019050818103600083015261335c81613320565b9050919050565b60008190508160005260206000209050919050565b60006020601f8301049050919050565b600082821b905092915050565b6000600883026133c57fffffffffffffffffffffffffffffffffffffffffffffffffffffffffffffffff82613388565b6133cf8683613388565b95508019841693508086168417925050509392505050565b6000819050919050565b600061340c6134076134028461236d565b6133e7565b61236d565b9050919050565b6000819050919050565b613426836133f1565b61343a61343282613413565b848454613395565b825550505050565b600090565b61344f613442565b61345a81848461341d565b505050565b5b8181101561347e57613473600082613447565b600181019050613460565b5050565b601f8211156134c35761349481613363565b61349d84613378565b810160208510156134ac578190505b6134c06134b885613378565b83018261345f565b50505b505050565b600082821c905092915050565b60006134e6600019846008026134c8565b1980831691505092915050565b60006134ff83836134d5565b9150826002028217905092915050565b613518826122bb565b67ffffffffffffffff81111561353157613530612851565b5b61353b8254612b94565b613546828285613482565b600060209050601f8311600181146135795760008415613567578287015190505b61357185826134f3565b8655506135d9565b601f19841661358786613363565b60005b828110156135af5784890151825560018201915060208501945060208101905061358a565b868310156135cc57848901516135c8601f8916826134d5565b8355505b6001600288020188555050505b505050505050565b600081519050919050565b600082825260208201905092915050565b6000613608826135e1565b61361281856135ec565b93506136228185602086016122d7565b61362b81612301565b840191505092915050565b600060808201905061364b6000830187612402565b6136586020830186612402565b61366560408301856124d8565b818103606083015261367781846135fd565b905095945050505050565b6000815190506136918161222c565b92915050565b6000602082840312156136ad576136ac6121f6565b5b60006136bb84828501613682565b91505092915050565b7f4e487b7100000000000000000000000000000000000000000000000000000000600052601260045260246000fd5b7f4552433732313a206d696e7420746f20746865207a65726f2061646472657373600082015250565b60006137296020836122c6565b9150613734826136f3565b602082019050919050565b600060208201905081810360008301526137588161371c565b9050919050565b7f4552433732313a20746f6b656e20616c7265616479206d696e74656400000000600082015250565b6000613795601c836122c6565b91506137a08261375f565b602082019050919050565b600060208201905081810360008301526137c481613788565b905091905056fea26469706673582212205c1670f4c85771fa62eb4f8b1df6ff682e2a361d7d4caff0b896bcfa6df111e864736f6c63430008130033",
  "linkReferences": {},
  "deployedLinkReferences": {}
}